:10000000F8FF002011040000F3380000F33800006E
:10001000F3380000F3380000F3380000F338000034
:10002000F3380000F3380000F3380000F338000024
:10003000F3380000F3380000F3380000F338000014
:10004000F3380000F3380000F3380000F338000004
:10040000FFFFFFFFFFFFFFFFFFFFFFFFFEFFFFFFFD
:1004100062B608F09DF8FEE72DE9F04786B0804609
:1004200089460024002503A80021016002A80021BC
:10043000016000A80021002206C00838DFF89009FA
:10044000B0F9000001F072F9414601F099F907D2C4
:10045000DFF87C09B0F9000001F068F9804611E08E
:10046000DFF87009B0F9000001F060F901004046C2
:1004700001F086F906D2DFF85C09B0F9000001F05E
:1004800055F98046DFF84C09B0F9000001F04EF94B
:100490000100404601F086F98046DFF83409B0F9E2
:1004A0000000DFF83019B1F90010401A01F03EF9F0
:1004B0000100404601F0EAF98046DFF81C09B0F976
:1004C0000000DFF81819B1F90010401A01F02EF9F8
:1004D000414601F059FA8046DFF80009B0F9000002
:1004E00001F024F9414601F0BBFA8046DFF8F0083C
:1004F000B0F9000001F01AF9494601F041F907D2BC
:10050000DFF8DC08B0F9000001F010F9814611E0D5
:10051000DFF8D008B0F9000001F008F90100484602
:1005200001F02EF906D2DFF8BC08B0F9000001F0A6
:10053000FDF88046DFF8AC08B0F9000001F0F6F8ED
:100540000100484601F02EF98146DFF89408B0F921
:100550000000DFF89018B1F90010401A01F0E6F839
:100560000100484601F092F98146DFF86C08B0F9C5
:100570000000DFF86818B1F90010401A01F0D6F851
:10058000494601F001FA8146DFF85008B0F9000051
:1005900001F0CCF8494601F063FA8146DFF84808DB
:1005A00090F9000001F0C2F8414601F0E9F880F04E
:1005B0004481DFF8340890F9060001F0B7F8010033
:1005C000404601F0DDF880F03881DFF81C0890F932
:1005D000010001F0ABF8414601F084FA29D801206E
:1005E0000400DFF80808B0F9000001F09FF8824627
:1005F000DFF8F40790F9010001F098F8414601F0A6
:10060000D1F8514601F0C0F98246DFF8DC0790F9D5
:100610000100DFF8D41791F90010401A01F086F8B4
:100620000100504601F032F901F06EFAADF80C000D
:1006300026E1DFF8B40790F9020001F077F84146AF
:1006400001F050FA29D802200400DFF8A007B0F921
:10065000000001F06BF88246DFF88C0790F9020089
:1006600001F064F8414601F09DF8514601F08CF923
:100670008246DFF8740790F90200DFF86C1791F9F1
:100680000110401A01F052F80100504601F0FEF846
:1006900001F03AFAADF80C00F2E0DFF84C0790F9FF
:1006A000030001F043F8414601F01CFA29D8032069
:1006B0000400DFF83807B0F9000001F037F882468F
:1006C000DFF8240790F9030001F030F8414601F00B
:1006D00069F8514601F058F98246DFF80C0790F9A5
:1006E0000300DFF8041791F90210401A01F01EF818
:1006F0000100504601F0CAF801F006FAADF80C000E
:10070000BEE0DFF8E40690F9040001F00FF841467E
:1007100001F0E8F929D804200400DFF8D006B0F988
:10072000000001F003F88246DFF8BC0690F90400EF
:1007300000F0FCFF414601F035F8514601F024F984
:100740008246DFF8A40690F90400DFF89C1691F9C0
:100750000310401A00F0EAFF0100504601F096F83D
:1007600001F0D2F9ADF80C008AE0DFF87C0690F9D0
:10077000050000F0DBFF414601F0B4F929D805205F
:100780000400DFF86806B0F9000000F0CFFF8246F1
:10079000DFF8540690F9050000F0C8FF414601F06B
:1007A00001F8514601F0F0F88246DFF83C0690F976
:1007B0000500DFF8341691F90410401A00F0B6FF76
:1007C0000100504601F062F801F09EF9ADF80C000E
:1007D00056E0DFF8140690F9060000F0A7FF414646
:1007E00001F080F94CD806200400DFF80006B0F9CB
:1007F000000000F09BFF8246DFF8EC0590F9060050
:1008000000F094FF414600F0CDFF514601F0BCF8E6
:100810008246DFF8D40590F90600DFF8CC1591F98F
:100820000510401A00F082FF0100504601F02EF83A
:1008300001F06AF9ADF80C0022E0DFF8AC0590F9A0
:10084000000000F073FF414601F04CF908D8012088
:100850000400DFF89805B0F90000ADF80C000FE0D7
:10086000DFF8840590F9060000F060FF01004046C3
:1008700001F038F904D8062004000020ADF80C007F
:10088000DFF868050088BDF80C10401AADF80E00BE
:10089000DFF85C0590F9000000F048FF494600F0E1
:1008A0006FFF80F03B81DFF8480590F9060000F00B
:1008B0003DFF0100484600F063FF80F02F81DFF824
:1008C000300590F9010000F031FF494601F00AF9C6
:1008D00029D801200500DFF81405B0F9000000F068
:1008E00025FF8246DFF8080590F9010000F01EFFA1
:1008F000494600F057FF514601F046F88246DFF8BE
:10090000F00490F90100DFF8E81491F90010401AA2
:1009100000F00CFF0100504600F0B8FF01F0F4F8C1
:10092000ADF808001AE1DFF8C80490F9020000F001
:10093000FDFE494601F0D6F829D802200500DFF86F
:10094000AC04B0F9000000F0F1FE8246DFF8A0042C
:1009500090F9020000F0EAFE494600F023FF5146FC
:1009600001F012F88246DFF8880490F90200DFF8FF
:10097000801491F90110401A00F0D8FE0100504691
:1009800000F084FF01F0C0F8ADF80800E6E0DFF801
:10099000600490F9030000F0C9FE494601F0A2F896
:1009A00029D803200500DFF84404B0F9000000F066
:1009B000BDFE8246DFF8380490F9030000F0B6FE71
:1009C000494600F0EFFE514600F0DEFF8246DFF8B8
:1009D000200490F90300DFF8181491F90210401A6E
:1009E00000F0A4FE0100504600F050FF01F08CF82A
:1009F000ADF80800B2E0DFF8F80390F9040000F069
:100A000095FE494601F06EF829D804200500DFF86C
:100A1000DC03B0F9000000F089FE8246DFF8D00365
:100A200090F9040000F082FE494600F0BBFE5146FA
:100A300000F0AAFF8246DFF8B80390F90400DFF85F
:100A4000B01391F90310401A00F070FE01005046F7
:100A500000F01CFF01F058F8ADF808007EE0DFF868
:100A6000900390F9050000F061FE494601F03AF864
:100A700025D805200500DD48B0F9000000F056FE3D
:100A80008246DB4890F9050000F050FE494600F030
:100A900089FE514600F078FF8246D54890F905005E
:100AA000D34991F90410401A00F040FE010050466D
:100AB00000F0ECFE01F028F8ADF808004EE0CC485C
:100AC00090F9060000F032FE494601F00BF845D8D7
:100AD00006200500C548B0F9000000F027FE824658
:100AE000C34890F9060000F021FE494600F05AFE86
:100AF000514600F049FF8246BD4890F90600BC49C6
:100B000091F90510401A00F011FE0100504600F066
:100B1000BDFE00F0F9FFADF808001FE0B44890F901
:100B2000000000F003FE494600F0DCFF07D801207A
:100B30000500AE48B0F90000ADF808000EE0AC4882
:100B400090F9060000F0F2FD0100484600F0CAFFEF
:100B500004D8062005000020ADF80800A34800884E
:100B6000BDF80810401AADF80A00DFF88802E4B2B8
:100B7000072101FB0400EDB2281810F9080CADF8AC
:100B80001000DFF87002E4B2072101FB0400EDB2AF
:100B9000281810F9010CADF81200DFF85802E4B281
:100BA000072101FB0400EDB2281810F9070CADF87D
:100BB0001400DFF84002E4B2072101FB0400EDB2AB
:100BC0002856ADF81600BDF90C00BDF90810884292
:100BD00004DABDF90C00ADF8000003E0BDF908002F
:100BE000ADF80000BDF90E00BDF90810884204DA26
:100BF000BDF80E00ADF8020003E0BDF80800ADF846
:100C00000200BDF90C00BDF90A10884204DABDF8F3
:100C10000C00ADF8040003E0BDF80A00ADF80400D4
:100C2000BDF90E00BDF90A10884204DABDF80E00C5
:100C3000ADF8060003E0BDF80A00ADF80600BDF906
:100C40001000BDF9121088420CD1BDF90200BDF9A7
:100C50000010884203DA0020ADF8020002E0002014
:100C6000ADF80000BDF91000BDF9141088420CD198
:100C7000BDF90400BDF90010884203DA0020ADF888
:100C8000040002E00020ADF80000BDF91000BDF93D
:100C9000161088420CD1BDF90600BDF9001088423B
:100CA00003DA0020ADF8060002E00020ADF80000F5
:100CB000BDF91200BDF9141088420CD1BDF9040031
:100CC000BDF90210884203DA0020ADF8040002E00A
:100CD0000020ADF80200BDF91200BDF916108842DF
:100CE0000CD1BDF90600BDF90210884203DA0020DC
:100CF000ADF8060002E00020ADF80200BDF91400D6
:100D0000BDF9161088420CD1BDF90600BDF90410DA
:100D1000884203DA0020ADF8060002E00020ADF8BA
:100D20000400DFF8D4000068BDF9101030F911009C
:100D3000ADF81000DFF8C0000068BDF9121030F8FF
:100D40001100ADF81200DFF8B0000068BDF9141012
:100D500030F81100ADF81400DFF89C000068BDF910
:100D6000161030F81100ADF81600BDF90000BDF9FD
:100D7000101010FB01F0BDF90210BDF9122011FB9B
:100D80000200BDF90410BDF9142011FB0200BDF9E9
:100D90000610BDF9162011FB020000F0C7FC06008A
:100DA000BDF90000BDF9021001FA80F0BDF9041090
:100DB00000FA81F0BDF9061000FA81F000F0B6FCEF
:100DC00007003000390000F061FD06B0BDE8F08793
:100DD0008A180000C21D00000E4B0000264B0000C8
:100DE000661F0000F6320000D48A00005E4B00004F
:100DF000DC8A0000A004FF1F9404FF1F2DE9F04FC0
:100E000087B006000F0000240025DFF8F408B0F9D1
:100E1000000036B2864205DADFF8E408B0F90000D7
:100E200006000BE0DFF8DC08B0F9000036B2B04293
:100E300004DADFF8D008B0F900000600DFF8C808CF
:100E4000B0F900003FB2874205DADFF8BC08B0F91C
:100E5000000007000BE0DFF8B408B0F900003FB273
:100E6000B84204DADFF8A408B0F90000070036B28F
:100E7000DFF88C08B0F90000301A00F067FE8046F9
:100E80008946DFF88008B0F90000DFF87418B1F97E
:100E90000010401A00F05AFE02000B00404649467E
:100EA00000F06CFE80468946DFF86408B0F9000067
:100EB000DFF86018B1F90010401A00F047FE424612
:100EC0004B4600F07FFF80468946DFF84808B0F9BE
:100ED000000000F03BFE42464B4601F045F801F0B1
:100EE000B7F806003FB2380000F030FE8046894671
:100EF000DFF81808B0F90000DFF80C18B1F900109D
:100F0000401A00F023FE02000B004046494600F064
:100F100035FE80468946DFF8F807B0F90000DFF8B3
:100F2000F417B1F90010401A00F010FE42464B468B
:100F300000F048FF80468946DFF8D807B0F9000086
:100F400000F004FE42464B4601F00EF801F080F836
:100F50000700DFF8C40790F9000000B236B2B042D3
:100F600080F22F81DFF8B00790F9060036B200B2A8
:100F7000864280F22681DFF8A00790F9010000B2D6
:100F800036B2B04228DB01200400DFF89007B0F948
:100F9000000000F0CBFB8046DFF87C0790F90100F1
:100FA00036B2801B00F0C2FB8146DFF86C0790F977
:100FB0000100DFF8641791F90010401A00F0B6FB49
:100FC0000100484600F062FC414600F0DDFC00F004
:100FD0009BFDADF80C0011E1DFF83C0790F9020031
:100FE00000B236B2B04228DB02200400DFF82C0742
:100FF000B0F9000000F09AFB8046DFF81C0790F97A
:10100000020036B2801B00F091FB8146DFF8080732
:1010100090F90200DFF8001791F90110401A00F072
:1010200085FB0100484600F031FC414600F0ACFC75
:1010300000F06AFDADF80C00E0E0DFF8DC0690F9A6
:10104000030000B236B2B04228DB03200400DFF810
:10105000CC06B0F9000000F069FB8046DFF8B80666
:1010600090F9030036B2801B00F060FB8146DFF888
:10107000A80690F90300DFF8A01691F90210401AB3
:1010800000F054FB0100484600F000FC414600F02F
:101090007BFC00F039FDADF80C00AFE0DFF878061E
:1010A00090F9040000B236B2B04228DB04200400FC
:1010B000DFF86806B0F9000000F038FB8046DFF882
:1010C000580690F9040036B2801B00F02FFB8146D1
:1010D000DFF8440690F90400DFF83C1691F903109C
:1010E000401A00F023FB0100484600F0CFFB4146C8
:1010F00000F04AFC00F008FDADF80C007EE0DFF8DF
:10110000180690F9050000B236B2B04228DB05207F
:101110000400DFF80806B0F9000000F007FB804685
:10112000DFF8F40590F9050036B2801B00F0FEFAF6
:101130008146DFF8E40590F90500DFF8DC1591F948
:101140000410401A00F0F2FA0100484600F09EFB3D
:10115000414600F019FC00F0D7FCADF80C004DE062
:10116000DFF8B40590F9060000B236B2B04245DBB4
:1011700006200400DFF8A405B0F9000000F0D6FA5C
:101180008046DFF8940590F9060036B2801B00F027
:10119000CDFA8146DFF8800590F90600DFF8781572
:1011A00091F90510401A00F0C1FA0100484600F01C
:1011B0006DFB414600F0E8FB00F0A6FCADF80C002A
:1011C0001CE0DFF8540590F9000000B236B2B042DE
:1011D00007DB01200400DFF844050088ADF80C00AF
:1011E0000CE0DFF8340590F9060036B200B2864212
:1011F00004DB062004000020ADF80C00DFF81C051D
:10120000B0F90000BDF80C10401AADF80E00DFF880
:10121000100590F9000000B23FB2B84280F225817B
:10122000DFF8FC0490F906003FB200B2874280F27A
:101230001C81DFF8EC0490F9010000B23FB2B84223
:1012400028DB01200500DFF8D404B0F9000000F02D
:101250006DFA8046DFF8C80490F901003FB2C01B68
:1012600000F064FA8146DFF8B80490F90100DFF875
:10127000B01491F90010401A00F058FA01004846E5
:1012800000F004FB414600F07FFB00F03DFCADF8B0
:10129000080004E1DFF8880490F9020000B23FB2D0
:1012A000B84228DB02200500DFF87004B0F9000026
:1012B00000F03CFA8046DFF8680490F902003FB283
:1012C000C01B00F033FA8146DFF8540490F90200A5
:1012D000DFF84C1491F90110401A00F027FA0100D0
:1012E000484600F0D3FA414600F04EFB00F00CFCFB
:1012F000ADF80800D3E0DFF8280490F9030000B24D
:101300003FB2B84228DB03200500DFF81004B0F933
:10131000000000F00BFA8046DFF8040490F90300A7
:101320003FB2C01B00F002FA8146DFF8F40390F9E7
:101330000300DFF8EC1391F90210401A00F0F6F9FF
:101340000100484600F0A2FA414600F01DFB00F003
:10135000DBFBADF80800A2E0DFF8C40390F904005D
:1013600000B23FB2B84228DB04200500DFF8AC032E
:10137000B0F9000000F0DAF98046DFF8A40390F934
:1013800004003FB2C01B00F0D1F98146DFF89003A2
:1013900090F90400DFF8881391F90310401A00F067
:1013A000C5F90100484600F071FA414600F0ECFA38
:1013B00000F0AAFBADF8080071E0D94890F90500EB
:1013C00000B23FB2B84224DB05200500D348B0F993
:1013D000000000F0ABF98046D14890F905003FB21B
:1013E000C01B00F0A3F98146CD4890F90500CC4917
:1013F00091F90410401A00F099F90100484600F0F4
:1014000045FA414600F0C0FA00F07EFBADF8080056
:1014100045E0C34890F9060000B23FB2B8423EDB57
:1014200006200500BD48B0F9000000F07FF98046B5
:10143000BB4890F906003FB2C01B00F077F9814627
:10144000B74890F90600B64991F90510401A00F026
:101450006DF90100484600F019FA414600F094FA8F
:1014600000F052FBADF8080019E0AD4890F900001B
:1014700000B23FB2B84206DB01200500A748008851
:10148000ADF808000BE0A64890F906003FB200B2A4
:10149000874204DB062005000020ADF808009F48C5
:1014A000B0F90000BDF80810401AADF80A009D48D8
:1014B0000E2114FB01002DB210EB450030F9100C89
:1014C000ADF8100097480E2114FB01002DB210EB6F
:1014D000450030F9020CADF8120092480E2114FBC1
:1014E00001002DB210EB450030F90E0CADF81400E0
:1014F0008C480E2114FB01002DB230F91500ADF817
:101500001600BDF80C00BDF80810884204D2BDF8E2
:101510000C00ADF8000003E0BDF80800ADF80000D5
:10152000BDF80E00BDF80810884204D2BDF80E00C8
:10153000ADF8020003E0BDF80800ADF80200BDF808
:101540000C00BDF80A10884204D2BDF80C00ADF8BA
:10155000040003E0BDF80A00ADF80400BDF80E0079
:10156000BDF80A10884204D2BDF80E00ADF806009E
:1015700003E0BDF80A00ADF80600BDF91000BDF9A2
:10158000121088420CD1BDF80200BDF8001088424C
:1015900003D20020ADF8020002E00020ADF8000008
:1015A000BDF91000BDF9141088420CD1BDF804003B
:1015B000BDF80010884203D20020ADF8040002E01C
:1015C0000020ADF80000BDF91000BDF916108842EA
:1015D0000CD1BDF80600BDF80010884203D20020EF
:1015E000ADF8060002E00020ADF80000BDF91200E1
:1015F000BDF9141088420CD1BDF80400BDF80210EA
:10160000884203D20020ADF8040002E00020ADF8CB
:101610000200BDF91200BDF9161088420CD1BDF8C8
:101620000600BDF80210884203D20020ADF8060083
:1016300002E00020ADF80200BDF91400BDF916105B
:1016400088420CD1BDF80600BDF80410884203D2D0
:101650000020ADF8060002E00020ADF8040032489A
:101660000068BDF9101030F91100ADF810002E48D7
:101670000068BDF9121030F81100ADF812002A48C8
:101680000068BDF9141030F81100ADF814002648B8
:101690000068BDF9161030F81100ADF81600BDF85D
:1016A0000000BDF91010BDF80220BDF912305A43F8
:1016B00001FB0020BDF80410BDF9142002FB01005D
:1016C000BDF80610BDF9162002FB01000690BDF81A
:1016D0000000BDF8021011FA80F0BDF8041010FAF5
:1016E00081F0BDF8061010FA81F08346069890FB51
:1016F000FBF08246504600B207B0BDE8F08F000014
:101700008E4D0000A64C0000605700000A4E0000FD
:101710001E8A00002A8A0000E48A00004E8A000027
:10172000EC8A0000D404FF1F9C04FF1F002840F136
:101730000980F446404200F005F850F00040604750
:10174000002800BF0AD0B0FA80F18840D1F19D0195
:10175000C905020672F1004241EB1020704750F8B3
:10176000041B61B150F8042BD30744BFA9F1010356
:101770009A180023091F42F8043BFAD1EFE770479B
:101780004FF0807C1CEB400F94BF1CEB410F05E039
:1017900040EA010C5FEA4C0C01D28842704718BF46
:1017A0008142704790EA010F44BF81F0004100F090
:1017B0005FB900BF431A4FF000423EBF5340C01A0A
:1017C000C91800BFD3095FEAD05C13EB400F34BFE8
:1017D000B3EB410F40E07CEBD1530CD342EA012143
:1017E00022D8D1EB402009D3400A28BF5FEA50013C
:1017F00040EBCC507047401A15D04002B0FA80F24E
:10180000521C9040400A4FEA3C23B3EB026384BF72
:1018100000EB730007E040F400001A16DB07C2F18A
:101820000102D04018437047182BFCDC31FA03F258
:1018300002FA03F3591A38BF42F00102D2EB4020FA
:101840003CBF4000ACF1010C5FEACC5CC20572F118
:1018500000414CEB5020704713EB400F0FD24B0070
:1018600009D0ACEBD153022B03DB4902172BDDDD92
:1018700070479143401A4300D5D10020704713EBC5
:10188000410FD0D36FF000007047820010B5FF23E6
:1018900013EAD0541DBF13EAD1529C429A4239E058
:1018A000A41ADA0780EA0103134042EA012142EA5E
:1018B0000020421A3CBF641E01EB4202090AB2FB3F
:1018C000F1FE01FB1E221202B2FBF1F001FB10221D
:1018D0006EF30F201202B2FBF1FE4EEA00207F34BD
:1018E00006DDFE2C24DA53EA500050EBC45010BD44
:1018F000D4F1020401FB1E2240F08071192C1DDC82
:1019000021FA04F0C4F12004A140114371F1004216
:10191000584110BD9C421ABF03EAD1529A420FE0CF
:1019200080EA010E0EF00043400004D0490016D1B9
:1019300043F0FF4010BD490008BFD343180010BD5D
:101940009C4205D1D21AF7D001F00041484010BDA9
:101950004A0212BF0846484000F0004010BD4AB994
:101960000902B1FA81F2914044B1A418C00140F0DB
:1019700000409EE7C90141F0004152420002B0FA26
:1019800080F4A040141B94E7FF2212EAD05C1DBF34
:1019900012EAD153944593422BE09C44D30780EA4A
:1019A00001021A4043EA002043EA0121A1FB003072
:1019B000410038BF40007CF17F010BDBFE294ADA91
:1019C0005B0842EAC15153EA006373F1004C51EBEA
:1019D00010207047D1F1080CDCF120012FDB5B08EF
:1019E00010FA01F10B4373F1004120FA0CF0504161
:1019F000704794451CBF02EAD153934280EA01022A
:101A000002F000421DD0400019D0490017D05BB948
:101A1000634514D00902B1FA81F39940BCEB030C81
:101A2000C00140F00040C1E70002B0FA80FC10FAAB
:101A30000CF0B3EB0C0CC90141F00041B6E710000B
:101A4000704740000AD0490008D010F1807F94BF51
:101A500011F1807F02E042F0FF407047D0437047B1
:101A600090EA010F44BF81F00041FFF7A3BE00BF21
:101A7000421A3CBF801A89184FF0004CC0F3C7527D
:101A8000FF2A24D0C1F3C75313B3D21AD2F11903DA
:101A900027DD4CEA01214CFA03F321EA0303D1408C
:101AA000C20D4CEA0020401834BF20EA0C004CEA7A
:101AB0005000D20553EA006373EB0C0C52EB10207C
:101AC000420012F1807F38BF7047C00DC0057047DB
:101AD000490212BF9A4200EB5120F8E7D2F11703F6
:101AE000D9D570474FF0807C1CEB400F94BF1CEBA6
:101AF000410F05E040EA010C5FEA4C0C01D2814243
:101B0000704718BF884270474100090E7F3915D4CD
:101B1000D1F11F0114D4400007D2C00140F00040B1
:101B2000C84048BF6FF000407047C00140F000401F
:101B3000C8404CBF4FF00040404270470020704703
:101B400000424FF0004058BFC0437047010040F1D1
:101B50000980F446404200F005F851F0004160472A
:101B6000010000BF09D0B0FA80F18840C91CC1F55E
:101B70008461090501EBD02140057047F0B540F2C2
:101B8000FF7581EA030C0CF0004C15EA11541DBFDF
:101B900015EA1357AC42AF42E5E0BC41C1F3130173
:101BA000C3F31303801A994143F4801304D2641ED3
:101BB0004000494180185941C90241EA5051B1FBE6
:101BC000F3F603FB1611A2FB0675D7EBC020A94163
:101BD00002D2761E80185941C90241EA5051B1FB28
:101BE000F3FE03FB1E11A2FB0E75D7EBC020A9412B
:101BF00003D2AEF1010E80185941890241EA905199
:101C0000760546EA8E2EB1FBF3F603FB1611A2FB16
:101C10000675D7EB8020A94102D2761E8018594163
:101C2000C90241EA50514EEA060EB1FBF3F603FB3E
:101C30001611A2FB0675D7EBC020A94102D2761E71
:101C400080185941C90241EA5051B1FBF3F703FB37
:101C50001711A2FB0735D3EBC020A94167F100079C
:101C60000CBF004247F0010766F3D5274FEA1E314B
:101C7000B80814F5806412DDBD0775F1004250EB21
:101C80000E5051EB045111F5801F5CBF41EA0C016D
:101C9000F0BD4CF07F6141F0E0410020F0BDBD0798
:101CA0006D0840EA0E5041F48011D4F10104B4F102
:101CB00020060ADAC4F120060200E04001FA06F329
:101CC000E1401843B24015430EE0342C13DCC6F15A
:101CD000200445EA40056D0820FA06F2154321FA72
:101CE00006F0A1400D43002175F1004250F10000C3
:101CF00051EB0C01F0BD00205FEA0C01F0BDCFB943
:101D000092185B41B3FA83F704BFB2FA82F6BF19A7
:101D10000B3FB7F120062FBF02FA06F3BB40C7F115
:101D2000200622FA06F638BF3343BA401CB1E41944
:101D3000641E33E77F4231F00041B1FA81F404BF01
:101D4000B0FA80F6A4190B3CB4F120062FBF00FABC
:101D500006F1A140C4F1200620FA06F638BF31434F
:101D6000A0403C1B1AE7AC421ABF05EA1357AF422A
:101D700012E050EA41061CBF52EA4306BFE750EAB0
:101D80004107304661461CBF41EA0551F0BD52EAA9
:101D9000430C08BFC143F0BD00204FF4001616EB02
:101DA000410F98BF16EB430F08BF16EB410F24BF3E
:101DB000C14305E016EB430F0CBF61464CEA0551E9
:101DC000F0BD0000B0B581EA030C0CF0004C40F20D
:101DD000FF7515EA11541DBF15EA1357AC42AF4207
:101DE00039E0E41923EA455343F48013C90241F072
:101DF000004141EA505EC7021100A7FB0202002821
:101E00004FF00000EEFB01204FF00001E3FB072143
:101E100018BF42F00102401800214941E3FB0E01C6
:101E2000A4F580640F0302D252004041494154F1AD
:101E300001046CDD470872F1004250F1000051EBE3
:101E40000451A1F580115CBF41EA0C01B0BD4CEA20
:101E500005510020B0BD05EA1357AC4214BFAF4294
:101E600041E050EA410E1CBF52EA430E02E06146D7
:101E70000020B0BD24423C441BD15FEA070EF6D0DF
:101E8000090302BF01460020AEF1140EB1FA81F73A
:101E9000AEEB070401FA07FE0C37C7F1200100FA88
:101EA00007F7C8404EEA000E23EA455343F4801377
:101EB000A2E733F00043B3FA83F704BFB2FA82FE1D
:101EC00077440B3FE41BB7F1200E2FBF02FA0EF34D
:101ED000BB40C7F1200E22FA0EFE38BF43EA0E03C4
:101EE000BA40641C82E750EA410E14BF52EA430E26
:101EF0006FF000014FF4001717EB430F8ABF19462C
:101F000017EB410FB5E74CEA05510020B0BDD4F105
:101F10000104B4F120070FDAC4F12007520828BFEA
:101F200042F0010210FA07F501FA07F7E1BF2A4370
:101F3000E0403843E1400FE0352C98DCC7F1200445
:101F400052EA400220FA07F218BF42F0010231FAC9
:101F500007F0A1400A43002172F1004250F1000055
:101F600051EB0C01B0BD410070B44FF0004591EA57
:101F7000030C44BF6B4000F0A1B800BF841A71EBA2
:101F8000030603D2001BB141121973414FF4001C28
:101F90001CEB410F34BF7CEB430443E00C0DA4EB7E
:101FA0001356352E50DC45EAC323DB0A45EAC1212E
:101FB000C912B6F120050DDD63FA05F6EB4086EA9D
:101FC0000305124218BF45F00105C01851F1000188
:101FD0000CD213E062FA06F5F2405540F3415A4044
:101FE000B340F3405A408018594107D349085FEA8B
:101FF00030005FEA350528BF45F0010501F5801185
:10200000420875F1004250F1000041EB045170BCF0
:102010004FF4001C1CEB410F38BF70470020090D26
:10202000090570471CEB410F10D252EA43060BD052
:10203000BCEB410F05D80C0DAB43661E342EB5DD4D
:1020400002E0AB438018594170BC704770BC7047C8
:10205000F446400D40EAC120490006D200F014F8D1
:10206000004248BF6FF00040604700F00DF84FF0AD
:10207000004188428CBF084640426047400D40EA1C
:10208000C120490080F00D8040F00040490DA1F5CD
:102090008061491C05D4D1F11F0154BFC840C0174D
:1020A00070474FF00000704770B44FF0004591EA60
:1020B000030F44BF6B40FFF761BF00BF841A71EB91
:1020C000030604D26E40001BB141121973414FF454
:1020D000001C1CEB410F34BF7CEB430684E00C0D6D
:1020E000A4EB1356362E7DDC012E43DC45EAC323D8
:1020F00043EA525312BFD20292025B08240545EA1A
:10210000C12141EA5051D2EBC020994125D407D1D9
:10211000B0FA80F610FA06F164D00020203608E00C
:10212000B1FA81F6B140C6F1200220FA02F2114361
:10213000B0404FEAF474B4EB465434F001064FEA71
:1021400074040AD8D6F50016760D04F00044F04069
:1021500061FA06F25040F1404840C00A40EA41505E
:1021600021F0004128BF5FEA500550F1000044EB28
:10217000D12137E045EAC323DB0A45EAC121C90A78
:10218000B6F120050EDD42EA0242120CC5F120062E
:1021900003FA06F6EB4042EA06056D42984161F10A
:1021A00000010DE062FA06F5F240554063FA06FCC4
:1021B00082EA0C02F3405A406D42904161EB030108
:1021C00011F4801F05D1641E620502D06D004041EC
:1021D000494121F48011430875F1004350F100009A
:1021E00041EB045170BC70471CEB410F15D223F03A
:1021F000004352EA43060BD04FEA4C0CBCEB410FB4
:1022000004D80C0D661E342EB7DDEBE7801A994119
:1022100050EA410608BF0021E4E708BF1CEB430F6A
:1022200028BF6FF00001DDE738B50520DFF8801A20
:102230000870DFF87C0A007800285BD0DFF8DC0B40
:10224000DFF86C1A0978081810F8010CDFF8CC1BBD
:10225000DFF85C2A12785054DFF8C00BDFF8501A10
:10226000097808184079DFF8B41BDFF8442A12789F
:1022700051188871DFF8A40BDFF8341A09780818B0
:10228000C07ADFF8981BDFF8282A127851180873F3
:10229000DFF8880BDFF8181A09780818407CDFF897
:1022A0007C1BDFF80C2A127851188874DFF86C0B4D
:1022B000DFF8FC1909780818407FDFF8601BDFF8A9
:1022C000F029127851188877DFF8500BDFF8E01901
:1022D00009780818C07DDFF8441BDFF8D42912788C
:1022E00051180876DFF8C8090078401EDFF8C019D9
:1022F00008709EE70F2200212A2000F024FFDFF85B
:102300001C1B88710F2200212B2000F01CFFDFF81E
:102310000C1B08700F2200212D2000F014FFDFF8A5
:10232000FC1A08730F2200212C2000F00CFFDFF8AC
:10233000EC1A88740F2200212E2000F004FFDFF831
:10234000DC1A08760F2200212F2000F0FCFEDFF8B7
:10235000CC1A88770A2200210D2000F0F4FEFFF746
:10236000FFFBDFF8BC2ADFF8BC3AFFF72BFD00F0DB
:1023700053FFDFF8B41A0860DFF8A00A0078FFF70F
:10238000EFFB5FF06632DFF8A43AFFF71BFD0400B5
:102390000D00DFF8880A4078FFF7E2FBDFF8902AAB
:1023A000DFF8903AFFF70EFD22002B00FFF7DCFD6F
:1023B00004000D00DFF8640A8078FFF7D1FBDFF836
:1023C000702ADFF8743AFFF7FDFC22002B00FFF7BC
:1023D000CBFDFFF73DFEDFF8441A0870DFF83C0A3A
:1023E0008079FFF7BDFB5FF06632DFF8403AFFF718
:1023F000E9FC04000D00DFF8240AC079FFF7B0FB08
:10240000DFF82C2ADFF82C3AFFF7DCFC22002B0047
:10241000FFF7AAFD04000D00DFF8000A007AFFF7BD
:102420009FFBDFF80C2ADFF8103AFFF7CBFC220005
:102430002B00FFF799FDFFF70BFEDFF8E01988711D
:10244000DFF8D809007BFFF78BFB5FF06632DFF81F
:10245000DC39FFF7B7FC04000D00DFF8C009407B52
:10246000FFF77EFBDFF8C829DFF8C839FFF7AAFCC1
:1024700022002B00FFF778FD04000D00DFF89C0917
:10248000807BFFF76DFBDFF8A829DFF8AC39FFF799
:1024900099FC22002B00FFF767FDFFF7D9FDDFF85D
:1024A0007C190873DFF87409807CFFF759FB5FF033
:1024B0006632DFF87839FFF785FC04000D00DFF89D
:1024C0005C09C07CFFF74CFBDFF86429DFF8643956
:1024D000FFF778FC22002B00FFF746FD04000D00FB
:1024E000DFF83809007DFFF73BFBDFF84429DFF810
:1024F0004839FFF767FC22002B00FFF735FDFFF797
:10250000A7FDDFF818198874DFF81009007EFFF7BF
:1025100027FB5FF06632DFF81439FFF753FC040045
:102520000D00DFF8F808407EFFF71AFBDFF80029FE
:10253000DFF80039FFF746FC22002B00FFF714FDFF
:1025400004000D00DFF8D408807EFFF709FBDFF8F8
:10255000E028DFF8E438FFF735FC22002B00FFF716
:1025600003FDFFF775FDDFF8B4180876DFF8AC0857
:10257000807FFFF7F5FA5FF06632DFF8B038FFF7DB
:1025800021FC04000D00DFF89408C07FFFF7E8FA93
:10259000DFF89C28DFF89C38FFF714FC22002B00A2
:1025A000FFF7E2FC04000D00DFF8700890F820004F
:1025B000FFF7D6FADFF87828DFF87C38FFF702FC5F
:1025C00022002B00FFF7D0FCFFF742FDDFF84C188C
:1025D0008877DFF8480880790A2803DA0A20DFF8CC
:1025E0003C188871DFF8340800780A2803DA0A20DA
:1025F000DFF828180870DFF82408007B0A2803DABF
:102600000A20DFF818180873DFF81008807C0A2801
:1026100003DA0A20DFF804188874DFF80008007E67
:102620000A2803DA0A20DFF8F4170876DFF8EC0747
:10263000807F0A2803DA0A20DFF8E017887731BDA7
:102640002DE9F84FDFF8D40780790400DFF8CC07D4
:1026500000780600DFF8C407007B0500DFF8BC0740
:10266000807C8346DFF8B407007E8246DFF8AC0743
:10267000807F0700A4B2382C49DAB6B2422E46DA7F
:10268000ADB2382D43DAA4B2142C40DBB6B2142E0E
:102690003DDBADB2142D3ADBA4B2B6B2A01B0128CB
:1026A00003DBA4B2B6B2A01B02E0B6B2A4B2301BE8
:1026B00015282CDAADB2B6B2A81B012803DBADB2E7
:1026C000B6B2A81B02E0B6B2ADB2701B15281EDA76
:1026D000A4B2ADB2601B012803DBA4B2ADB2601B93
:1026E00002E0ADB2A4B2281B152810DABFB21F2F2A
:1026F0000DDA1FFA8AFABAF11F0F08DA1FFA8BFBFC
:10270000BBF11F0F03DA0120DFF830170870B6B2F3
:10271000472E05DAA4B2472C02DAADB2472D70DBA2
:10272000DFF81807007801286BD10020DFF80C17BC
:1027300008700020DFF8081708700020DFF8041781
:1027400008800020DFF8001708700020DFF8FC1672
:1027500008700020DFF8F81608700020DFF8F41683
:1027600008700020DFF8F01608700020DFF8EC1683
:1027700008700020DFF8E8160870DFF8E806007837
:10278000012812D1DFF8E006007801280DD1DFF82A
:10279000DC060078002808D10020DFF8C816087091
:1027A0000120DFF8CC1608702BE0DFF8B8060078BF
:1027B00001280ED1DFF8B0060078012809D1DFF832
:1027C000AC060078012804D10020DFF8A0160870BC
:1027D00017E0DFF890060078022804D10120DFF826
:1027E000841608700DE0DFF87C060078002808D118
:1027F000DFF874060078012803D10120DFF8741691
:102800000870B6B2652E04DB0020DFF86C16086095
:102810001FE0B6B23000FFF7A3F90022DFF85C3604
:10282000FFF7D0FA80468946DFF85406006800F0CA
:102830003BFD02000B0040464946FFF79FF900228E
:10284000DFF84036FFF790FB00F0E6FCDFF82816D3
:102850000860DFF8E8050078002852D1DFF8180694
:1028600040680021FFF73EF903D2DFF80C0640680C
:1028700004E0DFF80406406890F00040DFF8081636
:10288000FFF730F914D8DFF8F00540680021FFF7B2
:1028900029F980F00B82DFF8E005006890F0004035
:1028A000DFF8D41508600120DFF8E0150870FDE1BD
:1028B000A4B2ADB2AC420CD2DFF8BC05006890F017
:1028C0000040DFF8B41508600120DFF8C01508707B
:1028D000ECE1ADB2A4B2A54240F0E881DFF8AC056E
:1028E0000078012840F0E281DFF88C05006890F064
:1028F0000040DFF8841508600020DFF890150870AC
:10290000D4E1DFF838050078012840F0CF81DFF806
:1029100054050078002811D1DFF84C050078012813
:102920000CD10120DFF82C1508700020DFF84015CD
:1029300008700020DFF83C1508701CE0DFF8240563
:102940000078012817D1DFF820050078012812D17E
:10295000DFF80C050078012804D10120DFF8F0141D
:10296000087008E0DFF8F8040078022803D101209D
:10297000DFF8D8140870DFF8D8040078002829D1CF
:10298000DFF8C8040078002824D1DFF8D8040078E4
:1029900000281FD1DFF8E00440680021FFF7A2F80B
:1029A00008D20120DFF8A41408700120DFF8AC146D
:1029B00008703AE0DFF8C00440680021FEF7E0FE4E
:1029C00033D20120DFF8881408700220DFF88C145D
:1029D00008702AE0DFF878040078002825D1DFF8B5
:1029E0006C040078002820D1DFF8780400780128F2
:1029F0001BD1DFF874040078002816D1DFF87804C2
:102A000040680021FFF76EF804D20120DFF83C1483
:102A100008700AE0DFF8600440680021FEF7B0FEAD
:102A200003D20120DFF828140870DFF818040088AA
:102A3000401CDFF810140880DFF80804008847F213
:102A40003151884204DB47F23050DFF8F813088038
:102A5000DFF8FC030078012805D0DFF804040078D3
:102A6000012840F09D800220DFF8F0130870DFF8A5
:102A7000D4030088332810DADFF8FC03006800F084
:102A800013FC5FF06632DFF8A433FFF79BF900F028
:102A9000C3FBDFF8E413086008E1DFF8A80300884F
:102AA0003328C0F20381A4B2ADB2AC421AD2DFF82F
:102AB00098030078002815D10220DFF88C130870E5
:102AC000DFF8A003007800280CD1DFF89C03007821
:102AD000012807D10120DFF8B81308700220DFF8C1
:102AE00084130870DFF860030078022840F0DE806D
:102AF000DFF85003008864282ADBADB2A4B2A542F7
:102B000010D3DFF87403006800F0CEFBDFF88423F5
:102B1000DFF88433FFF756F900F07EFBDFF8581337
:102B20000860C3E0ADB2A4B2A54280F0BF80DFF878
:102B30004803006800F0B8FBDFF85823DFF85C3387
:102B4000FFF740F900F068FBDFF82C130860ADE0F8
:102B5000BC480088642810DADFF81C03006800F025
:102B6000A3FBDFF83023DFF83033FFF72BF900F059
:102B700053FBDFF80413086098E0B348007800289E
:102B800040F09480BC48006800F08EFB5FF0663235
:102B9000A64BFFF717F900F03FFBB749086085E047
:102BA000AA480078012803D0AD48007802287DD1DA
:102BB0000120AA490870A348008833280DDAAE48DE
:102BC000006800F071FB5FF06632B54BFFF7FAF872
:102BD00000F022FBA849086068E09A480088332882
:102BE00064DBADB2A4B2A54214D2974800780028A5
:102BF00010D10120944908709A480078002809D122
:102C000099480078012805D10120A14908700220C7
:102C1000944908708C480078012836D1894800888A
:102C2000642821DBA4B2ADB2AC420CD39248006858
:102C300000F03AFB974A994BFFF7C4F800F0ECFA22
:102C40008D49086032E0A4B2ADB2AC422ED28A48BF
:102C5000006800F029FB8F4A8F4BFFF7B3F800F0B4
:102C6000DBFA8549086021E07648008864281DDA8F
:102C70008148006800F018FB864A884BFFF7A2F8ED
:102C800000F0CAFA7C49086010E06F48007800281C
:102C90000CD17948006800F007FB5FF06632804B8A
:102CA000FFF790F800F0B8FA73490860BDE8F18FBB
:102CB000EA1AFF1F10B5704800686F494968FEF7AF
:102CC00071FD78490860774800687749FEF70AFF88
:102CD00003D876487349086008E072480068744970
:102CE000FEF74EFD02D272486E49086062484168A4
:102CF0006C480068FEF7B4FE5F4908605E48806873
:102D00005D49C8605C4840685B4988605A48006813
:102D100059494860674868490860684868490860D8
:102D2000604801686748FEF72FFE0021FEF7DAFED3
:102D300006D25C4801686348FEF726FE040005E001
:102D4000584801686048FEF71FFE04004A480168C1
:102D50005E48FEF719FE0021FEF7C4FE05D2464884
:102D600001685A48FEF710FE04E0434801685848DD
:102D7000FEF70AFE2100FDF74FFB00F095FA002256
:102D8000544BFEF7FBFE00F047FA534908605248E7
:102D9000016839480068FEF7F7FD04004F480168F4
:102DA00040480068FEF7F0FD2100FEF759FEFEF7EF
:102DB000ABFE10F5DD704A490880474801682E488F
:102DC0000068FEF7E1FD04004448016835480068EA
:102DD000FEF7DAFD2100FEF743FEFEF795FE4149BE
:102DE00008803F48B0F90000B0F5077F04DD4FF4DC
:102DF00007703B49088009E03948B0F90000B0F598
:102E0000AC7F03DC40F25910354908803448B0F9F2
:102E100000200021022000F0C0FB10BDD40FFF1FD6
:102E2000367C037A7EA4A43F3010FF1F6666E63F1F
:102E30009A9999999999C93F9999B93FEC1AFF1FA5
:102E4000EF1AFF1FDC1AFF1FF01AFF1FEE1AFF1FF9
:102E5000ED1AFF1FF11AFF1FF21AFF1FF31AFF1FCF
:102E6000F41AFF1FE11AFF1FE01AFF1FF81AFF1FD5
:102E7000F51AFF1FF71AFF1F3810FF1F00002E4022
:102E8000000DFF1F00002EC00000E040EB1AFF1FE6
:102E9000E61AFF1FCDCCCCCCCCCCECBFCCCCEC3FDD
:102EA0006666E6BF3410FF1F6766263F6666263FEC
:102EB000666626BF1404FF1F9404FF1F3404FF1F1F
:102EC0009804FF1F0000C8420000C8C20000204153
:102ED000000020C100005940F80CFF1FFC0CFF1F30
:102EE000DA1AFF1FD81AFF1F38B5040064B2651143
:102EF000EDB2002D02D0012D11D021E0C1480068B3
:102F000050F00060BF490860BF48006830F0900092
:102F1000BD490860BC480068BB49086014E0BB4874
:102F2000006850F00060B9490860B748006830F4A4
:102F30001040B5490860B4480068B349086003E030
:102F40003321B34800F06BFC64B22000002800F08D
:102F50008980012800F08680032800F083800828FB
:102F60004ED0092851D00A2854D00B2857D00C280D
:102F70005AD00D285DD00E2860D00F2863D01028BD
:102F800070D0112864D0122867D013286AD0142872
:102F900068D01A2866D01D2864D01E2862D0202848
:102FA00061D021285FD023285DD024285CD025283B
:102FB0005FD0262862D0272865D0282868D0292805
:102FC0006BD02A286ED02B2871D02C2874D02D28B5
:102FD00077D02E287AD02F287DD0302800F0858019
:102FE00031287DD0322800F0808033287DD03428ED
:102FF0007BD03A2879D03D2877D03E2875D075E02F
:103000000021202000F09EFC74E00021212000F02F
:1030100099FC6FE00021072000F094FC6AE0002199
:10302000082000F08FFC65E00021222000F08AFCDF
:1030300060E00021232000F085FC5BE000214020BF
:1030400000F080FC56E00021412000F07BFC51E0C4
:103050000021982000F076FC4CE00021992000F03F
:1030600071FC47E046E045E00021802000F06AFC6A
:1030700040E00021812000F065FC3BE0002182203F
:1030800000F060FC36E00021832000F05BFC31E0C2
:103090000021202000F056FC2CE00021212000F02F
:1030A00051FC27E00021242000F04CFC22E000210C
:1030B000252000F047FC1DE00021262000F042FC06
:1030C00018E00021272000F03DFC13E000212A2019
:1030D00000F038FC0EE000212B2000F033FC09E06A
:1030E0000021112000F02EFC04E003E09A21484862
:1030F00000F095FB31BDF8B504000D0064B2661117
:103100000027290049B2200040B200F059F8414898
:1031100076B250F8260000680006F8D53D4876B231
:1031200050F82600006907003A4876B250F82600A9
:10313000006830F08000374976B251F826100860F8
:10314000380080B2F2BD2DE9F84F04000D001600E2
:103150005FF000085FF0000A4FF0FF0B002007004F
:103160003000C0B2BFB280B2874218D2290049B243
:10317000200040B2FFF7BFFF814658FA89F85FFA96
:103180008AFA5FFA89F9CA4500D2CA465FFA89F914
:103190005FFA8BFBD94500D2CB467F1CE0E75FFA94
:1031A0008BFBB8EB0B005FFA8AFAB0EB0A081FFA48
:1031B00088F8F6B2B01E98FBF0F080B2BDE8F28F4E
:1031C00030B440B2421110F01F0349B28C0014F029
:1031D0000C0454F050040F4D52B255F82250AC601C
:1031E00004240C4D52B255F82250EC60DBB213F0BF
:1031F0001F0454F04004074D52B255F822502C6081
:1032000030BC70473C80044018800440308004404B
:10321000488700003805FF1F4FEAF17CBCF1E04C05
:103220002CBFBCF5001F11E05FEA4C0C34BFBCF1B1
:103230007F5F2EE05FEA9C0C4FEA0C1C4FEA3C0CCF
:10324000C10071F100414CEB50707047C90241EA76
:103250005051C00218BF41F0010141F000414FEA56
:103260006C50C0F10900212810D240EACC7CCCF18E
:10327000200C11FA0CF070F10040CCF1200C21FA76
:103280000CF00CF0004C40EB0C0070474FEACC7097
:103290007047490011F5001F04D84FEACC10FF30E9
:1032A000C0057047C81770475FF0FF0C1CEAD0518B
:1032B00014BF614506E0C110400721F0E04101F173
:1032C0006051704779B900F0004100020AD0B0FAAD
:1032D00080FC00FA0CF001F16051A1EB0C5101EB04
:1032E000D0214005704741020CBF40F4E0016FF06F
:1032F000000100207047000038B504000D0064B2E2
:10330000002C03D0022C66D049D380E0DFF8CC0437
:10331000006850F08070DFF8C41408606DB2002DB2
:103320000BD0022D15D00ED3042D1ED017D3062D91
:1033300027D020D3072D2AD02FE04FF480614120E1
:1033400000F000FB2AE04FF44071042000F0FAFA8C
:1033500024E04FF44071052000F0F4FA1EE04FF431
:103360004071062000F0EEFA18E04FF4806164200E
:1033700000F0E8FA12E04FF48061652000F0E2FA14
:103380000CE04FF48061662000F0DCFA06E04FF4B8
:103390008061672000F0D6FA00E038E037E0DFF81F
:1033A0003C04006850F00070DFF8301408606DB223
:1033B000002D02D0012D06D00BE04FF440710C20FF
:1033C00000F0C0FA06E04FF440710D2000F0BAFAA8
:1033D00000E01CE01BE0DFF80804006850F080709B
:1033E000DFF8FC1308606DB2002D02D0012D06D06D
:1033F0000BE04FF440710A2000F0A4FA06E04FF40D
:1034000040710B2000F09EFA00E000E0FFE731BDC4
:103410002DE9F84F04000D0016001F0064B2002CC7
:103420000ED064B2012C02D064B2022C02D16DB273
:10343000022D05DB40F28511DFF8A80300F0EFF95B
:10344000290049B2200040B2FFF756FFDFF8980389
:1034500000684FF47A71484380465FEA1840B0FB39
:10346000F6F08146002082461FFA89F959FA0AF0DF
:10347000012802DB1AF1010AF6E75FFA8AFABAF1CB
:10348000080F05DB4FF4D071DFF8580300F0C7F9DF
:1034900038FA0AF0B0FBF6F081461FFA89F9DFF836
:1034A0004C0364B240F8249064B2002C03D0022C88
:1034B00018D00CD322E01FFA89F919F1010000FBA2
:1034C00007F042F21071B0FBF1F0834616E01FFAEC
:1034D00089F919F1010000FB07F06421B0FBF1F05C
:1034E00083460BE01FFA89F919F1010000FB07F090
:1034F0004FF47A71B0FBF1F08346FFE7DFF8F0029A
:1035000064B250F824006DB210EBC500DFF8E01291
:1035100064B251F824106DB211EBC501C96831F0E5
:103520000401C160DFF8C80264B250F824006DB233
:1035300010EBC5002821C1605FFA8AFA1AF0070073
:1035400050F00800DFF8A81264B251F824100860A7
:103550001FFA89F9DFF8980264B250F82400C0F825
:1035600008900020DFF8881264B251F82410C86473
:10357000DFF87C0264B250F824006DB210EBC50095
:103580001FFA8BFBC0F810B00020DFF8641264B2A1
:1035900051F824104860BDE8F18F2DE9F041040096
:1035A0000D0016005FF0000864B2002C0ED064B26B
:1035B000012C02D064B2022C02D16DB2022D05DBC7
:1035C0004FF4F371DFF81C0200F029F964B2002C0B
:1035D00003D0022C15D00BD31DE042F211708642AD
:1035E00005D34FF4F671DFF8FC0100F018F912E092
:1035F000652E05D34FF4F871DFF8E80100F00FF9FC
:1036000009E0B6F57A7F05D94FF4FA71DFF8D401F5
:1036100000F005F9FFE7DFF8D40164B250F82400A8
:10362000804664B2002C03D0022C14D00AD31CE0D4
:1036300018F1010000FB06F042F21071B0FBF1F04E
:10364000070012E018F1010000FB06F06421B0FB56
:10365000F1F0070009E018F1010000FB06F04FF45B
:103660007A71B0FBF1F00700FFE7DFF8840164B284
:1036700050F824006DB210EBC5000761BDE8F08181
:1036800010B5040064B2012C07D064B2022C04D03F
:1036900040F2DB21534800F0C2F864B22000012858
:1036A00002D0022811D021E04C48006850F0007090
:1036B0004A4908604FF4C061202000F043F94FF4FC
:1036C000C061212000F03EF915E04548006850F047
:1036D0008070434908604FF4C061322000F032F935
:1036E0004FF4C0610B2000F02DF904E040F21331DB
:1036F0003C4800F094F83E4864B250F82400406D15
:1037000050F004003A4964B251F824104865384832
:1037100064B250F82400D0F8800050F0080034491A
:1037200064B251F82410C1F880000020304964B21E
:1037300051F82410C8644FF6FF702D4964B251F857
:10374000241088602A4864B250F82400D0F8800021
:1037500050F00100264964B251F82410C1F88000ED
:10376000234864B250F82400406D50F00100204915
:1037700064B251F82410486500201D4964B251F824
:103780002410486010BD38B5040064B2012C07D085
:1037900064B2022C04D04FF44C71124800F03FF890
:1037A000134864B250F8240040680500280000B2B5
:1037B00032BD10B5040064B2012C07D064B2022CF3
:1037C00004D040F23E31074800F029F800200849B3
:1037D00064B251F82410486010BD00003C800440E1
:1037E00030800440888700006810FF1F880FFF1F8B
:1037F000480CFF1FDFF800F0910DFF1FDFF800F00D
:10380000C10DFF1FBFF34F8F4648006810F4E06002
:103810004549084343490860BFF34F8FFEE738B579
:1038200004000D00002000F0E5F82A0021003F48C8
:1038300000F018F9002000F0FAF84FF47A7000F068
:103840003EF9F2E738B504000D00210049B204202A
:1038500000F058FA200032BD10B50024042000F01A
:103860007DFA042000F0B0FA002841D1002000F0D9
:10387000C1F8042000F0A8FA012801D101200400B9
:10388000002000F0D4F82A4800F0ECF84FF4FA7069
:1038900000F015F9E4B2012CEBD1042000F094FA09
:1038A0000028E6D1042000F08FFA002806D100207D
:1038B00000F0BDF8642000F002F9F3E7042000F006
:1038C00083FA012806D1002000F0B1F8322000F080
:1038D000F6F8F3E7174800F0C5F8FFF78BFF642010
:1038E00000F0EDF80020FFF789FFFFF78BFFC0E73E
:1038F00010BD10B510480468012000F07BF80120CD
:1039000000F095F80D48E4B20F2101FB0402E4B287
:1039100021000B4800F0A6F84FF47A7000F0CFF8C1
:10392000EDE700000CED00E00400FA05A8890000B6
:103930005C8A0000DC89000004ED00E04005FF1F08
:103940004489000010B4294A12684FF40073C0B2D1
:103950004409A3401A43254B1A60254AC0B24311BB
:1039600052F82320012310F01F04A340C2F8A03016
:103970001F4AC0B2431152F82320C0B210F01F03F7
:1039800042F8231010BC704710B4184A12684FF464
:103990000073C0B24409A3401A43144B1A60144A7E
:1039A000C0B2431152F82320012310F01F04A3409A
:1039B000C2F8A03031F4E0610D4AC0B2431152F8B0
:1039C0002320C0B210F01F0352F8232012F4E0624B
:1039D0001143074AC0B2431152F82320C0B210F07D
:1039E0001F0342F8231010BC7047000038800440C9
:1039F000B00CFF1F10B5040064B2042C07DA0122DA
:103A00000121174864B2205C00F0F6F90EE00420B2
:103A100004002000441E40B2002807D001220121EA
:103A20000F4864B2205C00F0E7F9F2E710BD10B572
:103A3000040064B2042C05DA094864B2205C00F08A
:103A400032FA0CE0042004002000441E40B200289A
:103A500005D0034864B2205C00F025FAF4E710BDFD
:103A60000C0DFF1F0EB400B582B003A900910246F1
:103A700000AB0121034878440A3000F051FA06BC3B
:103A80005DF810FBB54F000010B50400002C15D0F8
:103A9000B4F1807F03D329210F48FFF7C0FE002037
:103AA0000E4908600E48046000200E490860052099
:103AB0000A49086009480068C003FBD510BD10B56D
:103AC00004002000441E002804D007480068FFF7C7
:103AD000DBFFF6E710BD00000487000010E000E007
:103AE00014E000E018E000E06010FF1F2DE9F8434B
:103AF00004000D0064B2002C08D0022C2CD018D386
:103B0000042C4FD03BD3052C5FD071E0DFF834029A
:103B1000006850F48060DFF82C1208604FF44071A8
:103B20006620FFF70FFF4FF440716720FFF70AFF91
:103B30005EE0DFF81002006850F40060DFF8041265
:103B400008604FF440714320FFF7FCFE4FF44071D2
:103B50004420FFF7F7FE4BE0DFF8E801006850F47F
:103B60008050DFF8E01108604FF440716320FFF7E8
:103B7000E9FE4FF440716220FFF7E4FE38E0DFF821
:103B8000C401006850F40050DFF8B81108604FF429
:103B900040715020FFF7D6FE4FF440715120FFF7DF
:103BA000D1FE25E0DFF8A001006850F48060DFF866
:103BB000981108604FF440719920FFF7C3FE4FF44D
:103BC00040719820FFF7BEFE12E0DFF87C0100682C
:103BD00050F40060DFF8701108604FF440718920E4
:103BE000FFF7B0FE4FF440718820FFF7ABFEFFE710
:103BF000DFF8580164B250F82400C07810F0F300E8
:103C0000DFF8481164B251F82410C870DFF83C01A5
:103C100064B250F824008078DFF8301164B251F8B3
:103C20002410887064B2002C02D064B2012C07D139
:103C3000DFF81C0100684FF47A714843814606E0C2
:103C4000DFF8100100684FF47A714843814628017B
:103C5000B9FBF0F00600B6B2B6F5005F02DB41F644
:103C6000FF700600B9FBF5F0B6B2B0EB0610070026
:103C7000BFB2202F03DBDC213748FFF7D0FD3348EC
:103C800064B250F82400007810F0E0008046B6B22C
:103C9000300A10F01F0050EA08002C4964B251F8B5
:103CA00024100870294864B250F824004670274850
:103CB00064B250F82400807A10F0E000804617F0DB
:103CC0001F0050EA0800214964B251F8241088729C
:103CD0001E4864B250F82400007C50F088001B4954
:103CE00064B251F824100874184864B250F82400E3
:103CF000C07850F00C00154964B251F82410C87017
:103D0000BDE8F183114A40B252F820201279120620
:103D1000F8D50E4A40B252F82020D171704770B5E4
:103D200004000D0016003000461E002808D095F94A
:103D3000001049B2200040B2FFF7E4FF6D1CF2E72B
:103D400070BD00003480044028800440D00CFF1F68
:103D50006010FF1F6810FF1FC888000010B5040026
:103D600064B2082C0DDA00220021224864B2205CE3
:103D700000F042F803211F4864B2205CFFF704FE04
:103D800014E0082004002000441E40B200280DD09A
:103D900000220021174864B2205C00F02DF80321B6
:103DA000144864B2205CFFF7EFFDECE710BD10B5DE
:103DB0000400104864B2205C00F091F8002801D1A2
:103DC000002000E0012010BD10B50400200040B22A
:103DD000FFF7EDFF00280AD10A20FFF770FE200050
:103DE00040B2FFF7E4FF002801D1002000E00120ED
:103DF00010BD0000040DFF1F70B504000D0016007B
:103E00004FF480712000C0B2FFF79CFD6DB2002D11
:103E100011D14148E4B2611150F821003E49E4B2A9
:103E2000621151F822104969012214F01F039A40CF
:103E30009143416136E03848E4B2611150F8210005
:103E40003549E4B2621151F822104969012214F097
:103E50001F039A4011434161F6B2002E11D12E4842
:103E6000E4B2611150F821000068012114F01F0232
:103E7000914088432849E4B2621151F82210086049
:103E800010E02548E4B2611150F8210000680121DA
:103E900014F01F02914008431F49E4B2621151F827
:103EA0002210086070BD10B504001B48E4B2611117
:103EB00050F82100406914F01F01C840C00703D426
:103EC0007B211648FFF7ABFC1348E4B2611150F8B0
:103ED0002100012114F01F029140C16010BD10B5F6
:103EE00004000D48E4B2611150F82100406914F05B
:103EF0001F01C840C00703D58C210848FFF78FFC7D
:103F00000548E4B2611150F82100006914F01F0166
:103F1000C84010F0010010BD540CFF1FC8870000FE
:103F20002DE9F04FA1B08246002017461D460291B0
:103F30000B900DF1440B6FF000490AE017F8011BDC
:103F40000298D0470290002800F0A2820B98401CF3
:103F50000B90387808B90B989CE22528EED1002008
:103F6000059006900790089009900A9001E040F0B3
:103F7000010017F8011F2029F9D023290DD02B2982
:103F800004D02D2906D030290AD00CE040F00200E0
:103F900080B2EEE740F00400FAE740F00800F7E7EF
:103FA00040F01000F4E72A290ED12968296051F861
:103FB000042B2960002A0D9204D5514240F00400E0
:103FC0000D9180B27F1C11E000210D9109E00D9947
:103FD000494505D001EB810302EB430130390D91D6
:103FE0007F1C3A78A2F130010A29F0D339782E29C2
:103FF00003D04FF0FF310C911DE017F8011F2A2963
:1040000007D1296829607F1C51F8042B29600C9284
:1040100011E000210C9109E00C99494505D001EB14
:10402000810302EB430130390C917F1C3A78A2F1F5
:1040300030010A29F0D3ADF838000FF6B8203978EE
:1040400000F066FD08B117F8010B8DF83A009DF8F5
:104050003A00682802BF39786829622005D06C28A8
:1040600004BF38786C2803D171208DF83A007F1C8A
:1040700011A8049017F8014BB4F1250024D0203882
:10408000022840F2C580133800F0EB800B3800F0B6
:104090004F81401E00F02481401E022840F2B8806B
:1040A000001F00F01D81401F00F08380401E00F0C3
:1040B000D880401E29D0C01E0CD0801E00F0D180B8
:1040C000C01E00F0CE803DE10120059025208DF836
:1040D000440043E12868286050F8044B28600394AA
:1040E000DDF83080B8F1000F04D5204600F01CFD4B
:1040F000804607E042460021204600F031FD08B12D
:10410000A0EB0408CDF8188028E1296829604FF059
:104110003C0851F8040B29600021CDE9000111A8E9
:104120000390DDE90001049C11B908B90C9AC2B1F1
:104130000206120FA0EB02123032D2B23A2AA8BF06
:1041400027320009A8F1010340EA017009091A5554
:1041500008BF0028984604D0039A08EB04039A424B
:10416000E6D308EB04000390C8F13C010C980691DB
:10417000814209DA401A08904FF6EF71BDF8380015
:104180000840ADF83800E9E0002840F1E7809DF8EC
:10419000380000F01400102840F0E0800D98059AD7
:1041A000801A089A801A401A0128C0F2D780089015
:1041B000D4E09DF83A0062281AD0682806D06A2810
:1041C0000CD06C281CD0712808D019E02868286011
:1041D00050F8041B28600B980880BFE0286828600E
:1041E00050F8042B28600B98C117C2E90001B5E014
:1041F0002868286050F8041B28600B980870ADE010
:104200002868286050F8041B28600B980860A5E017
:104210002868C01D20F007022A60D2E90001083298
:104220002A60CDE90001002903D5012005902D2049
:104230000CE0BDF83800810703D5012005902B2044
:1042400004E0C00704D50120059020208DF844002B
:10425000059911A808180390214600A800F0D8F984
:104260007CE09DF83A206C2A0DD0712A18BF6A2A8A
:1042700009D12868C01D20F007032B60D3E9000195
:1042800008332B6005E02968296051F8040B296088
:104290000021CDE90001682A08BF80B207D0622A58
:1042A00008BFC0B203D0742A18BF7A2A02D10021F5
:1042B000CDE900019DF83800000730D5DDE90001A7
:1042C000002908BF00282AD044F02000782826D1F1
:1042D00030208DF844008BF80140022005901EE04C
:1042E0009DF83A00294600F0D8F8CDE900010029F0
:1042F00004DA0598411C05912D210EE0BDF8380027
:10430000810704D50598411C05912B2105E0C007C4
:1043100005D50598411C0591202100F80B10059941
:1043200011A808180390214600A800F0EDF815E048
:10433000012005902868286050F8041B28608DF83B
:1043400044100BE0012005902520002C8DF844003E
:1043500004D00598411C059100F80B400D98059973
:10436000401A0899401A0699401A0999401A079963
:10437000401A0A99A0EB01089DF8380040070FD4B5
:1043800020208DF84000002408E0012310AA00A995
:10439000504600F098FB00287AD1641C4445F4DBB9
:1043A000059C11AE0AE016F8011B0298D047029056
:1043B00000286DD00B98401C0B90641E002CF2D18D
:1043C00030208DF840000026089C08E0012310AA48
:1043D00000A9504600F077FB002859D1761CA64270
:1043E000F4DB069C039E0AE016F8011B0298D047F6
:1043F000029000284CD00B98401C0B90641E002C9F
:10440000F2D130208DF840000026099C07E00123FE
:1044100010AA00A9504600F056FBC8BB761CA64265
:10442000F5DB03980699079C0E1809E016F8011BA6
:104430000298D047029058B30B98401C0B90641E12
:10444000002CF3D130208DF8400000260A9C07E0B4
:10445000012310AA00A9504600F035FBC0B9761C14
:10446000A642F5DB9DF8380040077FF572AD2020AD
:104470008DF84000002400E0641C4445BFF669AD9F
:10448000012310AA00A9504600F01DFB0028F3D01C
:104490004FF0FF3021B0BDE8F08F622826D06828A9
:1044A0001DD06A2808D06C2827D0712804D0742821
:1044B00023D07A280CD020E00868C01D20F0070027
:1044C0000860D0E90023083008601946104670479C
:1044D0000A680A6052F8040B0A60002170470A68F3
:1044E0000A6052F8040B0A6000B20BE00A680A6026
:1044F00052F8040B0A6040B204E00A680A6052F8FD
:10450000040B0A60C11770472DE9FA4E05460A46AA
:104510002F696F2A08BF082405D041F020007828B1
:1045200014BF0A2410243C26D5E90001642A18BFD0
:10453000692A81468A4605D1002903DAD9F10009A2
:104540006AEB4A0ABAF1000F08BFB9F1000F0CD1AB
:10455000286B50B9082C36D195F83800000732D5B1
:1045600030203B2687F83B002DE0E31748465146B4
:10457000224600F021FBA4FB0023A9EB020230320B
:10458000D2B2A6F1010B3A2A5E4603DB9DF8003059
:10459000513B9A1881465FEA010A0BF8072008BFD1
:1045A000B9F1000F03D0E868F1198842DDD3082C77
:1045B00009D195F83800000705D5F05D302802D004
:1045C000761E3020F055C6F13C00A861F119E96073
:1045D000296B884208DA081A28624FF6EF71288F93
:1045E00008402887BDE8F38E00290ED595F83810CD
:1045F00001F01401102908D1696B6A69891A2A6AC5
:10460000891A081A0128A8BF2862BDE8F38E0000A5
:104610002DE9F34F8BB0D0E90089006B002801AF82
:1046200048BF062005D404BF41F02000672802D10E
:1046300001200B99086340F2FF720B984168C1F3A7
:104640000A50904220D1080302BF0B98006800284E
:104650000AD10B99032088619DF8300061381A282F
:1046600058D30FF2A44109E00B99032088619DF80B
:10467000300061381A284AD30FF284410B98C06881
:10468000032200F011FB00E1012807DA0B9800F08B
:1046900046FB012802DB00230026EDE00B9ADFF841
:1046A00054B1526840F2FE3161F31E520B994A60D8
:1046B00040F2FE31461A404649460022002300F0EF
:1046C0004FFB38BF89F0004936B247F2975070432C
:1046D000494990FBF1F636B2C6F10707012F924621
:1046E0001BDBF80707D552465B4640464946FDF7B7
:1046F00069FB804689467F105046594652465B46C4
:10470000FDF760FB002F82468B46EAD126E00FF2D0
:10471000EC31B3E70FF2EC31B0E77F420024374DC4
:1047200012E0F80707D552465B4620462946FDF7BA
:1047300049FB04460D467F105046594652465B469B
:10474000FDF740FB82468B46002FEAD140464946A2
:1047500022462B46FDF712FA804689469DF8300026
:104760000B99DFF89CB0096B40F02005662D0CBF5B
:1047700006F10A0006204718142FA8BF132730207F
:104780008DF804000DF10504012F3BDB404649463E
:10479000FDF774FC014604F1080204234FF00A0CF3
:1047A000B1FBFCFC0CEB8C04A1EB4401303102F8B2
:1047B000011D0A21BCFBF1FE0EEB8E04ACEB4404A0
:1047C00030345B1E714602F8014DE7D1083F012FDE
:1047D00002F10804D8DBFDF7C3F902460B46404658
:1047E0004946FDF761FC00225B46FDF7EBFA804687
:1047F0008946CBE700002440A08601000000F03F7E
:1048000084D797410DF10500201A0DF1050702E04C
:10481000401E761E7F1C39783029F9D0662D02D1D2
:1048200036B2711C03E0652D0CBF012100210B9AEB
:10483000126B8B181BB29842B8BF03461BB219000B
:104840001AD4814204DAC85D3528A8BF392000DABD
:104850003020CA19521E00E05B1E12F80159491E91
:104860008542F9D0392802D1C85D401CC8550029BD
:1048700002D57F1E5B1C761C36B29DF830100B985B
:1048800000961BB23A4600F003F80DB0BDE8F08F79
:104890002DE9F04786B006468A4690461D4600F050
:1048A00094FA406A376B90F80090012D02DA0125E6
:1048B0000FF258284AF02000BDF93840662808BF9A
:1048C000641C13D0672840F0888014F1040F73DB58
:1048D000BC4271DA96F83800641C000702D4BD426D
:1048E000B8BF2F4624B23F1B48BF002724B2F06850
:1048F000B169012C21DA4A1C30230B54012F03DA51
:1049000096F83810090702D502F80090521CE742C9
:10491000B8BF7C4224B26142E719AF42B261B8BF6E
:104920003D4671622DB2F5612A46B36941461818B9
:1049300000F0BAF9781BB062AEE00818A54216DAAA
:104940002A46414600F0B0F9B1696918601BB161AF
:10495000012F706203DA96F83800000705D5F06879
:1049600001F80090F069401CF061B76294E02246C3
:10497000414600F099F9B06920182D1B012F03DA88
:1049800096F83810090703D5F16800F80190401C2B
:10499000B0612DB2AF42B8BF3D46F068B3692DB2E9
:1049A0002A4604EB0801181800F07EF9B0692818AF
:1049B000B061781B70626FE0BD4204DA96F838107F
:1049C000090758BF2F467F1E48BF0027BAF1670F5F
:1049D0000CBF4FF0650A4FF0450AB169F06818F84E
:1049E000013B0B544A1C012F05DA96F838100907D1
:1049F00058BFB26115D502F80090531C012FB36166
:104A00000FDB6D1E2DB2AF42B8BF3D462DB22A4618
:104A10004146181800F048F9B0692818B061781BB1
:104A20007062F068B16901EB0008200008F801AB82
:104A300003D42B2008F8010B03E02D2108F8011BFB
:104A40006442002502AF08E00A2200A800F0D6F96F
:104A5000019807F8010B6D1C009C21B20129F3DAC3
:104A6000022D06DA4AF02000652804BF302008F83D
:104A7000010B4DB9302008F8010B07E06D1E02A8AC
:104A8000285C303008F8010B012DF7DAF068B169C5
:104A90000818A8EB0000F06196F8380000F0140048
:104AA00010280DD17069B1690818716A0818F16988
:104AB0000818B16A0818716B8842BCBF081A3062C6
:104AC00006B0BDE8F087F8B504460D4616461F4609
:104AD000002004E0E86A401CE8627F1E002047B125
:104AE00016F8011BA868A047A8600028F2D14FF073
:104AF000FF30F2BD686A6C747A4C00006E616E0023
:104B00004E414E00696E6600494E4600300064001A
:104B10000278C9B28A421AB11CBF10F8012FF9E716
:104B200018BF00207047000000F10103810704D086
:104B300010F8011B89B18107FAD10268B2F1013185
:104B4000914311F0803F04BF50F8042FF6E710F8AE
:104B5000011B11B110F8011BFBE7C01A704764007C
:104B6000C9B2830706D0521E22D310F8013B9942E6
:104B7000F7D11FE0083A13D302F1040241EA012100
:104B800041EA014150F8043B121F21BF4B40A3F101
:104B9000013C2CEA030C1CF0803FF3D0C9B2001F8B
:104BA000083210F8013B521E28BF91EA030FF8D8D3
:104BB00018BF0120401E70471B4213D1094236D155
:104BC0002AB18446B0FBF2F002FB10C2704700F03D
:104BD0001DB9FCD30022002370470B000200002106
:104BE00000207047904271EB030CF6D370B5B1FA18
:104BF00081F4B3FA83F52C1BA340C4F1200532FAEB
:104C000005F63343A2405FF00046E64002E05B0851
:104C10005FEA3202841A71EB030524BF204629465D
:104C20007641F4D302000B003000002170BD012A50
:104C3000CFD970B5140C20D0B1FA81F4B2FA82F554
:104C4000C4F120046419B4F12006D6D3B2405FF059
:104C50000044F440002502E052085FEA3303C61A1C
:104C600071EB020E24BF3046714664416D41F3D3AF
:104C700002000B002000290070BD0C46B1FBF2F1D0
:104C800002FB11452D0445EA1045B5FBF2F402FB89
:104C9000145580B240EA0545B5FBF2F002FB105214
:104CA00040EA044070BD820062B38B0708D0521EF8
:104CB00011F8013B00F8013B00F024808B07F6D18E
:104CC000830740F0208000BF103A07D330B4B1E82A
:104CD0003810103AA0E83810F9D230BC530724BF7E
:104CE000B1E80810A0E8081044BF51F8043B40F8B0
:104CF000043BD20724BF31F8022B20F8022B44BF1B
:104D00000B7803707047083A07D3B1E80810083AE7
:104D100040F8043B40F804CBF7D25307E4E730B443
:104D2000436803F0004201211B031B0B436004BFD7
:104D30000368002B08D10DE00368DD0F45EA440449
:104D400044605B000360491E4468E302F4D523031A
:104D50001B0B436043681A434260084630BC7047EF
:104D60004FF4001C1CEB410F94BF1CEB430F09E0F8
:104D700041EA030C50EA4C0C52EA0C0C03D2994263
:104D800008BF9042704714BF8B42824270470000B8
:104D900080B5134800F03BF80FF248010160416014
:104DA0008160C1600161416181610FF23C02426238
:104DB0008162C162016341630FF2300282630FF2CC
:104DC0003402C2630164416401BD10B5044800F0BF
:104DD0001EF80446206808B9FFF7DAFF204610BD28
:104DE000001BFF1F000000002E00000066616C73B6
:104DF00065000000747275650000000091FBF2F31D
:104E000003FB1211C0E90031704741007047704741
:104E100001000000C201E0010802300258026C02E9
:104E20008A020000DC050E0640067206A406D606BD
:104E30000807000064007D008C009600A500B40007
:104E4000BE0000004400460049004C004F005200E4
:104E500064000000460049004C004F00520055001D
:104E6000690000004E0050005300560059005C00DD
:104E70007000000058005A005D006000630066008A
:104E8000780000005D0060006300660069006C004F
:104E90007A0000001404FF1F2404FF1F4404FF1FB6
:104EA00000000101020303000001020203030001EC
:104EB00002020304040101020304050501020304C4
:104EC000040506030304040506060303040505069A
:104ED00006000000060005000400030002000200B6
:104EE00001000500050004000300020001000100AC
:104EF00004000400030002000100010000000300A0
:104F00000300020002000100000000000200020095
:104F1000010001000100000000000200010001008A
:104F2000000000000000000001000100000000007F
:104F3000000000000000000000B0034000B00B4083
:104F40000000000000000000000000000000000061
:104F500000000000000000000000000000004E6F94
:104F60006E4D61736B61626C650000000048617298
:104F7000644661756C740000000000004D656D4D65
:104F8000616E6167656D656E7400004275734661A0
:104F9000756C740000000000000055736167654681
:104FA00061756C740000000000000000000000004B
:104FB00000000000000000000000000000000000F1
:104FC00000000000000000000000000000000000E1
:104FD00000000000000000000000000000000000D1
:104FE0000000000000535643616C6C00000000009C
:104FF0000000000044656275674D6F6E69746F72E2
:1050000000000000000000000000000000000000A0
:10501000000050656E645356000000000000000060
:10502000005379735469636B0000000000000000B6
:10503000444D41300000000000000000000000442A
:105040004D41310000000000000000000000444D10
:1050500041320000000000000000000000444D410B
:10506000330000000000000000000000444D413407
:105070000000000000000000000000444D41350029
:1050800000000000000000000000444D4136000018
:10509000000000000000000000444D413700000007
:1050A0000000000000000000444D413800000000F6
:1050B00000000000000000444D41390000000000E5
:1050C000000000000000444D4131300000000000AD
:1050D0000000000000444D4131310000000000009C
:1050E00000000000444D413132000000000000008B
:1050F000000000444D41313300000000000000007A
:105100000000444D41313400000000000000000068
:1051100000444D4131350000000000000000000057
:10512000444D415F4572726F720000000000004DF7
:10513000434D000000000000000000000000465445
:10514000464C0000000000000000000000526561B5
:10515000645F436F6C6C6973696F6E004C56445F9B
:105160004C565700000000000000004C4C57000057
:1051700000000000000000000000576174636864D4
:105180006F6700000000000000524E470000000062
:105190000000000000000000493243300000000021
:1051A0000000000000000049324331000000000010
:1051B00000000000000053504930000000000000D3
:1051C00000000000005350493100000000000000C2
:1051D00000000000535049320000000000000000B1
:1051E00000000043414E305F4F525F4D425F627599
:1051F000660043414E305F4275735F4F6666000044
:105200000043414E305F4572726F72000000000033
:1052100043414E305F54785F5761726E696E6743E9
:10522000414E305F52785F5761726E696E674341DD
:105230004E305F57616B655F5570000000526573BB
:105240006572766564353100000000005265736553
:10525000727665643532000000000043414E315FD4
:105260004F525F4D425F6275660043414E315F426F
:1052700075735F4F666600000043414E315F4572B3
:10528000726F72000000000043414E315F54785F3E
:105290005761726E696E6743414E315F52785F5756
:1052A00061726E696E6743414E315F57616B655F36
:1052B000557000000052657365727665643539007B
:1052C0000000000052657365727665643630000038
:1052D00000000055415254305F52585F545800004E
:1052E000000055415254305F45525200000000000A
:1052F0000055415254315F52585F5458000000002D
:1053000055415254315F4552520000000000005593
:10531000415254325F52585F5458000000005541CA
:105320005254325F45525200000000000055415275
:1053300054335F52585F5458000000005541525496
:10534000335F455252000000000000554152543472
:105350005F52585F54580000000055415254345F6A
:1053600045525200000000000055415254355F5232
:10537000585F54580000000055415254355F455263
:1053800052000000000000414443300000000000D3
:105390000000000000004144433100000000000014
:1053A0000000000000434D503000000000000000ED
:1053B00000000000434D50310000000000000000DC
:1053C000000000434D5032000000000000000000CB
:1053D000000046544D3000000000000000000000B6
:1053E0000046544D310000000000000000000000A5
:1053F00046544D3200000000000000000000004351
:105400004D54000000000000000000000000525455
:10541000430000000000000000000000005265731F
:1054200065727665643833000000000050495430DE
:10543000000000000000000000000050495431004E
:10544000000000000000000000005049543200003D
:10545000000000000000000000504954330000002C
:105460000000000000000000504442300000000036
:105470000000000000000055534230000000000012
:105480000000000000005553424443440000000067
:105490000000000000454E45545F313538385F54F8
:1054A000696D6572454E45545F5472616E736D69E6
:1054B000740000454E45545F52656365697665002A
:1054C0000000454E45545F4572726F720000000047
:1054D00000493253300000000000000000000000CE
:1054E0005344484300000000000000000000004456
:1054F0004143300000000000000000000000444173
:105500004331000000000000000000000054534937
:105510003000000000000000000000004D43470084
:1055200000000000000000000000004C5054696DB5
:10553000657200000000000000005265736572761D
:10554000656431303200000000504F525441000079
:105550000000000000000000504F525442000000C4
:1055600000000000000000504F52544300000000B3
:10557000000000000000504F5254440000000000A2
:105580000000000000504F52544500000000000091
:105590000000000052657365727665643130380032
:1055A0000000005265736572766564313039000021
:1055B0000000526573657276656431313000000019
:1055C0000052657365727665643131310000000008
:1055D00052657365727665643131320000000052A5
:1055E0006573657276656431313300000000526581
:1055F0007365727665643131340000000052657362
:10560000657276656431313500000000526573655E
:105610007276656431313600000000526573657240
:10562000766564313137000000005265736572762B
:10563000656431313800000000526573657276652B
:1056400064313139000000000080034000900340C5
:1056500000800B4000F00F4040F00F4080F00F4002
:10566000C0F00F4000F10F40F0000A1D300018009C
:1056700032001801600018186400181A6E00181F14
:10568000780013187D00131A8200131C8C000E1270
:1056900096000E15A0000E18AA000E1BB4000E1ED8
:1056A000C8000C1CE1000B1EFA000A1F00010908CB
:1056B0000090044000A0044000B0044000C004403A
:1056C00000D0044000C0024000D0024000C00A40A8
:1056D00000A0064000B0064000C0064000D00640D2
:1056E00000A00E4000B00E40C2010000CDCC4C3EE8
:1056F0000000C8420000A0420000184100002A43F8
:105700000000C8426A6E6B6C676D4E4F3435363799
:105710003235121181000000323512118100000073
:1057200002040101741AFF1FC41AFF1F741AFF1F1D
:10573000741AFF1F741AFF1F5D0DFF1F440DFF1F1A
:105740000000000000000000000000000000000059
:105750000000000000000000000000000000000049
:105760000000000008210122DFF8DC321A6000BFCF
:105770000022DFF8D8321A6000BF0A00511ED2B2F0
:10578000002A15D0020604D50122DFF8C4321A60BF
:1057900003E00022DFF8B8321A600122DFF8AC32F1
:1057A0001A6000BF0022DFF8A4321A604000E4E76C
:1057B0007047000008210022DFF88C321A600022B6
:1057C000DFF888321A600A00511ED2B2002A15D0C2
:1057D000020604D50122DFF878321A6003E00022C5
:1057E000DFF86C321A600122DFF860321A6000BF05
:1057F0000022DFF858321A604000E4E7704738B5FD
:1058000004000D00B5F15000C0B2FFF7D3FFE4B2C1
:10581000200950F01000C0B2FFF7CCFF14F00F00C9
:10582000FFF7C8FF31BD70B5040000200500EDB2E0
:10583000082D17DAB5F15000C0B2FFF7BBFF012009
:10584000FFF7B8FF1020FFF7B5FF00200600F6B203
:10585000802E05DA2000C0B2FFF784FF761CF6E741
:105860006D1CE4E770BD002808D043F22642110009
:105870000A00511E002AFBD1401EF4E7704780B594
:10588000002201215320FEF7B7FA00220121522005
:10589000FEF7B2FA012201215120FEF7ADFA0022F3
:1058A00001215020FEF7A8FA0020DFF8E815086073
:1058B0003220FFF7D8FF0120DFF8D8150860AE20AE
:1058C000FFF778FF0020FFF775FF1020FFF772FF4A
:1058D0004020FFF76FFF8120FFF76CFFCF20FFF71D
:1058E00069FFA120FFF766FFC820FFF763FFA6202E
:1058F000FFF760FFA820FFF75DFF3F20FFF75AFF8B
:10590000D320FFF757FF0020FFF754FFD520FFF704
:1059100051FF8020FFF74EFFD920FFF74BFFF1200A
:10592000FFF748FFDA20FFF745FF1220FFF742FF9D
:10593000DB20FFF73FFF4020FFF73CFF2020FFF771
:1059400039FF0220FFF736FF8D20FFF733FF1420C9
:10595000FFF730FFA420FFF72DFFA620FFF72AFF57
:10596000AF20FFF727FF0020FFF75DFF0021002099
:10597000FFF745FF01BD2DE9F84304000D001600B7
:1059800000275FF000085FF000095FFA89F919F855
:10599000060000282BD05FFA89F919F80600203894
:1059A0000700E4B27F2C02DB002004006D1C2900FC
:1059B000C9B22000C0B2FFF722FF002080465FFA84
:1059C00088F8B8F1060F0EDADFF8CC04FFB2062132
:1059D00001FB07005FFA88F818F80000FFF7C2FE25
:1059E00018F10108EBE7A41D19F10109CDE7BDE8A5
:1059F000F1832DE9F04104008846150000260027B8
:105A0000B5F120000600E4B27B2C03DB002004008B
:105A100018F101084146C9B22000C0B2FFF7EFFEFD
:105A200000200700FFB2062F0BDADFF86C04F6B295
:105A3000062101FB0600FFB2385CFFF793FE7F1CD6
:105A4000F0E7BDE8F08100004C10FE434010FE433B
:105A50004410FE432DE9F84F04000D0016001F000E
:105A60002E222900C9B22000C0B2FFF7C2FF4FF4B6
:105A70007A70B6FBF0F080464FF47A70B6FBF0F126
:105A800000FB11606421B0FBF1F081466420B6FB9D
:105A9000F0F100FB11600A21B0FBF1F082460A2010
:105AA000B6FBF0F100FB11608346FFB2012F06D078
:105AB00068D3032F21D00CD3042F3CD062E01BF11C
:105AC0003002D2B22900C9B2A01DC0B2FFF791FFC7
:105AD00058E01AF13002D2B22900C9B2A01DC0B2FA
:105AE000FFF787FF1BF13002D2B22900C9B214F1CF
:105AF0000C00C0B2FFF77DFF44E019F13002D2B2D2
:105B00002900C9B2A01DC0B2FFF773FF1AF130021D
:105B1000D2B22900C9B214F10C00C0B2FFF769FF7C
:105B20001BF13002D2B22900C9B214F11200C0B286
:105B3000FFF75FFF26E018F13002D2B22900C9B2A8
:105B4000A01DC0B2FFF755FF19F13002D2B22900F3
:105B5000C9B214F10C00C0B2FFF74BFF1AF13002CA
:105B6000D2B22900C9B214F11200C0B2FFF741FF4E
:105B70001BF13002D2B22900C9B214F11800C0B230
:105B8000FFF737FFBDE8F18F2DE9F04F83B0040038
:105B90008B4615001E0006275FF000082800FBF763
:105BA000B3FF81462800FBF7AFFFFBF7BFFD010005
:105BB0002800FBF7F7FDB949FBF7E6FEFBF7A4FF6A
:105BC00082462800B649FBF7DBFD07D22D22594655
:105BD000C9B22000C0B2FFF70CFF06E02B225946E5
:105BE000C9B22000C0B2FFF704FFB9F1000F01D520
:105BF000D9F10009C84642F21070B8FBF0F08DF8F8
:105C0000040042F21070B8FBF0F100FB11804FF479
:105C10007A71B0FBF1F08DF803004FF47A70B8FBA5
:105C2000F0F100FB11806421B0FBF1F08DF802006F
:105C30006420B8FBF0F100FB11800A21B0FBF1F009
:105C40008DF801000A20B8FBF0F100FB11808DF8FF
:105C500000009DF8040000283BD09DF8040010F1DE
:105C60003002D2B25946C9B2A01DC0B2FFF7C1FE80
:105C70009DF8030010F13002D2B25946C9B214F1B6
:105C80000C00C0B2FFF7B5FE9DF8020010F1300223
:105C9000D2B25946C9B214F11200C0B2FFF7A9FE40
:105CA0009DF8010010F13002D2B25946C9B214F188
:105CB0001800C0B2FFF79DFE9DF8000010F1300201
:105CC000D2B25946C9B214F11E00C0B2FFF791FE1C
:105CD0008AE09DF80300002831D0052007009DF8D8
:105CE000030010F13002D2B25946C9B2A01DC0B2B1
:105CF000FFF77FFE9DF8020010F13002D2B2594644
:105D0000C9B214F10C00C0B2FFF773FE9DF8010098
:105D100010F13002D2B25946C9B214F11200C0B229
:105D2000FFF767FE9DF8000010F13002D2B259462D
:105D3000C9B214F11800C0B2FFF75BFE54E09DF841
:105D40000200002825D0042007009DF8020010F171
:105D50003002D2B25946C9B2A01DC0B2FFF749FE07
:105D60009DF8010010F13002D2B25946C9B214F1C7
:105D70000C00C0B2FFF73DFE9DF8000010F13002AC
:105D8000D2B25946C9B214F11200C0B2FFF731FEC7
:105D90002AE09DF80100002819D0032007009DF893
:105DA000010010F13002D2B25946C9B2A01DC0B2F2
:105DB000FFF71FFE9DF8000010F13002D2B25946E5
:105DC000C9B214F10C00C0B2FFF713FE0CE00220C0
:105DD00007009DF8000010F13002D2B25946C9B256
:105DE000A01DC0B2FFF705FEBAF1000F01D5DAF130
:105DF000000AF6B2002E06D0022E17D004D3042ECD
:105E000036D024D342E041E03300DBB24FF47A7065
:105E10009AFBF0F25946C9B2FFB2062000FB07F028
:105E200050FA84F0C0B2FFF715FE2FE03300DBB26A
:105E300064209AFBF0F25946C9B2FFB2062000FB7B
:105E400007F050FA84F0C0B2FFF704FE1EE0330002
:105E5000DBB20A209AFBF0F25946C9B2FFB2062023
:105E600000FB07F050FA84F0C0B2FFF7F3FD0DE03D
:105E70003300DBB252465946C9B2FFB2062000FBDE
:105E800007F050FA84F0C0B2FFF7E4FDBDE8F78FE9
