:10000000F8FF002011040000BB3A0000BB3A0000DA
:10001000BB3A0000BB3A0000BB3A0000BB3A00000C
:10002000BB3A0000BB3A0000BB3A0000BB3A0000FC
:10003000BB3A0000BB3A0000BB3A0000BB3A0000EC
:10004000BB3A0000BB3A0000BB3A0000BB3A0000DC
:10040000FFFFFFFFFFFFFFFFFFFFFFFFFEFFFFFFFD
:1004100062B606F067F8FEE72DE9F04FA1B082461C
:10042000002017461D4602910B900DF1440B6FF012
:1004300000490AE017F8011B0298D04702900028F3
:1004400000F0A2820B98401C0B90387808B90B98EA
:100450009CE22528EED10020059006900790089098
:1004600009900A9001E040F0010017F8011F2029CF
:10047000F9D023290DD02B2904D02D2906D03029DD
:100480000AD00CE040F0020080B2EEE740F0040039
:10049000FAE740F00800F7E740F01000F4E72A29F7
:1004A0000ED12968296051F8042B2960002A0D9289
:1004B00004D5514240F004000D9180B27F1C11E040
:1004C00000210D9109E00D99494505D001EB81030B
:1004D00002EB430130390D917F1C3A78A2F13001D3
:1004E0000A29F0D339782E2903D04FF0FF310C912F
:1004F0001DE017F8011F2A2907D1296829607F1CF0
:1005000051F8042B29600C9211E000210C9109E0B4
:100510000C99494505D001EB810302EB43013039C9
:100520000C917F1C3A78A2F130010A29F0D3ADF882
:1005300038000FF6B820397800F076FD08B117F8CA
:10054000010B8DF83A009DF83A00682802BF39780F
:100550006829622005D06C2804BF38786C2803D144
:1005600071208DF83A007F1C11A8049017F8014BF8
:10057000B4F1250024D02038022840F2C580133879
:1005800000F0EB800B3800F04F81401E00F024811A
:10059000401E022840F2B880001F00F01D81401F5D
:1005A00000F08380401E00F0D880401E29D0C01E7D
:1005B0000CD0801E00F0D180C01E00F0CE803DE146
:1005C0000120059025208DF8440043E1286828602B
:1005D00050F8044B28600394DDF83080B8F1000F28
:1005E00004D5204600F02CFD804607E0424600215D
:1005F000204600F041FD08B1A0EB0408CDF81880BA
:1006000028E1296829604FF03C0851F8040B296063
:100610000021CDE9000111A80390DDE90001049C4F
:1006200011B908B90C9AC2B10206120FA0EB02125E
:100630003032D2B23A2AA8BF27320009A8F101030A
:1006400040EA017009091A5508BF0028984604D0ED
:10065000039A08EB04039A42E6D308EB04000390E4
:10066000C8F13C010C980691814209DA401A0890C1
:100670004FF6EF71BDF838000840ADF83800E9E0FA
:10068000002840F1E7809DF8380000F014001028A1
:1006900040F0E0800D98059A801A089A801A401A56
:1006A0000128C0F2D7800890D4E09DF83A00622873
:1006B0001AD0682806D06A280CD06C281CD0712863
:1006C00008D019E02868286050F8041B28600B98AF
:1006D0000880BFE02868286050F8042B28600B9839
:1006E000C117C2E90001B5E02868286050F8041B72
:1006F00028600B980870ADE02868286050F8041B4B
:1007000028600B980860A5E02868C01D20F007024B
:100710002A60D2E9000108322A60CDE900010029EF
:1007200003D5012005902D200CE0BDF8380081078D
:1007300003D5012005902B2004E0C00704D501203B
:10074000059020208DF84400059911A80818039001
:10075000214600A800F0D8F97CE09DF83A206C2AE8
:100760000DD0712A18BF6A2A09D12868C01D20F04F
:1007700007032B60D3E9000108332B6005E02968EB
:10078000296051F8040B29600021CDE90001682A95
:1007900008BF80B207D0622A08BFC0B203D0742A53
:1007A00018BF7A2A02D10021CDE900019DF8380056
:1007B000000730D5DDE90001002908BF00282AD054
:1007C00044F02000782826D130208DF844008BF8A2
:1007D0000140022005901EE09DF83A00294600F0F5
:1007E000D8F8CDE90001002904DA0598411C0591EB
:1007F0002D210EE0BDF83800810704D50598411C75
:1008000005912B2105E0C00705D50598411C0591F0
:10081000202100F80B10059911A808180390214613
:1008200000A800F0EDF815E0012005902868286088
:1008300050F8041B28608DF844100BE0012005904F
:100840002520002C8DF8440004D00598411C05910A
:1008500000F80B400D980599401A0899401A06991E
:10086000401A0999401A0799401A0A99A0EB010801
:100870009DF8380040070FD420208DF84000002458
:1008800008E0012310AA00A9504600F098FB0028B8
:100890007AD1641C4445F4DB059C11AE0AE016F8DD
:1008A000011B0298D047029000286DD00B98401C85
:1008B0000B90641E002CF2D130208DF840000026F1
:1008C000089C08E0012310AA00A9504600F077FB1D
:1008D000002859D1761CA642F4DB069C039E0AE050
:1008E00016F8011B0298D047029000284CD00B98B4
:1008F000401C0B90641E002CF2D130208DF840007B
:100900000026099C07E0012310AA00A9504600F028
:1009100056FBC8BB761CA642F5DB03980699079CDC
:100920000E1809E016F8011B0298D047029058B340
:100930000B98401C0B90641E002CF3D130208DF8D6
:10094000400000260A9C07E0012310AA00A9504697
:1009500000F035FBC0B9761CA642F5DB9DF83800E7
:1009600040077FF572AD20208DF84000002400E0A4
:10097000641C4445BFF669AD012310AA00A9504686
:1009800000F01DFB0028F3D04FF0FF3021B0BDE890
:10099000F08F622826D068281DD06A2808D06C28DD
:1009A00027D0712804D0742823D07A280CD020E0D6
:1009B0000868C01D20F007000860D0E90023083057
:1009C00008601946104670470A680A6052F8040B1E
:1009D0000A60002170470A680A6052F8040B0A6036
:1009E00000B20BE00A680A6052F8040B0A6040B2D9
:1009F00004E00A680A6052F8040B0A60C1177047E5
:100A00002DE9FA4E05460A462F696F2A08BF0824C9
:100A100005D041F02000782814BF0A2410243C2679
:100A2000D5E90001642A18BF692A81468A4605D1A2
:100A3000002903DAD9F100096AEB4A0ABAF1000F7A
:100A400008BFB9F1000F0CD1286B50B9082C36D172
:100A500095F83800000732D530203B2687F83B0058
:100A60002DE0E31748465146224600F031FBA4FB37
:100A70000023A9EB02023032D2B2A6F1010B3A2ACE
:100A80005E4603DB9DF80030513B9A1881465FEAD1
:100A9000010A0BF8072008BFB9F1000F03D0E8687E
:100AA000F1198842DDD3082C09D195F838000007E8
:100AB00005D5F05D302802D0761E3020F055C6F105
:100AC0003C00A861F119E960296B884208DA081A2C
:100AD00028624FF6EF71288F08402887BDE8F38E13
:100AE00000290ED595F8381001F01401102908D10D
:100AF000696B6A69891A2A6A891A081A0128A8BFC3
:100B00002862BDE8F38E00002DE9F34F8BB0D0E9E9
:100B10000089006B002801AF48BF062005D404BF40
:100B200041F02000672802D101200B99086340F2B0
:100B3000FF720B984168C1F30A50904220D108031C
:100B400002BF0B98006800280AD10B990320886126
:100B50009DF8300061381A2858D30FF2A44109E0FB
:100B60000B99032088619DF8300061381A284AD318
:100B70000FF284410B98C068032200F021FB00E1D2
:100B8000012807DA0B9800F056FB012802DB00234E
:100B90000026EDE00B9ADFF854B1526840F2FE31C6
:100BA00061F31E520B994A6040F2FE31461A4046EC
:100BB00049460022002300F05FFB38BF89F000495E
:100BC00036B247F297507043494990FBF1F636B27E
:100BD000C6F10707012F92461BDBF80707D55246DF
:100BE0005B464046494600F05FFB804689467F10E1
:100BF0005046594652465B4600F056FB002F82464F
:100C00008B46EAD126E00FF2EC31B3E70FF2EC317C
:100C1000B0E77F420024374D12E0F80707D552466F
:100C20005B462046294600F03FFB04460D467F10F8
:100C30005046594652465B4600F036FB82468B468C
:100C4000002FEAD14046494622462B4600F0FEFBE3
:100C5000804689469DF830000B99DFF89CB0096BFF
:100C600040F02005662D0CBF06F10A00062047184B
:100C7000142FA8BF132730208DF804000DF10504B0
:100C8000012F3BDB4046494600F01AFD014604F1C6
:100C9000080204234FF00A0CB1FBFCFC0CEB8C04A3
:100CA000A1EB4401303102F8011D0A21BCFBF1FE29
:100CB0000EEB8E04ACEB440430345B1E714602F83C
:100CC000014DE7D1083F012F02F10804D8DB00F005
:100CD00017FD02460B464046494600F01FFD002224
:100CE0005B4600F0E1FA80468946CBE700002440ED
:100CF000A08601000000F03F84D797410DF1050068
:100D0000201A0DF1050702E0401E761E7F1C39787F
:100D10003029F9D0662D02D136B2711C03E0652D61
:100D20000CBF012100210B9A126B8B181BB2984249
:100D3000B8BF03461BB219001AD4814204DAC85D59
:100D40003528A8BF392000DA3020CA19521E00E029
:100D50005B1E12F80159491E8542F9D0392802D18B
:100D6000C85D401CC855002902D57F1E5B1C761C3F
:100D700036B29DF830100B9800961BB23A4600F040
:100D800003F80DB0BDE8F08F2DE9F04786B00646B8
:100D90008A4690461D4600F09EFD406A376B90F8EB
:100DA0000090012D02DA01250FF258284AF02000A8
:100DB000BDF93840662808BF641C13D0672840F08E
:100DC000888014F1040F73DBBC4271DA96F83800A6
:100DD000641C000702D4BD42B8BF2F4624B23F1B9B
:100DE00048BF002724B2F068B169012C21DA4A1CFF
:100DF00030230B54012F03DA96F83810090702D577
:100E000002F80090521CE742B8BF7C4224B2614213
:100E1000E719AF42B261B8BF3D4671622DB2F561CC
:100E20002A46B3694146181800F0CAF9781BB06227
:100E3000AEE00818A54216DA2A46414600F0C0F98D
:100E4000B1696918601BB161012F706203DA96F80D
:100E50003800000705D5F06801F80090F069401CE3
:100E6000F061B76294E02246414600F0A9F9B0690A
:100E700020182D1B012F03DA96F83810090703D527
:100E8000F16800F80190401CB0612DB2AF42B8BFCC
:100E90003D46F068B3692DB22A4604EB08011818E4
:100EA00000F08EF9B0692818B061781B70626FE0AD
:100EB000BD4204DA96F83810090758BF2F467F1E46
:100EC00048BF0027BAF1670F0CBF4FF0650A4FF01B
:100ED000450AB169F06818F8013B0B544A1C012F10
:100EE00005DA96F83810090758BFB26115D502F82F
:100EF0000090531C012FB3610FDB6D1E2DB2AF426A
:100F0000B8BF3D462DB22A464146181800F058F9A0
:100F1000B0692818B061781B7062F068B16901EBA4
:100F20000008200008F801AB03D42B2008F8010BBF
:100F300003E02D2108F8011B6442002502AF08E000
:100F40000A2200A800F0E0FC019807F8010B6D1CD4
:100F5000009C21B20129F3DA022D06DA4AF02000C2
:100F6000652804BF302008F8010B4DB9302008F87F
:100F7000010B07E06D1E02A8285C303008F8010B59
:100F8000012DF7DAF068B1690818A8EB0000F061EC
:100F900096F8380000F0140010280DD17069B1697E
:100FA0000818716A0818F1690818B16A0818716B95
:100FB0008842BCBF081A306206B0BDE8F087F8B5B9
:100FC00004460D4616461F46002004E0E86A401C11
:100FD000E8627F1E002047B116F8011BA868A047F1
:100FE000A8600028F2D14FF0FF30F2BD686A6C743F
:100FF0007A4C00006E616E004E414E00696E6600D4
:10100000494E4600300050F8041B61B150F8042BE3
:10101000D30744BFA9F101039A180023091F42F81E
:10102000043BFAD1EFE770470278C9B28A421AB19D
:101030001CBF10F8012FF9E718BF0020704782008D
:1010400000F10103810704D010F8011B89B1810769
:10105000FAD10268B2F10131914311F0803F04BF2F
:1010600050F8042FF6E710F8011B11B110F8011B1E
:10107000FBE7C01A70470000C9B2830706D0521EB2
:1010800022D310F8013B9942F7D11FE0083A13D35D
:1010900002F1040241EA012141EA014150F8043B16
:1010A000121F21BF4B40A3F1013C2CEA030C1CF0A2
:1010B000803FF3D0C9B2001F083210F8013B521E26
:1010C00028BF91EA030FF8D818BF0120401E7047CF
:1010D0001B4213D1094236D12AB18446B0FBF2F04B
:1010E00002FB10C2704700F017BCFCD300220023A3
:1010F00070470B000200002100207047904271EB06
:10110000030CF6D370B5B1FA81F4B3FA83F52C1B56
:10111000A340C4F1200532FA05F63343A2405FF044
:101120000046E64002E05B085FEA3202841A71EB97
:10113000030524BF204629467641F4D302000B0064
:101140003000002170BD012ACFD970B5140C20D019
:10115000B1FA81F4B2FA82F5C4F120046419B4F151
:101160002006D6D3B2405FF00044F440002502E0F0
:1011700052085FEA3303C61A71EB020E24BF3046F1
:10118000714664416D41F3D302000B002000290039
:1011900070BD0C46B1FBF2F102FB11452D0445EA8E
:1011A0001045B5FBF2F402FB145580B240EA054548
:1011B000B5FBF2F002FB105240EA044070BD410062
:1011C00062B38B0708D0521E11F8013B00F8013BB7
:1011D00000F024808B07F6D1830740F0208000BF09
:1011E000103A07D330B4B1E83810103AA0E83810FC
:1011F000F9D230BC530724BFB1E80810A0E80810AA
:1012000044BF51F8043B40F8043BD20724BF31F8F7
:10121000022B20F8022B44BF0B7803707047083A6A
:1012200007D3B1E80810083A40F8043B40F804CB73
:10123000F7D25307E4E730B4436803F000420121DA
:101240001B031B0B436004BF0368002B08D10DE098
:101250000368DD0F45EA440444605B000360491EF7
:101260004468E302F4D523031B0B436043681A432D
:101270004260084630BC70474FF4001C1CEB410F25
:1012800094BF1CEB430F09E041EA030C50EA4C0CFD
:1012900052EA0C0C03D2994208BF9042704714BF27
:1012A0008B42824270470000B0B581EA030C0CF01B
:1012B000004C40F2FF7515EA11541DBF15EA135793
:1012C000AC42AF4239E0E41923EA455343F48013BA
:1012D000C90241F0004141EA505EC7021100A7FB7C
:1012E000020200284FF00000EEFB01204FF0000149
:1012F000E3FB072118BF42F00102401800214941D9
:10130000E3FB0E01A4F580640F0302D252004041BA
:10131000494154F101046CDD470872F1004250F17B
:10132000000051EB0451A1F580115CBF41EA0C01B2
:10133000B0BD4CEA05510020B0BD05EA1357AC42E0
:1013400014BFAF4241E050EA410E1CBF52EA430EC7
:1013500002E061460020B0BD24423C441BD15FEA5C
:10136000070EF6D0090302BF01460020AEF1140EAD
:10137000B1FA81F7AEEB070401FA07FE0C37C7F1AB
:10138000200100FA07F7C8404EEA000E23EA455351
:1013900043F48013A2E733F00043B3FA83F704BFAA
:1013A000B2FA82FE77440B3FE41BB7F1200E2FBF49
:1013B00002FA0EF3BB40C7F1200E22FA0EFE38BF30
:1013C00043EA0E03BA40641C82E750EA410E14BFA0
:1013D00052EA430E6FF000014FF4001717EB430F72
:1013E0008ABF194617EB410FB5E74CEA05510020BB
:1013F000B0BDD4F10104B4F120070FDAC4F1200725
:10140000520828BF42F0010210FA07F501FA07F767
:10141000E1BF2A43E0403843E1400FE0352C98DC3F
:10142000C7F1200452EA400220FA07F218BF42F046
:10143000010231FA07F0A1400A43002172F1004293
:1014400050F1000051EB0C01B0BD6400F0B540F26A
:10145000FF7581EA030C0CF0004C15EA11541DBF16
:1014600015EA1357AC42AF42E5E0BC41C1F31301AA
:10147000C3F31303801A994143F4801304D2641E0A
:101480004000494180185941C90241EA5051B1FB1D
:10149000F3F603FB1611A2FB0675D7EBC020A9419A
:1014A00002D2761E80185941C90241EA5051B1FB5F
:1014B000F3FE03FB1E11A2FB0E75D7EBC020A94162
:1014C00003D2AEF1010E80185941890241EA9051D0
:1014D000760546EA8E2EB1FBF3F603FB1611A2FB4E
:1014E0000675D7EB8020A94102D2761E801859419B
:1014F000C90241EA50514EEA060EB1FBF3F603FB76
:101500001611A2FB0675D7EBC020A94102D2761EA8
:1015100080185941C90241EA5051B1FBF3F703FB6E
:101520001711A2FB0735D3EBC020A94167F10007D3
:101530000CBF004247F0010766F3D5274FEA1E3182
:10154000B80814F5806412DDBD0775F1004250EB58
:101550000E5051EB045111F5801F5CBF41EA0C01A4
:10156000F0BD4CF07F6141F0E0410020F0BDBD07CF
:101570006D0840EA0E5041F48011D4F10104B4F139
:1015800020060ADAC4F120060200E04001FA06F360
:10159000E1401843B24015430EE0342C13DCC6F191
:1015A000200445EA40056D0820FA06F2154321FAA9
:1015B00006F0A1400D43002175F1004250F10000FA
:1015C00051EB0C01F0BD00205FEA0C01F0BDCFB97A
:1015D00092185B41B3FA83F704BFB2FA82F6BF19DF
:1015E0000B3FB7F120062FBF02FA06F3BB40C7F14D
:1015F000200622FA06F638BF3343BA401CB1E4197C
:10160000641E33E77F4231F00041B1FA81F404BF38
:10161000B0FA80F6A4190B3CB4F120062FBF00FAF3
:1016200006F1A140C4F1200620FA06F638BF314386
:10163000A0403C1B1AE7AC421ABF05EA1357AF4261
:1016400012E050EA41061CBF52EA4306BFE750EAE7
:101650004107304661461CBF41EA0551F0BD52EAE0
:10166000430C08BFC143F0BD00204FF4001616EB39
:10167000410F98BF16EB430F08BF16EB410F24BF75
:10168000C14305E016EB430F0CBF61464CEA055120
:10169000F0BD0000F446400D40EAC120490006D2EA
:1016A00000F014F8004248BF6FF00040604700F0BF
:1016B0000DF84FF0004188428CBF08464042604719
:1016C000400D40EAC120490080F00D8040F000400C
:1016D000490DA1F58061491C05D4D1F11F0154BF0A
:1016E000C840C01770474FF000007047010040F13C
:1016F0000980F446404200F005F851F0004160478F
:10170000010000BF09D0B0FA80F18840C91CC1F5C2
:101710008461090501EBD0214005704770B44FF09A
:10172000004591EA030F44BF6B4000F001B900BFD0
:10173000841A71EB030604D26E40001BB1411219EA
:1017400073414FF4001C1CEB410F34BF7CEB43068C
:1017500084E00C0DA4EB1356362E7DDC012E43DC09
:1017600045EAC32343EA525312BFD20292025B08F6
:10177000240545EAC12141EA5051D2EBC0209941EC
:1017800025D407D1B0FA80F610FA06F164D0002013
:10179000203608E0B1FA81F6B140C6F1200220FA05
:1017A00002F21143B0404FEAF474B4EB465434F003
:1017B00001064FEA74040AD8D6F50016760D04F037
:1017C0000044F04061FA06F25040F1404840C00A3F
:1017D00040EA415021F0004128BF5FEA500550F136
:1017E000000044EBD12137E045EAC323DB0A45EA98
:1017F000C121C90AB6F120050EDD42EA0242120CEF
:10180000C5F1200603FA06F6EB4042EA06056D42F2
:10181000984161F100010DE062FA06F5F240554091
:1018200063FA06FC82EA0C02F3405A406D42904192
:1018300061EB030111F4801F05D1641E620502D023
:101840006D004041494121F48011430875F1004386
:1018500050F1000041EB045170BC70471CEB410F8C
:1018600015D223F0004352EA43060BD04FEA4C0C4A
:10187000BCEB410F04D80C0D661E342EB7DDEBE730
:10188000801A994150EA410608BF0021E4E708BFE9
:101890001CEB430F28BF6FF00001DDE780B5134854
:1018A00000F0B0F80FF24801016041608160C16052
:1018B0000161416181610FF23C0242628162C16259
:1018C000016341630FF2300282630FF23402C2639C
:1018D0000164416401BD10B5044800F093F804466A
:1018E000206808B9FFF7DAFF204610BD201AFF1F55
:1018F000000000002E00000066616C7365000000AF
:10190000747275650000000091FBF2F303FB121185
:10191000C0E9003170476400704703FC70B44FF0B9
:10192000004591EA030C44BF6B40FFF701BF00BFC5
:10193000841A71EB030603D2001BB14112197341E3
:101940004FF4001C1CEB410F34BF7CEB430443E01D
:101950000C0DA4EB1356352E50DC45EAC323DB0AED
:1019600045EAC121C912B6F120050DDD63FA05F67D
:10197000EB4086EA0305124218BF45F00105C01886
:1019800051F100010CD213E062FA06F5F240554025
:10199000F3415A40B340F3405A408018594107D3AD
:1019A00049085FEA30005FEA350528BF45F00105C8
:1019B00001F58011420875F1004250F1000041EB41
:1019C000045170BC4FF4001C1CEB410F38BF704732
:1019D0000020090D090570471CEB410F10D252EA97
:1019E00043060BD0BCEB410F05D80C0DAB43661E74
:1019F000342EB5DD02E0AB438018594170BC70470E
:101A000070BC70477047FC032DE9F04786B08046F4
:101A100089460024002503A80021016002A80021B6
:101A2000016000A80021002206C00838DFF89009F4
:101A3000B0F9000000F0DAFC414600F0F1FC07D2FA
:101A4000DFF87C09B0F9000000F0D0FC804611E01E
:101A5000DFF87009B0F9000000F0C8FC0100404652
:101A600000F0DEFC06D2DFF85C09B0F9000000F0FF
:101A7000BDFC8046DFF84C09B0F9000000F0B6FC70
:101A80000100404600F0DEFC8046DFF83409B0F982
:101A90000000DFF83019B1F90010401A00F0A6FC80
:101AA0000100404600F042FD8046DFF81C09B0F915
:101AB0000000DFF81819B1F90010401A00F096FC88
:101AC000414600F0B1FD8046DFF80009B0F90000A2
:101AD00000F08CFC414600F013FE8046DFF8F00871
:101AE000B0F9000000F082FC494600F099FC07D2F2
:101AF000DFF8DC08B0F9000000F078FC814611E066
:101B0000DFF8D008B0F9000000F070FC0100484692
:101B100000F086FC06D2DFF8BC08B0F9000000F047
:101B200065FC8046DFF8AC08B0F9000000F05EFC10
:101B30000100484600F086FC8146DFF89408B0F9C1
:101B40000000DFF89018B1F90010401A00F04EFCC8
:101B50000100484600F0EAFC8146DFF86C08B0F965
:101B60000000DFF86818B1F90010401A00F03EFCE0
:101B7000494600F059FD8146DFF85008B0F90000F1
:101B800000F034FC494600F0BBFD8146DFF8480810
:101B900090F9000000F02AFC414600F041FC80F082
:101BA0004481DFF8340890F9060000F01FFC0100C2
:101BB000404600F035FC80F03881DFF81C0890F9D1
:101BC000010000F013FC414600F0DCFD29D80120A3
:101BD0000400DFF80808B0F9000000F007FC8246B6
:101BE000DFF8F40790F9010000F000FC414600F036
:101BF00029FC514600F018FD8246DFF8DC0790F919
:101C00000100DFF8D41791F90010401A00F0EEFB44
:101C10000100504600F08AFC00F0C6FDADF80C0053
:101C200026E1DFF8B40790F9020000F0DFFB41463F
:101C300000F0A8FD29D802200400DFF8A007B0F9C1
:101C4000000000F0D3FB8246DFF88C0790F9020019
:101C500000F0CCFB414600F0F5FB514600F0E4FCFF
:101C60008246DFF8740790F90200DFF86C1791F9EB
:101C70000110401A00F0BAFB0100504600F056FC7B
:101C800000F092FDADF80C00F2E0DFF84C0790F99F
:101C9000030000F0ABFB414600F074FD29D803209F
:101CA0000400DFF83807B0F9000000F09FFB82461F
:101CB000DFF8240790F9030000F098FB414600F09C
:101CC000C1FB514600F0B0FC8246DFF80C0790F9EA
:101CD0000300DFF8041791F90210401A00F086FBA8
:101CE0000100504600F022FC00F05EFDADF80C0053
:101CF000BEE0DFF8E40690F9040000F077FB41460F
:101D000000F040FD29D804200400DFF8D006B0F927
:101D1000000000F06BFB8246DFF8BC0690F904007F
:101D200000F064FB414600F08DFB514600F07CFC66
:101D30008246DFF8A40690F90400DFF89C1691F9BA
:101D40000310401A00F052FB0100504600F0EEFB79
:101D500000F02AFDADF80C008AE0DFF87C0690F96F
:101D6000050000F043FB414600F00CFD29D805209A
:101D70000400DFF86806B0F9000000F037FB824687
:101D8000DFF8540690F9050000F030FB414600F002
:101D900059FB514600F048FC8246DFF83C0690F9BA
:101DA0000500DFF8341691F90410401A00F01EFB0C
:101DB0000100504600F0BAFB00F0F6FCADF80C0054
:101DC00056E0DFF8140690F9060000F00FFB4146DC
:101DD00000F0D8FC4CD806200400DFF80006B0F96B
:101DE000000000F003FB8246DFF8EC0590F90600E6
:101DF00000F0FCFA414600F025FB514600F014FCCF
:101E00008246DFF8D40590F90600DFF8CC1591F989
:101E10000510401A00F0EAFA0100504600F086FB77
:101E200000F0C2FCADF80C0022E0DFF8AC0590F940
:101E3000000000F0DBFA414600F0A4FC08D80120C5
:101E40000400DFF89805B0F90000ADF80C000FE0D1
:101E5000DFF8840590F9060000F0C8FA010040465A
:101E600000F090FC04D8062004000020ADF80C001F
:101E7000DFF868050088BDF80C10401AADF80E00B8
:101E8000DFF85C0590F9000000F0B0FA494600F078
:101E9000C7FA80F03B81DFF8480590F9060000F0B2
:101EA000A5FA0100484600F0BBFA80F02F81DFF868
:101EB000300590F9010000F099FA494600F062FC03
:101EC00029D801200500DFF81405B0F9000000F062
:101ED0008DFA8246DFF8080590F9010000F086FAD5
:101EE000494600F0AFFA514600F09EFB8246DFF80B
:101EF000F00490F90100DFF8E81491F90010401A9D
:101F000000F074FA0100504600F010FB00F04CFCA9
:101F1000ADF808001AE1DFF8C80490F9020000F0FB
:101F200065FA494600F02EFC29D802200500DFF8AA
:101F3000AC04B0F9000000F059FA8246DFF8A004C2
:101F400090F9020000F052FA494600F07BFA51463F
:101F500000F06AFB8246DFF8880490F90200DFF89F
:101F6000801491F90110401A00F040FA0100504627
:101F700000F0DCFA00F018FCADF80800E6E0DFF84D
:101F8000600490F9030000F031FA494600F0FAFBD2
:101F900029D803200500DFF84404B0F9000000F060
:101FA00025FA8246DFF8380490F9030000F01EFAA3
:101FB000494600F047FA514600F036FB8246DFF80A
:101FC000200490F90300DFF8181491F90210401A68
:101FD00000F00CFA0100504600F0A8FA00F0E4FB13
:101FE000ADF80800B2E0DFF8F80390F9040000F063
:101FF000FDF9494600F0C6FB29D804200500DFF8AA
:10200000DC03B0F9000000F0F1F98246DFF8D003FC
:1020100090F9040000F0EAF9494600F013FA51463D
:1020200000F002FB8246DFF8B80390F90400DFF805
:10203000B01391F90310401A00F0D8F9010050468E
:1020400000F074FA00F0B0FBADF808007EE0DFF8B5
:10205000900390F9050000F0C9F9494600F092FBA1
:1020600025D805200500DD48B0F9000000F0BEF9D4
:102070008246DB4890F9050000F0B8F9494600F0C7
:10208000E1F9514600F0D0FA8246D54890F90500B2
:10209000D34991F90410401A00F0A8F90100504604
:1020A00000F044FA00F080FBADF808004EE0CC48A8
:1020B00090F9060000F09AF9494600F063FB45D814
:1020C00006200500C548B0F9000000F08FF98246EF
:1020D000C34890F9060000F089F9494600F0B2F9CA
:1020E000514600F0A1FA8246BD4890F90600BC496D
:1020F00091F90510401A00F079F90100504600F0FE
:1021000015FA00F051FBADF808001FE0B44890F953
:10211000000000F06BF9494600F034FB07D80120BD
:102120000500AE48B0F90000ADF808000EE0AC487C
:1021300090F9060000F05AF90100484600F022FB31
:1021400004D8062005000020ADF80800A348008848
:10215000BDF80810401AADF80A00DFF88802E4B2B2
:10216000072101FB0400EDB2281810F9080CADF8A6
:102170001000DFF87002E4B2072101FB0400EDB2A9
:10218000281810F9010CADF81200DFF85802E4B27B
:10219000072101FB0400EDB2281810F9070CADF877
:1021A0001400DFF84002E4B2072101FB0400EDB2A5
:1021B0002856ADF81600BDF90C00BDF9081088428C
:1021C00004DABDF90C00ADF8000003E0BDF9080029
:1021D000ADF80000BDF90E00BDF90810884204DA20
:1021E000BDF80E00ADF8020003E0BDF80800ADF840
:1021F0000200BDF90C00BDF90A10884204DABDF8EE
:102200000C00ADF8040003E0BDF80A00ADF80400CE
:10221000BDF90E00BDF90A10884204DABDF80E00BF
:10222000ADF8060003E0BDF80A00ADF80600BDF900
:102230001000BDF9121088420CD1BDF90200BDF9A1
:102240000010884203DA0020ADF8020002E000200E
:10225000ADF80000BDF91000BDF9141088420CD192
:10226000BDF90400BDF90010884203DA0020ADF882
:10227000040002E00020ADF80000BDF91000BDF937
:10228000161088420CD1BDF90600BDF90010884235
:1022900003DA0020ADF8060002E00020ADF80000EF
:1022A000BDF91200BDF9141088420CD1BDF904002B
:1022B000BDF90210884203DA0020ADF8040002E004
:1022C0000020ADF80200BDF91200BDF916108842D9
:1022D0000CD1BDF90600BDF90210884203DA0020D6
:1022E000ADF8060002E00020ADF80200BDF91400D0
:1022F000BDF9161088420CD1BDF90600BDF90410D5
:10230000884203DA0020ADF8060002E00020ADF8B4
:102310000400DFF8D4000068BDF9101030F9110096
:10232000ADF81000DFF8C0000068BDF9121030F8F9
:102330001100ADF81200DFF8B0000068BDF914100C
:1023400030F81100ADF81400DFF89C000068BDF90A
:10235000161030F81100ADF81600BDF90000BDF9F7
:10236000101010FB01F0BDF90210BDF9122011FB95
:102370000200BDF90410BDF9142011FB0200BDF9E3
:102380000610BDF9162011FB020000F02FF8060020
:10239000BDF90000BDF9021001FA80F0BDF904108A
:1023A00000FA81F0BDF9061000FA81F000F01EF885
:1023B00007003000390000F0B9F806B0BDE8F0873A
:1023C0003E100000761000004A1400009216000033
:1023D000BE110000A6120000DC6A00001619000001
:1023E000E46A00005C04FF1F5404FF1F002840F152
:1023F0000980F446404200F005F850F00040604784
:10240000002800BF0AD0B0FA80F18840D1F19D01C8
:10241000C905020672F1004241EB1020704700002E
:102420004FF0807C1CEB400F94BF1CEB410F05E08C
:1024300040EA010C5FEA4C0C01D28842704718BF99
:102440008142704790EA010F44BF81F0004100F0E3
:102450005FB900BF431A4FF000423EBF5340C01A5D
:10246000C91800BFD3095FEAD05C13EB400F34BF3B
:10247000B3EB410F40E07CEBD1530CD342EA012196
:1024800022D8D1EB402009D3400A28BF5FEA50018F
:1024900040EBCC507047401A15D04002B0FA80F2A1
:1024A000521C9040400A4FEA3C23B3EB026384BFC6
:1024B00000EB730007E040F400001A16DB07C2F1DE
:1024C0000102D04018437047182BFCDC31FA03F2AC
:1024D00002FA03F3591A38BF42F00102D2EB40204E
:1024E0003CBF4000ACF1010C5FEACC5CC20572F16C
:1024F00000414CEB5020704713EB400F0FD24B00C4
:1025000009D0ACEBD153022B03DB4902172BDDDDE5
:1025100070479143401A4300D5D10020704713EB18
:10252000410FD0D36FF000007047000010B5FF23BB
:1025300013EAD0541DBF13EAD1529C429A4239E0AB
:10254000A41ADA0780EA0103134042EA012142EAB1
:102550000020421A3CBF641E01EB4202090AB2FB92
:10256000F1FE01FB1E221202B2FBF1F001FB102270
:102570006EF30F201202B2FBF1FE4EEA00207F3410
:1025800006DDFE2C24DA53EA500050EBC45010BD97
:10259000D4F1020401FB1E2240F08071192C1DDCD5
:1025A00021FA04F0C4F12004A140114371F100426A
:1025B000584110BD9C421ABF03EAD1529A420FE023
:1025C00080EA010E0EF00043400004D0490016D10D
:1025D00043F0FF4010BD490008BFD343180010BDB1
:1025E0009C4205D1D21AF7D001F00041484010BDFD
:1025F0004A0212BF0846484000F0004010BD4AB9E8
:102600000902B1FA81F2914044B1A418C00140F02E
:1026100000409EE7C90141F0004152420002B0FA79
:1026200080F4A040141B94E7FF2212EAD05C1DBF87
:1026300012EAD153944593422BE09C44D30780EA9D
:1026400001021A4043EA002043EA0121A1FB0030C5
:10265000410038BF40007CF17F010BDBFE294ADAE4
:102660005B0842EAC15153EA006373F1004C51EB3D
:1026700010207047D1F1080CDCF120012FDB5B0842
:1026800010FA01F10B4373F1004120FA0CF05041B4
:10269000704794451CBF02EAD153934280EA01027D
:1026A00002F000421DD0400019D0490017D05BB99C
:1026B000634514D00902B1FA81F39940BCEB030CD5
:1026C000C00140F00040C1E70002B0FA80FC10FAFF
:1026D0000CF0B3EB0C0CC90141F00041B6E710005F
:1026E000704740000AD0490008D010F1807F94BFA5
:1026F00011F1807F02E042F0FF407047D043704705
:1027000090EA010F44BF81F00041FFF7A3BE00BF74
:10271000421A3CBF801A89184FF0004CC0F3C752D0
:10272000FF2A24D0C1F3C75313B3D21AD2F119032D
:1027300027DD4CEA01214CFA03F321EA0303D140DF
:10274000C20D4CEA0020401834BF20EA0C004CEACD
:102750005000D20553EA006373EB0C0C52EB1020CF
:10276000420012F1807F38BF7047C00DC00570472E
:10277000490212BF9A4200EB5120F8E7D2F1170349
:10278000D9D570474FF0807C1CEB400F94BF1CEBF9
:10279000410F05E040EA010C5FEA4C0C01D2814296
:1027A000704718BF884270474100090E7F3915D421
:1027B000D1F11F0114D4400007D2C00140F0004005
:1027C000C84048BF6FF000407047C00140F0004073
:1027D000C8404CBF4FF00040404270470020704757
:1027E00000424FF0004058BFC04370470100000056
:1027F0009001E00130029E02AD02BC02C602000060
:10280000E00108023002580280029402A80200008F
:10281000DC050E0640067206A406D6060807000070
:1028200064007D008C009600A500B400BE0000008E
:102830001404FF1F3404FF1F000001010203030002
:102840000001020203030001020203040401010269
:10285000030405050102030404050603030404053B
:1028600006060303040505060600000000B0034049
:1028700000B00B400000000000000000000000005D
:102880000000000000000000000000000000000048
:1028900000004E6F6E4D61736B61626C65000000ED
:1028A00000486172644661756C74000000000000AD
:1028B0004D656D4D616E6167656D656E74000042BA
:1028C00075734661756C740000000000000055735C
:1028D0006167654661756C740000000000000000CF
:1028E00000000000000000000000000000000000E8
:1028F00000000000000000000000000000000000D8
:1029000000000000000000000000000000000000C7
:10291000000000000000000000535643616C6C0092
:10292000000000000000000044656275674D6F6E96
:1029300069746F72000000000000000000000000D9
:1029400000000000000050656E6453560000000057
:1029500000000000005379735469636B00000000AD
:1029600000000000444D4130000000000000000065
:10297000000000444D413100000000000000000054
:102980000000444D41320000000000000000000043
:1029900000444D4133000000000000000000000032
:1029A000444D4134000000000000000000000044DD
:1029B0004D41350000000000000000000000444DC3
:1029C00041360000000000000000000000444D41BE
:1029D000370000000000000000000000444D4138B6
:1029E0000000000000000000000000444D413900DC
:1029F00000000000000000000000444D41313000A4
:102A0000000000000000000000444D413131000092
:102A10000000000000000000444D41313200000081
:102A200000000000000000444D4131330000000070
:102A3000000000000000444D41313400000000005F
:102A40000000000000444D4131350000000000004E
:102A500000000000444D415F4572726F720000003B
:102A60000000004D434D0000000000000000000089
:102A700000004654464C000000000000000000002A
:102A800000526561645F436F6C6C6973696F6E00BF
:102A90004C56445F4C565700000000000000004CAC
:102AA0004C570000000000000000000000005761CB
:102AB000746368646F6700000000000000524E47B6
:102AC0000000000000000000000000004932433018
:102AD0000000000000000000000000493243310007
:102AE00000000000000000000000535049300000CA
:102AF00000000000000000000053504931000000B9
:102B000000000000000000005350493200000000A7
:102B10000000000000000043414E305F4F525F4D07
:102B2000425F6275660043414E305F4275735F4F8E
:102B3000666600000043414E305F4572726F72005E
:102B40000000000043414E305F54785F5761726E61
:102B5000696E6743414E305F52785F5761726E69AC
:102B60006E6743414E305F57616B655F5570000083
:102B700000526573657276656435310000000000AF
:102B8000526573657276656435320000000000435B
:102B9000414E315F4F525F4D425F62756600434167
:102BA0004E315F4275735F4F666600000043414ED1
:102BB000315F4572726F72000000000043414E3178
:102BC0005F54785F5761726E696E6743414E315F43
:102BD00052785F5761726E696E6743414E315F573D
:102BE000616B655F557000000052657365727665B4
:102BF00064353900000000005265736572766564C3
:102C00003630000000000055415254305F52585F8A
:102C100054580000000055415254305F4552520054
:102C2000000000000055415254315F52585F545823
:102C30000000000055415254315F455252000000DF
:102C400000000055415254325F52585F5458000002
:102C5000000055415254325F4552520000000000BE
:102C60000055415254335F52585F545800000000E1
:102C700055415254335F4552520000000000005548
:102C8000415254345F52585F54580000000055417F
:102C90005254345F4552520000000000005541522A
:102CA00054355F52585F545800000000554152544B
:102CB000355F45525200000000000041444330009F
:102CC000000000000000000000004144433100000B
:102CD000000000000000000000434D5030000000E4
:102CE0000000000000000000434D503100000000D3
:102CF00000000000000000434D50320000000000C2
:102D000000000000000046544D30000000000000AC
:102D1000000000000046544D31000000000000009B
:102D20000000000046544D3200000000000000008A
:102D3000000000434D5400000000000000000000AF
:102D4000000052544300000000000000000000009A
:102D500000526573657276656438330000000000C8
:102D600050495430000000000000000000000050F6
:102D700049543100000000000000000000005049EC
:102D800054320000000000000000000000504954D0
:102D900033000000000000000000000050444230FA
:102DA0000000000000000000000000555342300009
:102DB000000000000000000000005553424443445E
:102DC000000000000000000000454E45545F313512
:102DD00038385F54696D6572454E45545F54726171
:102DE0006E736D69740000454E45545F52656365AE
:102DF000697665000000454E45545F4572726F72FA
:102E000000000000004932533000000000000000C4
:102E10000000000053444843000000000000000090
:102E200000000044414330000000000000000000AA
:102E30000000444143310000000000000000000099
:102E40000054534930000000000000000000000062
:102E50004D43470000000000000000000000004C4F
:102E60005054696D6572000000000000000052655A
:102E700073657276656431303200000000504F5245
:102E8000544100000000000000000000504F525468
:102E90004200000000000000000000504F52544368
:102EA00000000000000000000000504F5254440099
:102EB000000000000000000000504F525445000088
:102EC00000000000000000005265736572766564C2
:102ED00031303800000000526573657276656431E8
:102EE00030390000000052657365727665643131D7
:102EF00030000000005265736572766564313131CF
:102F000000000000526573657276656431313200ED
:102F100000000052657365727665643131330000DC
:102F200000005265736572766564313134000000CB
:102F300000526573657276656431313500000000BA
:102F40005265736572766564313136000000005257
:102F50006573657276656431313700000000526533
:102F60007365727665643131380000000052657314
:102F700065727665643131390000000000800340DD
:102F80000090034000800B4000900B4000F00F4089
:102F900040F00F4080F00F40C0F00F4000F10F40B4
:102FA00066000A1D32000701640007106E00040667
:102FB000780004088200040A8C00040C9600040EB9
:102FC000A0000410AA000412B4000414BE000416E9
:102FD000C8000418D200041ADC00041CE100041D1F
:102FE000E600041EEB00041FF4000317FA000318A8
:102FF000130101062C01021400010908009004408D
:1030000000A0044000B0044000C0044000D00440D0
:1030100000C0024000D0024000C00A4000A00640AC
:1030200000B0064000C0064000D0064000A00E40A0
:1030300000B00E40000070420000F0410000184156
:1030400000003E430000C8426A6E6B6C676D4E4FD5
:103050003435363732331211810000003233121109
:103060008100000002040101B419FF1F041AFF1FB0
:10307000B419FF1FB419FF1FB419FF1FC50CFF1FA0
:10308000AC0CFF1F0000000000000000000000006A
:103090000000000000000000000000000000000030
:1030A0000000000008210122DFF8DC321A6000BFB6
:1030B0000022DFF8D8321A6000BF0A00511ED2B2D7
:1030C000002A15D0020604D50122DFF8C4321A60A6
:1030D00003E00022DFF8B8321A600122DFF8AC32D8
:1030E0001A6000BF0022DFF8A4321A604000E4E753
:1030F0007047000008210022DFF88C321A6000229D
:10310000DFF888321A600A00511ED2B2002A15D0A8
:10311000020604D50122DFF878321A6003E00022AB
:10312000DFF86C321A600122DFF860321A6000BFEB
:103130000022DFF858321A604000E4E7704738B5E3
:1031400004000D00B5F15000C0B2FFF7D3FFE4B2A8
:10315000200950F01000C0B2FFF7CCFF14F00F00B0
:10316000FFF7C8FF31BD70B5040000200500EDB2C7
:10317000082D17DAB5F15000C0B2FFF7BBFF0120F0
:10318000FFF7B8FF1020FFF7B5FF00200600F6B2EA
:10319000802E05DA2000C0B2FFF784FF761CF6E728
:1031A0006D1CE4E770BD002808D043F226421100F0
:1031B0000A00511E002AFBD1401EF4E7704780B57B
:1031C00000220121532000F00DFB0022012152209A
:1031D00000F008FB01220121512000F003FB002236
:1031E0000121502000F0FEFA0020DFF8E815086009
:1031F0003220FFF7D8FF0120DFF8D8150860AE2095
:10320000FFF778FF0020FFF775FF1020FFF772FF30
:103210004020FFF76FFF8120FFF76CFFCF20FFF703
:1032200069FFA120FFF766FFC820FFF763FFA62014
:10323000FFF760FFA820FFF75DFF3F20FFF75AFF71
:10324000D320FFF757FF0020FFF754FFD520FFF7EB
:1032500051FF8020FFF74EFFD920FFF74BFFF120F1
:10326000FFF748FFDA20FFF745FF1220FFF742FF84
:10327000DB20FFF73FFF4020FFF73CFF2020FFF758
:1032800039FF0220FFF736FF8D20FFF733FF1420B0
:10329000FFF730FFA420FFF72DFFA620FFF72AFF3E
:1032A000AF20FFF727FF0020FFF75DFF0021002080
:1032B000FFF745FF01BD2DE9F84304000D0016009E
:1032C00000275FF000085FF000095FFA89F919F83C
:1032D000060000282BD05FFA89F919F8060020387B
:1032E0000700E4B27F2C02DB002004006D1C2900E3
:1032F000C9B22000C0B2FFF722FF002080465FFA6B
:1033000088F8B8F1060F0EDADFF8CC04FFB2062118
:1033100001FB07005FFA88F818F80000FFF7C2FE0B
:1033200018F10108EBE7A41D19F10109CDE7BDE88B
:10333000F1832DE9F041040088461500002600279E
:10334000B5F120000600E4B27B2C03DB0020040072
:1033500018F101084146C9B22000C0B2FFF7EFFEE4
:1033600000200700FFB2062F0BDADFF86C04F6B27C
:10337000062101FB0600FFB2385CFFF793FE7F1CBD
:10338000F0E7BDE8F08100004C10FE434010FE4322
:103390004410FE432DE9F84F04000D0016001F00F5
:1033A0002E222900C9B22000C0B2FFF7C2FF4FF49D
:1033B0007A70B6FBF0F080464FF47A70B6FBF0F10D
:1033C00000FB11606421B0FBF1F081466420B6FB84
:1033D000F0F100FB11600A21B0FBF1F082460A20F7
:1033E000B6FBF0F100FB11608346FFB2012F06D05F
:1033F00068D3032F21D00CD3042F3CD062E01BF103
:103400003002D2B22900C9B2A01DC0B2FFF791FFAD
:1034100058E01AF13002D2B22900C9B2A01DC0B2E0
:10342000FFF787FF1BF13002D2B22900C9B214F1B5
:103430000C00C0B2FFF77DFF44E019F13002D2B2B8
:103440002900C9B2A01DC0B2FFF773FF1AF1300204
:10345000D2B22900C9B214F10C00C0B2FFF769FF63
:103460001BF13002D2B22900C9B214F11200C0B26D
:10347000FFF75FFF26E018F13002D2B22900C9B28F
:10348000A01DC0B2FFF755FF19F13002D2B22900DA
:10349000C9B214F10C00C0B2FFF74BFF1AF13002B1
:1034A000D2B22900C9B214F11200C0B2FFF741FF35
:1034B0001BF13002D2B22900C9B214F11800C0B217
:1034C000FFF737FFBDE8F18F2DE9F04F83B004001F
:1034D0008B4615001E0006275FF000082800FFF746
:1034E00063F981462800FFF75FF9FEF77FFF0100CF
:1034F0002800FEF7A7FFB949FFF796F8FFF754F940
:1035000082462800B649FEF78BFF07D22D22594686
:10351000C9B22000C0B2FFF70CFF06E02B225946CB
:10352000C9B22000C0B2FFF704FFB9F1000F01D506
:10353000D9F10009C84642F21070B8FBF0F08DF8DE
:10354000040042F21070B8FBF0F100FB11804FF460
:103550007A71B0FBF1F08DF803004FF47A70B8FB8C
:10356000F0F100FB11806421B0FBF1F08DF8020056
:103570006420B8FBF0F100FB11800A21B0FBF1F0F0
:103580008DF801000A20B8FBF0F100FB11808DF8E6
:1035900000009DF8040000283BD09DF8040010F1C5
:1035A0003002D2B25946C9B2A01DC0B2FFF7C1FE67
:1035B0009DF8030010F13002D2B25946C9B214F19D
:1035C0000C00C0B2FFF7B5FE9DF8020010F130020A
:1035D000D2B25946C9B214F11200C0B2FFF7A9FE27
:1035E0009DF8010010F13002D2B25946C9B214F16F
:1035F0001800C0B2FFF79DFE9DF8000010F13002E8
:10360000D2B25946C9B214F11E00C0B2FFF791FE02
:103610008AE09DF80300002831D0052007009DF8BE
:10362000030010F13002D2B25946C9B2A01DC0B297
:10363000FFF77FFE9DF8020010F13002D2B259462A
:10364000C9B214F10C00C0B2FFF773FE9DF801007F
:1036500010F13002D2B25946C9B214F11200C0B210
:10366000FFF767FE9DF8000010F13002D2B2594614
:10367000C9B214F11800C0B2FFF75BFE54E09DF828
:103680000200002825D0042007009DF8020010F158
:103690003002D2B25946C9B2A01DC0B2FFF749FEEE
:1036A0009DF8010010F13002D2B25946C9B214F1AE
:1036B0000C00C0B2FFF73DFE9DF8000010F1300293
:1036C000D2B25946C9B214F11200C0B2FFF731FEAE
:1036D0002AE09DF80100002819D0032007009DF87A
:1036E000010010F13002D2B25946C9B2A01DC0B2D9
:1036F000FFF71FFE9DF8000010F13002D2B25946CC
:10370000C9B214F10C00C0B2FFF713FE0CE00220A6
:1037100007009DF8000010F13002D2B25946C9B23C
:10372000A01DC0B2FFF705FEBAF1000F01D5DAF116
:10373000000AF6B2002E06D0022E17D004D3042EB3
:1037400036D024D342E041E03300DBB24FF47A704C
:103750009AFBF0F25946C9B2FFB2062000FB07F00F
:1037600050FA84F0C0B2FFF715FE2FE03300DBB251
:1037700064209AFBF0F25946C9B2FFB2062000FB62
:1037800007F050FA84F0C0B2FFF704FE1EE03300E9
:10379000DBB20A209AFBF0F25946C9B2FFB206200A
:1037A00000FB07F050FA84F0C0B2FFF7F3FD0DE024
:1037B0003300DBB252465946C9B2FFB2062000FBC5
:1037C00007F050FA84F0C0B2FFF7E4FDBDE8F78FD0
:1037D000000000004810FE43BC5D000000401C4695
:1037E00095BFD63370B504000D0016004FF48071FC
:1037F0002000C0B200F08AF86DB2002D11D141480E
:10380000E4B2611150F821003E49E4B2621151F86E
:1038100022104969012214F01F039A40914341612B
:1038200036E03848E4B2611150F821003549E4B27D
:10383000621151F822104969012214F01F039A40C5
:1038400011434161F6B2002E11D12E48E4B261114C
:1038500050F821000068012114F01F0291408843B4
:103860002849E4B2621151F82210086010E025489E
:10387000E4B2611150F821000068012114F01F0228
:10388000914008431F49E4B2621151F822100860C8
:1038900070BD10B504001B48E4B2611150F821005E
:1038A000406914F01F01C840C00703D47B211648AB
:1038B00000F099F81348E4B2611150F82100012199
:1038C00014F01F029140C16010BD10B504000D48F6
:1038D000E4B2611150F82100406914F01F01C840A2
:1038E000C00703D58C21084800F07DF80548E4B2F4
:1038F000611150F82100006914F01F01C84010F058
:10390000010010BDB00BFF1F5868000010B4294A19
:1039100012684FF40073C0B24409A3401A43254B08
:103920001A60254AC0B2431152F82320012310F037
:103930001F04A340C2F8A0301F4AC0B2431152F87E
:103940002320C0B210F01F0342F8231010BC7047B0
:1039500010B4184A12684FF40073C0B24409A3406F
:103960001A43144B1A60144AC0B2431152F8232070
:10397000012310F01F04A340C2F8A03031F4E0612D
:103980000D4AC0B2431152F82320C0B210F01F03F9
:1039900052F8232012F4E0621143074AC0B24311E7
:1039A00052F82320C0B210F01F0342F8231010BCBD
:1039B0007047000038800440200CFF1FDFF800F043
:1039C000F90CFF1FDFF800F01D0DFF1FBFF34F8F35
:1039D0004648006810F4E0604549084343490860E0
:1039E000BFF34F8FFEE738B504000D00002000F054
:1039F0008DF82A0021003F4800F0C0F8002000F0B8
:103A0000A2F84FF47A7000F0E6F8F2E738B5040057
:103A10000D00210049B2042000F000FA200032BD60
:103A200010B50024042000F025FA042000F058FA14
:103A3000002841D1002000F069F8042000F050FA7D
:103A4000012801D101200400002000F07CF82A4860
:103A500000F094F84FF4FA7000F0BDF8E4B2012CD5
:103A6000EBD1042000F03CFA0028E6D1042000F05D
:103A700037FA002806D1002000F065F8642000F035
:103A8000AAF8F3E7042000F02BFA012806D1002061
:103A900000F059F8322000F09EF8F3E7174800F0E4
:103AA0006DF8FFF78BFF642000F095F80020FFF71A
:103AB00089FFFFF78BFFC0E710BD10B51048046801
:103AC000012000F023F8012000F03DF80D48E4B299
:103AD0000F2101FB0402E4B221000B4800F04EF874
:103AE0004FF47A7000F077F8EDE700000CED00E09D
:103AF0000400FA05B86900006C6A0000EC69000077
:103B000004ED00E09804FF1F5469000010B50400A4
:103B100064B2042C07DA01220121174864B2205C48
:103B2000FFF760FE0EE0042004002000441E40B2B7
:103B3000002807D0012201210F4864B2205CFFF762
:103B400051FEF2E710BD10B5040064B2042C05DA92
:103B5000094864B2205CFFF79CFE0CE004200400DE
:103B60002000441E40B2002805D0034864B2205C07
:103B7000FFF78FFEF4E710BD740CFF1F0EB400B505
:103B800082B003A90091024600AB012103487844AA
:103B90000A30FCF741FC06BC5DF810FBAD2E0000BE
:103BA00010B50400002C15D0B4F1807F03D3292177
:103BB0000F48FFF718FF00200E4908600E48046008
:103BC00000200E49086005200A490860094800687D
:103BD000C003FBD510BD10B504002000441E002812
:103BE00004D007480068FFF7DBFFF6E710BD0000D0
:103BF0005467000010E000E014E000E018E000E08E
:103C0000A00FFF1F2DE9F84304000D0064B2002C43
:103C100008D0022C2CD018D3042C4FD03BD3052C29
:103C20005FD071E0DFF83402006850F48060DFF8A4
:103C30002C1208604FF440716620FFF767FE4FF4C6
:103C400040716720FFF762FE5EE0DFF81002006857
:103C500050F40060DFF8041208604FF44071432014
:103C6000FFF754FE4FF440714420FFF74FFE4BE046
:103C7000DFF8E801006850F48050DFF8E0110860D8
:103C80004FF440716320FFF741FE4FF44071622012
:103C9000FFF73CFE38E0DFF8C401006850F4005044
:103CA000DFF8B81108604FF440715020FFF72EFE86
:103CB0004FF440715120FFF729FE25E0DFF8A00105
:103CC000006850F48060DFF8981108604FF440718C
:103CD0009920FFF71BFE4FF440719820FFF716FE66
:103CE00012E0DFF87C01006850F40060DFF870112A
:103CF00008604FF440718920FFF708FE4FF44071CF
:103D00008820FFF703FEFFE7DFF8580164B250F8A0
:103D10002400C07810F0F300DFF8481164B251F8C5
:103D20002410C870DFF83C0164B250F82400807899
:103D3000DFF8301164B251F82410887064B2002C9E
:103D400002D064B2012C07D1DFF81C0100684FF4E7
:103D50007A714843814606E0DFF8100100684FF4AD
:103D60007A71484381462801B9FBF0F00600B6B2EB
:103D7000B6F5005F02DB41F6FF700600B9FBF5F017
:103D8000B6B2B0EB06100700BFB2202F03DBDC2178
:103D90003748FFF728FE334864B250F82400007813
:103DA00010F0E0008046B6B2300A10F01F0050EA72
:103DB00008002C4964B251F824100870294864B2F4
:103DC00050F824004670274864B250F82400807AE6
:103DD00010F0E000804617F01F0050EA080021496B
:103DE00064B251F8241088721E4864B250F824005E
:103DF000007C50F088001B4964B251F8241008740C
:103E0000184864B250F82400C07850F00C001549EE
:103E100064B251F82410C870BDE8F183114A40B271
:103E200052F8202012791206F8D50E4A40B252F804
:103E30002020D171704770B504000D0016003000CD
:103E4000461E002808D095F9001049B2200040B263
:103E5000FFF7E4FF6D1CF2E770BD00003480044002
:103E600028800440400CFF1FA00FFF1FA80FFF1F5A
:103E7000D868000010B5040064B2082C0DDA0022E6
:103E80000021224864B2205CFFF7ACFC03211F48EC
:103E900064B2205CFFF75CFD14E008200400200001
:103EA000441E40B200280DD000220021174864B201
:103EB000205CFFF797FC0321144864B2205CFFF7F5
:103EC00047FDECE710BD10B50400104864B2205C5B
:103ED000FFF7FBFC002801D1002000E0012010BD0D
:103EE00010B50400200040B2FFF7EDFF00280AD112
:103EF0000A20FFF770FE200040B2FFF7E4FF002821
:103F000001D1002000E0012010BD00006C0CFF1F5B
:103F100038B504000D0064B2002C06D0022C69D024
:103F20004CD3032C00F08280C7E0DFF8B8050068AE
:103F300050F08070DFF8AC1508606DB2002D0BD02A
:103F4000022D15D00ED3042D1ED017D3062D27D049
:103F500020D3072D2AD02FE04FF480614120FFF7B6
:103F6000D5FC2AE04FF440710420FFF7CFFC24E099
:103F70004FF440710520FFF7C9FC1EE04FF440717B
:103F80000620FFF7C3FC18E04FF480616420FFF7C0
:103F9000BDFC12E04FF480616520FFF7B7FC0CE038
:103FA0004FF480616620FFF7B1FC06E04FF48061BA
:103FB0006720FFF7ABFC00E07FE07EE0DFF8240540
:103FC000006850F00070DFF81C1508606DB2002D1D
:103FD00002D0012D06D00BE04FF440710C20FFF70A
:103FE00095FC06E04FF440710D20FFF78FFC00E0D8
:103FF00063E062E0DFF8F004006850F08070DFF802
:10400000E81408606DB2002D02D0012D06D00BE03F
:104010004FF440710A20FFF779FC06E04FF440713D
:104020000B20FFF773FC00E047E046E0DFF8B80440
:10403000006850F00070DFF8B01408606DB2002D19
:104040000BD0022D15D00ED3042D1ED017D3062D64
:1040500027D020D3072D2AD02EE04FF4C061852031
:10406000FFF754FC28E04FF4C0618620FFF74EFCB8
:1040700022E04FF4C0618720FFF748FC1CE04FF4BA
:10408000C0618820FFF742FC16E04FF4C061892030
:10409000FFF73CFC10E04FF4C0618A20FFF736FCCC
:1040A0000AE04FF4C0618B20FFF730FC04E04FF4CE
:1040B000C0618C20FFF72AFCFFE731BD2DE9F84FE6
:1040C00004000D0016001F0064B2002C11D064B271
:1040D000012C02D064B2022C02D16DB2022D08DB99
:1040E00064B2032C05D040F28511DFF80004FFF71D
:1040F0007AFC290049B2200040B2FFF709FFDFF83F
:10410000F00300684FF47A71484380465FEA184034
:10411000B0FBF6F08146002082461FFA89F959FA71
:104120000AF0012802DB1AF1010AF6E75FFA8AFABF
:10413000BAF1080F05DB4FF4D071DFF8B003FFF7D9
:1041400052FC38FA0AF0B0FBF6F081461FFA89F902
:10415000DFF8A00364B240F8249064B2002C05D0CC
:10416000022C1AD00ED3032C23D02EE01FFA89F98B
:1041700019F1010000FB07F042F21071B0FBF1F001
:10418000834622E01FFA89F919F1010000FB07F0CC
:104190006421B0FBF1F0834617E01FFA89F919F1A9
:1041A000010000FB07F04FF47A71B0FBF1F0834699
:1041B0000BE01FFA89F919F1010000FB07F042F248
:1041C0001071B0FBF1F08346FFE7DFF82C0364B217
:1041D00050F824006DB210EBC500DFF81C1364B278
:1041E00051F824106DB211EBC501C96831F004011A
:1041F000C160DFF8040364B250F824006DB210EB24
:10420000C5002821C1605FFA8AFA1AF0070050F051
:104210000800DFF8E41264B251F8241008601FFAB5
:1042200089F9DFF8D40264B250F82400C0F808908D
:104230000020DFF8C41264B251F82410C864DFF81B
:10424000B80264B250F824006DB210EBC5001FFA3A
:104250008BFBC0F810B00020DFF89C1264B251F85C
:1042600024104860BDE8F18F2DE9F04104000D00F5
:1042700016005FF0000864B2002C11D064B2012C6B
:1042800002D064B2022C02D16DB2022D08DB64B2FE
:10429000032C05D04FF4F371DFF85002FFF7A3FBB6
:1042A00064B2002C05D0022C17D00DD3032C1ED0E5
:1042B00028E042F21170864205D34FF4F671DFF820
:1042C0002C02FFF790FB1DE0652E05D34FF4F8712B
:1042D000DFF81802FFF787FB14E0B6F57A7F05D9FF
:1042E0004FF4FA71DFF80402FFF77DFB0AE042F2B7
:1042F0001170864205D340F2F911DFF8F001FFF7A3
:1043000072FBFFE7DFF8EC0164B250F8240080464E
:1043100064B2002C05D0022C16D00CD3032C1DD077
:1043200026E018F1010000FB06F042F21071B0FB2C
:10433000F1F007001CE018F1010000FB06F0642119
:10434000B0FBF1F0070013E018F1010000FB06F0EC
:104350004FF47A71B0FBF1F0070009E018F10100A9
:1043600000FB06F042F21071B0FBF1F00700FFE72E
:10437000DFF8840164B250F824006DB210EBC50080
:104380000761BDE8F08110B5040064B2012C07D0CC
:1043900064B2022C04D040F2DB215448FFF723FB27
:1043A00064B22000012802D0022811D021E04D483B
:1043B000006850F000704B4908604FF4C061202045
:1043C000FFF7A4FA4FF4C0612120FFF79FFA15E030
:1043D0004548006850F08070434908604FF4C06160
:1043E0003220FFF793FA4FF4C0610B20FFF78EFAEB
:1043F00004E040F213313D48FFF7F5FA3E4864B25D
:1044000050F82400406D50F004003B4964B251F86C
:1044100024104865384864B250F82400D0F8800071
:1044200050F00800344964B251F82410C1F88000FB
:104430000020314964B251F82410C8644FF6FF706F
:104440002D4964B251F8241088602B4864B250F8AA
:104450002400D0F8800050F00100274964B251F8E0
:104460002410C1F88000244864B250F82400406D44
:1044700050F00100204964B251F824104865002032
:104480001D4964B251F82410486010BD38B50400CD
:1044900064B2012C07D064B2022C04D04FF44C71EA
:1044A0001248FFF7A0FA144864B250F8240040689C
:1044B0000500280000B232BD10B5040064B2012C22
:1044C00007D064B2022C04D040F23E310748FFF717
:1044D0008AFA0020084964B251F82410486010BDDF
:1044E000000000003C800440308004401868000058
:1044F000A80FFF1FF80EFF1FA00BFF1F80B50023A2
:1045000041F2707204210020FFF7D8FD002341F230
:10451000707205210020FFF7D1FD01BD80B5002399
:104520004FF4967200210220FFF7C8FD01BD80B54F
:10453000012200214320FFF755F9012200214420E8
:10454000FFF750F9012200214520FFF74BF9012226
:1045500000214720FFF746F903214320FFF7F8F930
:1045600003214420FFF7F4F903214520FFF7F0F978
:1045700003214720FFF7ECF9002200213220FFF74A
:1045800031F9002200213320FFF72CF9002200210D
:104590003420FFF727F9002200213520FFF722F908
:1045A000002200213620FFF71DF9002200213720CC
:1045B000FFF718F903213220FFF7CAF9032133204E
:1045C000FFF7C6F903213420FFF7C2F90321352094
:1045D000FFF7BEF903213620FFF7BAF90321372090
:1045E000FFF7B6F9012201218A20FFF7FBF801222B
:1045F00001218C20FFF7F6F801BD80B500F0D2F95B
:10460000002200210B20FFF7EDF8C6490B20FFF731
:104610007DF901BD80B52A2000F01AFA2B2000F0A8
:1046200017FA2C2000F014FA2D2000F011FA2E2099
:1046300000F00EFA2F2000F00BFA0020BA490870A3
:10464000B9480078062822DA0020B849B64A12781C
:1046500050540020B549B44A12785118887100208E
:10466000B249B14A1278511808730020AF49AE4AD6
:104670001278511888740020AC49AB4A127851184E
:104680000876A9480078401CA7490870D8E701BD02
:1046900010B5A7480078012840F0B68001231C001F
:1046A000A2488079FDF7ACFE020023000021002023
:1046B000FEF70AFF01231C009C480078FDF7A0FECE
:1046C0000200230000212D20FEF7FEFE01231C0026
:1046D0009648007BFDF794FE0200230000215A203B
:1046E000FEF7F2FE934A01210020FEF7E4FD0123CC
:1046F0001C0091480088FDF783FE02002300012181
:104700002320FEF7E1FE8D4A02210020FEF7D3FDB3
:1047100001238B48026802211920FEF7D5FE894A41
:1047200003210020FEF7C7FD01231C008648B0F9D5
:104730000000FDF75BFE0200230003211920FEF7B5
:10474000C3FE824A03214120FEF7B5FD01238048C4
:10475000026803215F20FEF7B7FE7E4A0421002095
:10476000FEF7A9FD01231C007B48B0F90000FDF70E
:104770003DFE0200230004211920FEF7A5FE67A2DA
:1047800004214620FEF797FD01231C007348B0F971
:104790000000FDF72BFE0200230004215A20FEF743
:1047A00093FE6F4A05210020FEF785FD02236D4828
:1047B000026805212320FEF787FE6B4A06210020B0
:1047C000FEF779FD01236948026806212820FEF7DB
:1047D0007BFE01236648026806215020FEF774FE26
:1047E000644A07210020FEF766FD01236248026843
:1047F00007212820FEF768FE012360480268072190
:104800005020FEF761FE36E049480078022832D198
:104810005B4A00210020FEF74EFD01231C00594891
:104820000078FDF7EDFD0200230000211E20FEF7B9
:104830004BFE3BA201210020FEF73DFD01231C00A1
:1048400051480078FDF7DCFD0200230001211E2005
:10485000FEF73AFE4D4A02210020FEF72CFD01230F
:104860001C004B480078FDF7CBFD0200230002211D
:104870001E20FEF729FE47480068002811D10020BD
:10488000FEF771FC2A480078401C29490870284826
:104890000078032802DB012025490870C820FFF7B3
:1048A0009AF910BD80B521488079FDF7A9FD3A49F4
:1048B00008601E480078FDF7A3FD374948601B4893
:1048C000007BFDF79DFD344988601D480168334831
:1048D000FDF7AAFE3049C8601D4801683048FDF761
:1048E000A3FE2D4908611C48B0F90000FDF77EFDCC
:1048F000294948611D4801682948FDF795FE264968
:1049000088611148B0F90000FDF770FD2249C861C7
:104910002021214800F034FA01BD000053703A0014
:1049200072753A0003010B00171AFF1F1C0FFF1FBF
:104930001004FF1F8C6A0000061AFF1F946A000013
:10494000780FFF1F9C6A00000E1AFF1FA46A000068
:10495000740FFF1FAC6A00000A1AFF1F0C1AFF1F1A
:10496000B46A0000700FFF1FBC6A0000600CFF1FDC
:10497000640CFF1FC46A0000580CFF1F5C0CFF1F73
:10498000CC6A0000141AFF1F151AFF1FD46A00001A
:10499000161AFF1F0C12FE43B80EFF1F0000204125
:1049A0000000C8422448006850F400002249086012
:1049B0000020224908605FF0FF302149086021484B
:1049C000006850F001001F490860704738B50400C6
:1049D0000D00002D03D12C211B48FFF704F81648C9
:1049E000006850F400001449086000201349086072
:1049F000681E164964B222015050144864B210EB8C
:104A00000410C06850F00100104964B211EB0411A9
:104A1000C8600E4864B210EB041080684008400083
:104A20000A4964B211EB041188600320074964B29B
:104A300011EB0411886031BD3C80044000700340DC
:104A4000107103401C71034098680000007103401E
:104A500038B5040064B26511EDB2002D02D0012D0D
:104A600011D021E0C148006850F00060BF490860E3
:104A7000BF48006830F09000BD490860BC4800683D
:104A8000BB49086014E0BB48006850F00060B949B9
:104A90000860B748006830F41040B5490860B44871
:104AA0000068B349086003E03321B348FEF79BFF79
:104AB00064B22000002800F08980012800F0868080
:104AC000032800F0838008284ED0092851D00A28F6
:104AD00054D00B2857D00C285AD00D285DD00E2862
:104AE00060D00F2863D0102870D0112864D012280D
:104AF00067D013286AD0142868D01A2866D01D28D9
:104B000064D01E2862D0202861D021285FD02328BD
:104B10005DD024285CD025285FD0262862D02728A5
:104B200065D0282868D029286BD02A286ED02B2859
:104B300071D02C2874D02D2877D02E287AD02F2809
:104B40007DD0302800F0858031287DD0322800F0DB
:104B5000808033287DD034287BD03A2879D03D28F6
:104B600077D03E2875D075E000212020FEF7CEFEDC
:104B700074E000212120FEF7C9FE6FE0002107202C
:104B8000FEF7C4FE6AE000210820FEF7BFFE65E0E4
:104B900000212220FEF7BAFE60E000212320FEF76C
:104BA000B5FE5BE000214020FEF7B0FE56E000219C
:104BB0004120FEF7ABFE51E000219820FEF7A6FE53
:104BC0004CE000219920FEF7A1FE47E046E045E0D9
:104BD00000218020FEF79AFE40E000218120FEF7B0
:104BE00095FE3BE000218220FEF790FE36E000219A
:104BF0008320FEF78BFE31E000212020FEF786FEA9
:104C00002CE000212120FEF781FE27E00021242056
:104C1000FEF77CFE22E000212520FEF777FE1DE056
:104C200000212620FEF772FE18E000212720FEF763
:104C30006DFE13E000212A20FEF768FE0EE0002141
:104C40002B20FEF763FE09E000211120FEF75EFE37
:104C500004E003E09A214848FEF7C5FE31BDF8B5EF
:104C600004000D0064B266110027290049B220003B
:104C700040B200F059F8414876B250F8260000687A
:104C80000006F8D53D4876B250F8260000690700C6
:104C90003A4876B250F82600006830F08000374974
:104CA00076B251F826100860380080B2F2BD2DE9C6
:104CB000F84F04000D0016005FF000085FF0000AD6
:104CC0004FF0FF0B002007003000C0B2BFB280B22F
:104CD000874218D2290049B2200040B2FFF7BFFF37
:104CE000814658FA89F85FFA8AFA5FFA89F9CA4563
:104CF00000D2CA465FFA89F95FFA8BFBD94500D228
:104D0000CB467F1CE0E75FFA8BFBB8EB0B005FFA4A
:104D10008AFAB0EB0A081FFA88F8F6B2B01E98FBC0
:104D2000F0F080B2BDE8F28F30B440B2421110F022
:104D30001F0349B28C0014F00C0454F050040F4DC2
:104D400052B255F82250AC6004240C4D52B255F8C2
:104D50002250EC60DBB213F01F0454F04004074D06
:104D600052B255F822502C6030BC70473C80044051
:104D70001880044030800440986700009004FF1FB2
:104D800038B504000D000C480088ADF802000B484F
:104D90000088ADF8000002220DF102010420FFF7A7
:104DA0004AF82A0021000420FFF745F8022200A952
:104DB0000420FFF740F831BD1A190000061A000060
:104DC00038B50520DFF8A0130870DFF89C030078E1
:104DD00000284DD0DFF89403DFF88C130978081809
:104DE00010F8010CDFF88413DFF87C23127850549C
:104DF000DFF87803DFF87013097808184079DFF8D6
:104E00006C13DFF86423127851188871DFF85C03A3
:104E1000DFF8541309780818C07ADFF85013DFF868
:104E20004823127851180873DFF84003DFF838136D
:104E300009780818407CDFF83413DFF82C23127847
:104E400051188874DFF82403DFF81C130978081858
:104E5000C07DDFF81813DFF8102312785118087698
:104E6000DFF804030078401EDFF8FC120870ACE79E
:104E70000F2200212A20FFF71AFFBC4988710F2258
:104E800000212B20FFF713FFB84908700F220021E3
:104E90002D20FFF70CFFB54908730A2200210D20D1
:104EA000FFF705FFFCF72CFCB14AB24BFCF7FCF90D
:104EB00000F09AF9B0490860AC480078FCF720FC93
:104EC0005FF06632AD4BFCF7EFF904000D00A74828
:104ED0004078FCF715FCAA4AAA4BFCF7E5F922003A
:104EE0002B00FCF71BFD04000D00A0488078FCF7A8
:104EF00007FCA34AA44BFCF7D7F922002B00FCF7D0
:104F00000DFDFCF7C7FB99490870984880790A287D
:104F100002DA0A2095498871944800780A2802DA52
:104F20000A20924908709148007B0A2802DA0A2078
:104F30008E49087331BD2DE9F0418C488079804657
:104F40008A48007807008948007B0600BFB2652FB9
:104F500003DB00208D4908601BE0BFB23800FCF77E
:104F6000CFFB00228A4BFCF79FF904000D00894813
:104F7000006800F081F902000B0020002900FCF716
:104F800065FA0022844BFCF7C9FC00F02DF97F493B
:104F900008607E4840680021FDF7F4FB02D27B48A0
:104FA000406803E07948406890F000407B49FDF795
:104FB000E9FB13D8754840680021FDF7E3FB09D2EF
:104FC0007248006890F00040704908600120744900
:104FD000087011E00020724908700DE01FFA88F88F
:104FE000B6B2B04508D26948006890F00040674901
:104FF000086001206A490870BDE8F08110B5634877
:10500000006862494968FDF71DFA6649086065480D
:1050100000686549FDF7B6FB03D86448614908603C
:1050200008E0604800686249FDF7FAF902D260487A
:105030005C490860554841685A480068FDF760FBC4
:1050400052490860514880685049C8604F484068DC
:105050004E4988604D4800684C494860554856495B
:1050600008605648564908604E4801685548FDF7A3
:10507000DBFA0021FDF786FB06D24A480168514859
:10508000FDF7D2FA040005E0464801684E48FDF7F6
:10509000CBFA04003D4801684C48FDF7C5FA0021F1
:1050A000FDF770FB05D2394801684848FDF7BCFAA6
:1050B00004E0364801684648FDF7B6FA2100FCF7DF
:1050C000A3FC00F0D9F80022424BFCF7BFF900F036
:1050D0008BF841490860404801682C480068FDF79A
:1050E000A3FA04003D4801682E480068FDF79CFAC9
:1050F0002100FDF705FBFDF757FB10F5DD70384982
:1051000008803548016821480068FDF78DFA0400E1
:105110003248016823480068FDF786FA2100FDF750
:10512000EFFAFDF741FB2F4908802D48B0F9000048
:10513000B0F5077F04DD4FF407702949088009E0C6
:105140002748B0F90000B0F5AC7F03DC40F25910FD
:10515000234908802248B0F9002000210220FFF7EF
:1051600083F810BD00000000171AFF1F1C0FFF1F5F
:10517000367C037A7EA4A43F700FFF1F6666E63F6D
:105180009A9999999999C93F9999B93F780FFF1FB1
:1051900000002E40680CFF1F00002EC00000E04001
:1051A000181AFF1F740FFF1F6766263F6666263FAB
:1051B000666626BF2404FF1F5404FF1F4404FF1F1C
:1051C0005804FF1F0000C8420000C8C20000204170
:1051D000000020C100005940600CFF1F640CFF1F3D
:1051E000101AFF1F0E1AFF1F4FEAF17CBCF1E04CB2
:1051F0002CBFBCF5001F11E05FEA4C0C34BFBCF1C2
:105200007F5F2EE05FEA9C0C4FEA0C1C4FEA3C0CDF
:10521000C10071F100414CEB50707047C90241EA86
:105220005051C00218BF41F0010141F000414FEA66
:105230006C50C0F10900212810D240EACC7CCCF19E
:10524000200C11FA0CF070F10040CCF1200C21FA86
:105250000CF00CF0004C40EB0C0070474FEACC70A7
:105260007047490011F5001F04D84FEACC10FF30F9
:10527000C0057047C81770475FF0FF0C1CEAD0519B
:1052800014BF614506E0C110400721F0E04101F183
:105290006051704779B900F0004100020AD0B0FABD
:1052A00080FC00FA0CF001F16051A1EB0C5101EB14
:1052B000D0214005704741020CBF40F4E0016FF07F
:1052C0000001002070470000DFF800F0690EFF1FAA
:1052D000DFF8B41340B231F8201040B20128C0F218
:1052E000798140B2162880F275810022DFF89C3364
:1052F0001A7089B24C2904DA0022DFF890335A7010
:105300007EE089B2972904DA0122DFF880335A70EF
:1053100076E089B2E22904DA0222DFF870335A70AB
:105320006EE089B2B1F5967F04DC0322DFF85C33CE
:105330005A7065E089B2B1F5BC7F04DA0422DFF867
:105340004C335A705CE089B2B1F5E17F04DC052290
:10535000DFF838335A7053E089B240F20E2291429E
:1053600004DA0622DFF824335A7049E089B2B1F535
:10537000167F04DC0722DFF814335A7040E089B24C
:10538000B1F5297F04DA0822DFF800335A7037E0DC
:1053900089B240F2EF22914204DA0922DFF8EC32BE
:1053A0005A702DE089B240F23A32914203DA0A2271
:1053B000B64B5A7024E089B2B1F5617F03DC0B2251
:1053C000B24B5A701CE089B2B1F5747F03DA0C223B
:1053D000AE4B5A7014E089B240F21B42914203DA9C
:1053E0000D22AA4B5A700BE089B240F266429142FC
:1053F00003DA0E22A54B5A7002E00F22A34B5A701B
:1054000089B2332903DA0022A04B9A7071E089B285
:10541000652903DA01229D4B9A706AE089B29729C7
:1054200003DA0222994B9A7063E089B2C92903DA40
:105430000322964B9A705CE089B2FB2903DA0422BE
:10544000924B9A7055E089B2B1F5967F03DC052244
:105450008E4B9A704DE089B2B1F5AF7F03DC062226
:105460008A4B9A7045E089B2B1F5C87F03DC072208
:10547000864B9A703DE089B2B1F5E17F03DC0822EA
:10548000824B9A7035E089B2B1F5FA7F03DC0922CC
:105490007E4B9A702DE089B240F22722914203DAC6
:1054A0000A227A4B9A7024E089B2B1F5167F03DCA8
:1054B0000B22764B9A701CE089B240F28B2291420B
:1054C00003DA0C22714B9A7013E089B2B1F52F7F89
:1054D00003DC0D226D4B9A700BE089B240F2EF2293
:1054E000914203DA0E22694B9A7002E00F22674B59
:1054F0009A7089B21A2903DA0022644BDA7069E0E3
:1055000089B2332903DA0122604BDA7062E089B292
:105510004C2903DA02225D4BDA705BE089B265291F
:1055200003DA0322594BDA7054E089B27E2903DA98
:105530000422564BDA704DE089B2972903DA05222E
:10554000524BDA7046E089B2B02903DA06224F4B9B
:10555000DA703FE089B2C92903DA07224B4BDA70CF
:1055600038E089B2E22903DA0822484BDA7031E0E8
:1055700089B2FB2903DA0922444BDA702AE089B2A6
:10558000B1F58A7F03DA0A22404BDA7022E089B251
:10559000B1F5967F03DC0B223C4BDA701AE089B23E
:1055A000B1F5A37F03DA0C22384BDA7012E089B22E
:1055B000B1F5AF7F03DC0D22344BDA700AE089B21B
:1055C000B1F5BC7F03DA0E22304BDA7002E00F2215
:1055D0002E4BDA70704710B50400200040B2FFF780
:1055E00077FE2B48007810F0FD0029490870284804
:1055F000007850F0100026490870B820254908703E
:1056000025480078C006FBD423480078C0F3810009
:10561000C0B20228F8D11D48C3781C4882781B48C4
:1056200041781A480078FFF74FFE174864B210EB34
:105630008400807810F0070018490870124864B29E
:1056400010EB8400C07810F01F0050F040001449A7
:105650000870114800788006FBD50F480078400696
:10566000FBD50C48007810F03F000A4908700A4842
:105670000078C0F38100C0B20328F8D1024864B2B8
:1056800030F82400C0B210BDC40BFF1F1C0CFF1F5C
:1056900001400640004006400640064004400640E7
:1056A0000540064030B583B004000D008DF804407D
:1056B0008DF805500220009001AB01AA01210120C4
:1056C00000F084F99DF804003EBD30B583B00400BD
:1056D0000D008DF804400220009001AB01AA0121C9
:1056E000012000F073F99DF8050028709DF8040072
:1056F0003EBD31B584B00C00150003950120029029
:1057000000200190009404AB04AA0121012000F0C4
:10571000E5F99DF8100005B030BD31B584B00C003E
:10572000150003950120029001940020009004AB25
:1057300004AA0121012000F0D1F99DF8100005B064
:1057400030BD80B50020DFF858120860012121200B
:10575000FFF7A8FF01212220FFF7A4FF0522DFF8B1
:1057600044122A20FFF7C5FF0F212020FFF79AFFE0
:10577000FF212720FFF796FFFF21E220FFF792FF8E
:105780000120DFF81C1208600220DFF820120870E8
:1057900001BD80B50020DFF8081208600522DFF89F
:1057A00008123020FFF7A5FF05227E492A20FFF7C7
:1057B000A0FF0E212020FFF775FF01207849086027
:1057C00001207A49087040F6FF7000900098411E51
:1057D00000910028FAD101BDF8B504000D000026A3
:1057E0007348007800285AD0002D58D0202D28D298
:1057F0002A0070487049097810EB4111200000F030
:105800009FFA0020664908606B480078401C6A498E
:10581000087069480078502802DB0020664908704B
:1058200066480078070064480078FFB2B84202D1A9
:1058300000205F490870012059490860AE19300006
:105840002EE020225B485C49097810EB41112000D2
:1058500000F076FA2034203D2036002050490860C0
:1058600055480078401C5449087053480078502827
:1058700002DB0020504908705048007807004E486D
:105880000078FFB2B84203D100204949087002E015
:10589000012047490870012041490860A0E7300015
:1058A000F2BD10B582B000A90720FFF70EFF9DF8EA
:1058B00000102720FFF7F6FE9DF80000400632D5C5
:1058C0000020374908603A480078022824D0202276
:1058D00038483A49097810EB41116120FFF71DFF64
:1058E00036480078401C3549087034480078502804
:1058F00002DB0020314908702F48007804002F484F
:105900000078E4B2A04203D102202949087007E0E0
:1059100001202749087003E0FF21E220FFF7C2FEC3
:1059200001201F4908609DF80000800623D5264805
:105930000068002803D10020224908601BE01B48B2
:105940000078012801D0FFF724FF1E4800682030AE
:105950001C4908601C480068401E1B490860002064
:105960000F490860202217480168A020FFF7C1FEF8
:1059700001200B4908609DF80000C0060ED50120EB
:105980000F490870FF21E120FFF78CFE00200D4930
:10599000086000200C490860FFF7D3FE13BD00002B
:1059A0001420FE43800CFF1F780CFF1F191AFF1FE5
:1059B0001C1AFF1FAC0FFF1F1A1AFF1F1B1AFF1F15
:1059C0001D1AFF1FAC19FF1FB019FF1FF0B4049C74
:1059D0000025C64EC44F40B257F82070FE62C24E3A
:1059E00040B256F82060366856F44066BE4F40B26A
:1059F00057F820703E60BC4E40B256F82060F66A00
:105A0000B603E6D400263500661EB5422FD249B251
:105A10000E0416F47C16AF5C3E4356F00046B24FBF
:105A200040B257F820707E63AF4E40B256F8206007
:105A3000F66AB603F8D5002B06D0AB4E40B256F846
:105A40002060B66BEE5404E0A74E40B256F82060DA
:105A5000B66BA54E40B256F82060F66A56F4003692
:105A6000A14F40B257F82070FE626D1CCCE749B2DE
:105A70000E0416F47C16AF5C3E4356F000669A4F57
:105A800040B257F820707E63974E40B256F82060BF
:105A9000F66AF600F8D5944E40B256F82060F66AE1
:105AA000B603F8D5002B06D08F4E40B256F82060D2
:105AB000B66BEE5404E08C4E40B256F82060B66BE4
:105AC000894E40B256F82060F66A56F40036864F8A
:105AD00040B257F82070FE62F0BC70472DE9F041EB
:105AE000069C079D089E099F5FF0000CDFF8FCE113
:105AF000DFF8F48140B258F82080C8F82CE0DFF8D5
:105B0000E8E140B25EF820E0DEF800E05EF4406ECE
:105B1000DFF8D48140B258F82080C8F800E0DFF800
:105B2000C8E140B25EF820E0DEF82CE05FEA8E3E8D
:105B3000DCD45FF0000EF446B44541D249B25FEACE
:105B4000014E1EF47C1E1CF8028058EA0E0E5EF018
:105B5000004EDFF8948140B258F82080C8F834E055
:105B6000DFF884E140B25EF820E0DEF82CE05FEA86
:105B70008E3EF5D5002B09D0DFF86CE140B25EF81F
:105B800020E0DEF838E00CF803E006E0DFF858E14A
:105B900040B25EF820E0DEF838E0DFF84CE140B2D9
:105BA0005EF820E0DEF82CE05EF4003EDFF838819D
:105BB00040B258F82080C8F82CE01CF1010CBBE77B
:105BC0005FF0000EF446B7F1010EF44541D249B240
:105BD0005FEA014E1EF47C1E1CF8048058EA0E0E8B
:105BE0005EF0004EDFF8008140B258F82080C8F81F
:105BF00034E0DFF8F4E040B25EF820E0DEF82CE0BC
:105C00005FEA8E3EF5D5002D09D0DFF8DCE040B22A
:105C10005EF820E0DEF838E00CF805E006E0DFF89A
:105C2000C8E040B25EF820E0DEF838E0DFF8B8E027
:105C300040B25EF820E0DEF82CE05EF4003EDFF8D3
:105C4000A88040B258F82080C8F82CE01CF1010C64
:105C5000B9E749B25FEA014E1EF47C1E1CF80480CD
:105C600058EA0E0E5EF0006EDFF87C8040B258F805
:105C70002080C8F834E0DFF870E040B25EF820E041
:105C8000DEF82CE05FEACE0EF5D5DFF85CE040B23E
:105C90005EF820E0DEF82CE05FEA8E3EF5D5002DC0
:105CA00009D0DFF844E040B25EF820E0DEF838E0EA
:105CB0000CF805E006E0DFF830E040B25EF820E0E6
:105CC000DEF838E0DFF820E040B25EF820E0DEF8F1
:105CD0002CE05EF4003EDFF8108040B258F82080DF
:105CE000C8F82CE0BDE8F081340CFF1F00000A1A50
:105CF00010B504004FF4007094FBF0F101FB10416B
:105D0000002903D01E210B48FDF76DFE0A480460F0
:105D100010BD38B504000D000748006807498842E7
:105D200003D030210348FDF75EFE044864B240F81A
:105D3000245031BD1869000008ED00E00000FF1F8D
:105D400030B4002A38D0D41DE40823000824B2FB64
:105D5000F4F505FB1425002D0BD0022D21D024D302
:105D6000042D16D019D3062D0BD00ED3072D04D039
:105D700022E00C780470491C401C0C780470491C0B
:105D8000401C0C780470491C401C0C780470491CA1
:105D9000401C0C780470491C401C0C780470491C91
:105DA000401C0C780470491C401C0C780470491C81
:105DB000401C5B1E002BDCD130BC70470000000093
:105DC00000000000002F0000000007000700001482
:105DD0007F147F1400242A7F2A1200626408132390
:105DE00000364955225000000503000000001C2227
:105DF0004100000041221C000014083E0814000865
:105E0000083E0808000000A0600000080808080814
:105E1000000060600000002010080402003E5149AC
:105E2000453E0000427F400000426151494600214A
:105E300041454B31001814127F1000274545453964
:105E4000003C4A49493000017109050300364949BF
:105E5000493600064949291E000036360000000078
:105E600056360000000814224100001414141414C3
:105E7000000041221408000201510906003249596C
:105E8000513E007C1211127C007F49494936003E88
