:10000000F8FF002011040000DF410000DF41000084
:10001000DF410000DF410000DF410000DF41000060
:10002000DF410000DF410000DF410000DF41000050
:10003000DF410000DF410000DF410000DF41000040
:10004000DF410000DF410000DF410000DF41000030
:10040000FFFFFFFFFFFFFFFFFFFFFFFFFEFFFFFFFD
:1004100062B606F0F9FDFEE72DE9F04FA1B0824685
:10042000002017461D4602910B900DF1440B6FF012
:1004300000490AE017F8011B0298D04702900028F3
:1004400000F0A2820B98401C0B90387808B90B98EA
:100450009CE22528EED10020059006900790089098
:1004600009900A9001E040F0010017F8011F2029CF
:10047000F9D023290DD02B2904D02D2906D03029DD
:100480000AD00CE040F0020080B2EEE740F0040039
:10049000FAE740F00800F7E740F01000F4E72A29F7
:1004A0000ED12968296051F8042B2960002A0D9289
:1004B00004D5514240F004000D9180B27F1C11E040
:1004C00000210D9109E00D99494505D001EB81030B
:1004D00002EB430130390D917F1C3A78A2F13001D3
:1004E0000A29F0D339782E2903D04FF0FF310C912F
:1004F0001DE017F8011F2A2907D1296829607F1CF0
:1005000051F8042B29600C9211E000210C9109E0B4
:100510000C99494505D001EB810302EB43013039C9
:100520000C917F1C3A78A2F130010A29F0D3ADF882
:1005300038000FF6B820397800F076FD08B117F8CA
:10054000010B8DF83A009DF83A00682802BF39780F
:100550006829622005D06C2804BF38786C2803D144
:1005600071208DF83A007F1C11A8049017F8014BF8
:10057000B4F1250024D02038022840F2C580133879
:1005800000F0EB800B3800F04F81401E00F024811A
:10059000401E022840F2B880001F00F01D81401F5D
:1005A00000F08380401E00F0D880401E29D0C01E7D
:1005B0000CD0801E00F0D180C01E00F0CE803DE146
:1005C0000120059025208DF8440043E1286828602B
:1005D00050F8044B28600394DDF83080B8F1000F28
:1005E00004D5204600F02CFD804607E0424600215D
:1005F000204600F041FD08B1A0EB0408CDF81880BA
:1006000028E1296829604FF03C0851F8040B296063
:100610000021CDE9000111A80390DDE90001049C4F
:1006200011B908B90C9AC2B10206120FA0EB02125E
:100630003032D2B23A2AA8BF27320009A8F101030A
:1006400040EA017009091A5508BF0028984604D0ED
:10065000039A08EB04039A42E6D308EB04000390E4
:10066000C8F13C010C980691814209DA401A0890C1
:100670004FF6EF71BDF838000840ADF83800E9E0FA
:10068000002840F1E7809DF8380000F014001028A1
:1006900040F0E0800D98059A801A089A801A401A56
:1006A0000128C0F2D7800890D4E09DF83A00622873
:1006B0001AD0682806D06A280CD06C281CD0712863
:1006C00008D019E02868286050F8041B28600B98AF
:1006D0000880BFE02868286050F8042B28600B9839
:1006E000C117C2E90001B5E02868286050F8041B72
:1006F00028600B980870ADE02868286050F8041B4B
:1007000028600B980860A5E02868C01D20F007024B
:100710002A60D2E9000108322A60CDE900010029EF
:1007200003D5012005902D200CE0BDF8380081078D
:1007300003D5012005902B2004E0C00704D501203B
:10074000059020208DF84400059911A80818039001
:10075000214600A800F0D8F97CE09DF83A206C2AE8
:100760000DD0712A18BF6A2A09D12868C01D20F04F
:1007700007032B60D3E9000108332B6005E02968EB
:10078000296051F8040B29600021CDE90001682A95
:1007900008BF80B207D0622A08BFC0B203D0742A53
:1007A00018BF7A2A02D10021CDE900019DF8380056
:1007B000000730D5DDE90001002908BF00282AD054
:1007C00044F02000782826D130208DF844008BF8A2
:1007D0000140022005901EE09DF83A00294600F0F5
:1007E000D8F8CDE90001002904DA0598411C0591EB
:1007F0002D210EE0BDF83800810704D50598411C75
:1008000005912B2105E0C00705D50598411C0591F0
:10081000202100F80B10059911A808180390214613
:1008200000A800F0EDF815E0012005902868286088
:1008300050F8041B28608DF844100BE0012005904F
:100840002520002C8DF8440004D00598411C05910A
:1008500000F80B400D980599401A0899401A06991E
:10086000401A0999401A0799401A0A99A0EB010801
:100870009DF8380040070FD420208DF84000002458
:1008800008E0012310AA00A9504600F098FB0028B8
:100890007AD1641C4445F4DB059C11AE0AE016F8DD
:1008A000011B0298D047029000286DD00B98401C85
:1008B0000B90641E002CF2D130208DF840000026F1
:1008C000089C08E0012310AA00A9504600F077FB1D
:1008D000002859D1761CA642F4DB069C039E0AE050
:1008E00016F8011B0298D047029000284CD00B98B4
:1008F000401C0B90641E002CF2D130208DF840007B
:100900000026099C07E0012310AA00A9504600F028
:1009100056FBC8BB761CA642F5DB03980699079CDC
:100920000E1809E016F8011B0298D047029058B340
:100930000B98401C0B90641E002CF3D130208DF8D6
:10094000400000260A9C07E0012310AA00A9504697
:1009500000F035FBC0B9761CA642F5DB9DF83800E7
:1009600040077FF572AD20208DF84000002400E0A4
:10097000641C4445BFF669AD012310AA00A9504686
:1009800000F01DFB0028F3D04FF0FF3021B0BDE890
:10099000F08F622826D068281DD06A2808D06C28DD
:1009A00027D0712804D0742823D07A280CD020E0D6
:1009B0000868C01D20F007000860D0E90023083057
:1009C00008601946104670470A680A6052F8040B1E
:1009D0000A60002170470A680A6052F8040B0A6036
:1009E00000B20BE00A680A6052F8040B0A6040B2D9
:1009F00004E00A680A6052F8040B0A60C1177047E5
:100A00002DE9FA4E05460A462F696F2A08BF0824C9
:100A100005D041F02000782814BF0A2410243C2679
:100A2000D5E90001642A18BF692A81468A4605D1A2
:100A3000002903DAD9F100096AEB4A0ABAF1000F7A
:100A400008BFB9F1000F0CD1286B50B9082C36D172
:100A500095F83800000732D530203B2687F83B0058
:100A60002DE0E31748465146224600F031FBA4FB37
:100A70000023A9EB02023032D2B2A6F1010B3A2ACE
:100A80005E4603DB9DF80030513B9A1881465FEAD1
:100A9000010A0BF8072008BFB9F1000F03D0E8687E
:100AA000F1198842DDD3082C09D195F838000007E8
:100AB00005D5F05D302802D0761E3020F055C6F105
:100AC0003C00A861F119E960296B884208DA081A2C
:100AD00028624FF6EF71288F08402887BDE8F38E13
:100AE00000290ED595F8381001F01401102908D10D
:100AF000696B6A69891A2A6A891A081A0128A8BFC3
:100B00002862BDE8F38E00002DE9F34F8BB0D0E9E9
:100B10000089006B002801AF48BF062005D404BF40
:100B200041F02000672802D101200B99086340F2B0
:100B3000FF720B984168C1F30A50904220D108031C
:100B400002BF0B98006800280AD10B990320886126
:100B50009DF8300061381A2858D30FF2A44109E0FB
:100B60000B99032088619DF8300061381A284AD318
:100B70000FF284410B98C068032200F021FB00E1D2
:100B8000012807DA0B9800F056FB012802DB00234E
:100B90000026EDE00B9ADFF854B1526840F2FE31C6
:100BA00061F31E520B994A6040F2FE31461A4046EC
:100BB00049460022002300F05FFB38BF89F000495E
:100BC00036B247F297507043494990FBF1F636B27E
:100BD000C6F10707012F92461BDBF80707D55246DF
:100BE0005B464046494600F05FFB804689467F10E1
:100BF0005046594652465B4600F056FB002F82464F
:100C00008B46EAD126E00FF2EC31B3E70FF2EC317C
:100C1000B0E77F420024374D12E0F80707D552466F
:100C20005B462046294600F03FFB04460D467F10F8
:100C30005046594652465B4600F036FB82468B468C
:100C4000002FEAD14046494622462B4600F0FEFBE3
:100C5000804689469DF830000B99DFF89CB0096BFF
:100C600040F02005662D0CBF06F10A00062047184B
:100C7000142FA8BF132730208DF804000DF10504B0
:100C8000012F3BDB4046494600F01AFD014604F1C6
:100C9000080204234FF00A0CB1FBFCFC0CEB8C04A3
:100CA000A1EB4401303102F8011D0A21BCFBF1FE29
:100CB0000EEB8E04ACEB440430345B1E714602F83C
:100CC000014DE7D1083F012F02F10804D8DB00F005
:100CD00017FD02460B464046494600F01FFD002224
:100CE0005B4600F0E1FA80468946CBE700002440ED
:100CF000A08601000000F03F84D797410DF1050068
:100D0000201A0DF1050702E0401E761E7F1C39787F
:100D10003029F9D0662D02D136B2711C03E0652D61
:100D20000CBF012100210B9A126B8B181BB2984249
:100D3000B8BF03461BB219001AD4814204DAC85D59
:100D40003528A8BF392000DA3020CA19521E00E029
:100D50005B1E12F80159491E8542F9D0392802D18B
:100D6000C85D401CC855002902D57F1E5B1C761C3F
:100D700036B29DF830100B9800961BB23A4600F040
:100D800003F80DB0BDE8F08F2DE9F04786B00646B8
:100D90008A4690461D4600F09EFD406A376B90F8EB
:100DA0000090012D02DA01250FF258284AF02000A8
:100DB000BDF93840662808BF641C13D0672840F08E
:100DC000888014F1040F73DBBC4271DA96F83800A6
:100DD000641C000702D4BD42B8BF2F4624B23F1B9B
:100DE00048BF002724B2F068B169012C21DA4A1CFF
:100DF00030230B54012F03DA96F83810090702D577
:100E000002F80090521CE742B8BF7C4224B2614213
:100E1000E719AF42B261B8BF3D4671622DB2F561CC
:100E20002A46B3694146181800F0CAF9781BB06227
:100E3000AEE00818A54216DA2A46414600F0C0F98D
:100E4000B1696918601BB161012F706203DA96F80D
:100E50003800000705D5F06801F80090F069401CE3
:100E6000F061B76294E02246414600F0A9F9B0690A
:100E700020182D1B012F03DA96F83810090703D527
:100E8000F16800F80190401CB0612DB2AF42B8BFCC
:100E90003D46F068B3692DB22A4604EB08011818E4
:100EA00000F08EF9B0692818B061781B70626FE0AD
:100EB000BD4204DA96F83810090758BF2F467F1E46
:100EC00048BF0027BAF1670F0CBF4FF0650A4FF01B
:100ED000450AB169F06818F8013B0B544A1C012F10
:100EE00005DA96F83810090758BFB26115D502F82F
:100EF0000090531C012FB3610FDB6D1E2DB2AF426A
:100F0000B8BF3D462DB22A464146181800F058F9A0
:100F1000B0692818B061781B7062F068B16901EBA4
:100F20000008200008F801AB03D42B2008F8010BBF
:100F300003E02D2108F8011B6442002502AF08E000
:100F40000A2200A800F0E0FC019807F8010B6D1CD4
:100F5000009C21B20129F3DA022D06DA4AF02000C2
:100F6000652804BF302008F8010B4DB9302008F87F
:100F7000010B07E06D1E02A8285C303008F8010B59
:100F8000012DF7DAF068B1690818A8EB0000F061EC
:100F900096F8380000F0140010280DD17069B1697E
:100FA0000818716A0818F1690818B16A0818716B95
:100FB0008842BCBF081A306206B0BDE8F087F8B5B9
:100FC00004460D4616461F46002004E0E86A401C11
:100FD000E8627F1E002047B116F8011BA868A047F1
:100FE000A8600028F2D14FF0FF30F2BD686A6C743F
:100FF0007A4C00006E616E004E414E00696E6600D4
:10100000494E4600300050F8041B61B150F8042BE3
:10101000D30744BFA9F101039A180023091F42F81E
:10102000043BFAD1EFE770470278C9B28A421AB19D
:101030001CBF10F8012FF9E718BF002070473200DD
:1010400000F10103810704D010F8011B89B1810769
:10105000FAD10268B2F10131914311F0803F04BF2F
:1010600050F8042FF6E710F8011B11B110F8011B1E
:10107000FBE7C01A7047CEFFC9B2830706D0521EE5
:1010800022D310F8013B9942F7D11FE0083A13D35D
:1010900002F1040241EA012141EA014150F8043B16
:1010A000121F21BF4B40A3F1013C2CEA030C1CF0A2
:1010B000803FF3D0C9B2001F083210F8013B521E26
:1010C00028BF91EA030FF8D818BF0120401E7047CF
:1010D0001B4213D1094236D12AB18446B0FBF2F04B
:1010E00002FB10C2704700F017BCFCD300220023A3
:1010F00070470B000200002100207047904271EB06
:10110000030CF6D370B5B1FA81F4B3FA83F52C1B56
:10111000A340C4F1200532FA05F63343A2405FF044
:101120000046E64002E05B085FEA3202841A71EB97
:10113000030524BF204629467641F4D302000B0064
:101140003000002170BD012ACFD970B5140C20D019
:10115000B1FA81F4B2FA82F5C4F120046419B4F151
:101160002006D6D3B2405FF00044F440002502E0F0
:1011700052085FEA3303C61A71EB020E24BF3046F1
:10118000714664416D41F3D302000B002000290039
:1011900070BD0C46B1FBF2F102FB11452D0445EA8E
:1011A0001045B5FBF2F402FB145580B240EA054548
:1011B000B5FBF2F002FB105240EA044070BD320071
:1011C00062B38B0708D0521E11F8013B00F8013BB7
:1011D00000F024808B07F6D1830740F0208000BF09
:1011E000103A07D330B4B1E83810103AA0E83810FC
:1011F000F9D230BC530724BFB1E80810A0E80810AA
:1012000044BF51F8043B40F8043BD20724BF31F8F7
:10121000022B20F8022B44BF0B7803707047083A6A
:1012200007D3B1E80810083A40F8043B40F804CB73
:10123000F7D25307E4E730B4436803F000420121DA
:101240001B031B0B436004BF0368002B08D10DE098
:101250000368DD0F45EA440444605B000360491EF7
:101260004468E302F4D523031B0B436043681A432D
:101270004260084630BC70474FF4001C1CEB410F25
:1012800094BF1CEB430F09E041EA030C50EA4C0CFD
:1012900052EA0C0C03D2994208BF9042704714BF27
:1012A0008B42824270477800B0B581EA030C0CF0A3
:1012B000004C40F2FF7515EA11541DBF15EA135793
:1012C000AC42AF4239E0E41923EA455343F48013BA
:1012D000C90241F0004141EA505EC7021100A7FB7C
:1012E000020200284FF00000EEFB01204FF0000149
:1012F000E3FB072118BF42F00102401800214941D9
:10130000E3FB0E01A4F580640F0302D252004041BA
:10131000494154F101046CDD470872F1004250F17B
:10132000000051EB0451A1F580115CBF41EA0C01B2
:10133000B0BD4CEA05510020B0BD05EA1357AC42E0
:1013400014BFAF4241E050EA410E1CBF52EA430EC7
:1013500002E061460020B0BD24423C441BD15FEA5C
:10136000070EF6D0090302BF01460020AEF1140EAD
:10137000B1FA81F7AEEB070401FA07FE0C37C7F1AB
:10138000200100FA07F7C8404EEA000E23EA455351
:1013900043F48013A2E733F00043B3FA83F704BFAA
:1013A000B2FA82FE77440B3FE41BB7F1200E2FBF49
:1013B00002FA0EF3BB40C7F1200E22FA0EFE38BF30
:1013C00043EA0E03BA40641C82E750EA410E14BFA0
:1013D00052EA430E6FF000014FF4001717EB430F72
:1013E0008ABF194617EB410FB5E74CEA05510020BB
:1013F000B0BDD4F10104B4F120070FDAC4F1200725
:10140000520828BF42F0010210FA07F501FA07F767
:10141000E1BF2A43E0403843E1400FE0352C98DC3F
:10142000C7F1200452EA400220FA07F218BF42F046
:10143000010231FA07F0A1400A43002172F1004293
:1014400050F1000051EB0C01B0BD0000F0B540F2CE
:10145000FF7581EA030C0CF0004C15EA11541DBF16
:1014600015EA1357AC42AF42E5E0BC41C1F31301AA
:10147000C3F31303801A994143F4801304D2641E0A
:101480004000494180185941C90241EA5051B1FB1D
:10149000F3F603FB1611A2FB0675D7EBC020A9419A
:1014A00002D2761E80185941C90241EA5051B1FB5F
:1014B000F3FE03FB1E11A2FB0E75D7EBC020A94162
:1014C00003D2AEF1010E80185941890241EA9051D0
:1014D000760546EA8E2EB1FBF3F603FB1611A2FB4E
:1014E0000675D7EB8020A94102D2761E801859419B
:1014F000C90241EA50514EEA060EB1FBF3F603FB76
:101500001611A2FB0675D7EBC020A94102D2761EA8
:1015100080185941C90241EA5051B1FBF3F703FB6E
:101520001711A2FB0735D3EBC020A94167F10007D3
:101530000CBF004247F0010766F3D5274FEA1E3182
:10154000B80814F5806412DDBD0775F1004250EB58
:101550000E5051EB045111F5801F5CBF41EA0C01A4
:10156000F0BD4CF07F6141F0E0410020F0BDBD07CF
:101570006D0840EA0E5041F48011D4F10104B4F139
:1015800020060ADAC4F120060200E04001FA06F360
:10159000E1401843B24015430EE0342C13DCC6F191
:1015A000200445EA40056D0820FA06F2154321FAA9
:1015B00006F0A1400D43002175F1004250F10000FA
:1015C00051EB0C01F0BD00205FEA0C01F0BDCFB97A
:1015D00092185B41B3FA83F704BFB2FA82F6BF19DF
:1015E0000B3FB7F120062FBF02FA06F3BB40C7F14D
:1015F000200622FA06F638BF3343BA401CB1E4197C
:10160000641E33E77F4231F00041B1FA81F404BF38
:10161000B0FA80F6A4190B3CB4F120062FBF00FAF3
:1016200006F1A140C4F1200620FA06F638BF314386
:10163000A0403C1B1AE7AC421ABF05EA1357AF4261
:1016400012E050EA41061CBF52EA4306BFE750EAE7
:101650004107304661461CBF41EA0551F0BD52EAE0
:10166000430C08BFC143F0BD00204FF4001616EB39
:10167000410F98BF16EB430F08BF16EB410F24BF75
:10168000C14305E016EB430F0CBF61464CEA055120
:10169000F0BD4100F446400D40EAC120490006D2A9
:1016A00000F014F8004248BF6FF00040604700F0BF
:1016B0000DF84FF0004188428CBF08464042604719
:1016C000400D40EAC120490080F00D8040F000400C
:1016D000490DA1F58061491C05D4D1F11F0154BF0A
:1016E000C840C01770474FF000007047010040F13C
:1016F0000980F446404200F005F851F0004160478F
:10170000010000BF09D0B0FA80F18840C91CC1F5C2
:101710008461090501EBD0214005704770B44FF09A
:10172000004591EA030F44BF6B4000F001B900BFD0
:10173000841A71EB030604D26E40001BB1411219EA
:1017400073414FF4001C1CEB410F34BF7CEB43068C
:1017500084E00C0DA4EB1356362E7DDC012E43DC09
:1017600045EAC32343EA525312BFD20292025B08F6
:10177000240545EAC12141EA5051D2EBC0209941EC
:1017800025D407D1B0FA80F610FA06F164D0002013
:10179000203608E0B1FA81F6B140C6F1200220FA05
:1017A00002F21143B0404FEAF474B4EB465434F003
:1017B00001064FEA74040AD8D6F50016760D04F037
:1017C0000044F04061FA06F25040F1404840C00A3F
:1017D00040EA415021F0004128BF5FEA500550F136
:1017E000000044EBD12137E045EAC323DB0A45EA98
:1017F000C121C90AB6F120050EDD42EA0242120CEF
:10180000C5F1200603FA06F6EB4042EA06056D42F2
:10181000984161F100010DE062FA06F5F240554091
:1018200063FA06FC82EA0C02F3405A406D42904192
:1018300061EB030111F4801F05D1641E620502D023
:101840006D004041494121F48011430875F1004386
:1018500050F1000041EB045170BC70471CEB410F8C
:1018600015D223F0004352EA43060BD04FEA4C0C4A
:10187000BCEB410F04D80C0D661E342EB7DDEBE730
:10188000801A994150EA410608BF0021E4E708BFE9
:101890001CEB430F28BF6FF00001DDE780B5134854
:1018A00000F0B0F80FF24801016041608160C16052
:1018B0000161416181610FF23C0242628162C16259
:1018C000016341630FF2300282630FF23402C2639C
:1018D0000164416401BD10B5044800F093F804466A
:1018E000206808B9FFF7DAFF204610BDD01AFF1FA5
:1018F000000000002E00000066616C7365000000AF
:10190000747275650000000091FBF2F303FB121185
:10191000C0E90031704700007047640070B44FF0B8
:10192000004591EA030C44BF6B40FFF701BF00BFC5
:10193000841A71EB030603D2001BB14112197341E3
:101940004FF4001C1CEB410F34BF7CEB430443E01D
:101950000C0DA4EB1356352E50DC45EAC323DB0AED
:1019600045EAC121C912B6F120050DDD63FA05F67D
:10197000EB4086EA0305124218BF45F00105C01886
:1019800051F100010CD213E062FA06F5F240554025
:10199000F3415A40B340F3405A408018594107D3AD
:1019A00049085FEA30005FEA350528BF45F00105C8
:1019B00001F58011420875F1004250F1000041EB41
:1019C000045170BC4FF4001C1CEB410F38BF704732
:1019D0000020090D090570471CEB410F10D252EA97
:1019E00043060BD0BCEB410F05D80C0DAB43661E74
:1019F000342EB5DD02E0AB438018594170BC70470E
:101A000070BC70477047000010B486B0F0EE401A0A
:101A10000020002103AA0023136002AA0023136000
:101A200000AA0023002418C2083ADFF8CC2ADFF805
:101A3000CC3A1B7832F9232002EE102AB8EEC22AE3
:101A4000B4EE612AF1EE10FA0DD5DFF8AC2ADFF81A
:101A5000AC3A1B7832F9232002EE102AB8EEC22AE3
:101A6000F0EE421A20E0DFF8902ADFF8903A1B7877
:101A700012EB8302B2F9022002EE102AB8EEC22A5B
:101A8000F4EE421AF1EE10FA0ED5DFF86C2ADFF808
:101A90006C3A1B7812EB8302B2F9022002EE102A94
:101AA000B8EEC22AF0EE421ADFF84C2ADFF84C3AC0
:101AB0001B7812EB8302B2F9022002EE102AB8EE74
:101AC000C22A71EEC21ADFF8302ADFF8303A1B78EA
:101AD00032F92320DFF8203ADFF8204A247813EB8C
:101AE0008403B3F90230D21A02EE102AB8EEC22AE9
:101AF00081EE822ADFF8082AB2F90020DFF8043AE2
:101B0000B3F90030D21A01EE902AF8EEE12ADFF89C
:101B1000F429B2F9002001EE902AF8EEE11A42EE23
:101B2000221ADFF8E429DFF8E4391B7832F92320A0
:101B300002EE102AB8EEC22AB4EE602AF1EE10FAD4
:101B40000DD5DFF8C429DFF8C4391B7832F923201A
:101B500002EE102AB8EEC22AF0EE420A20E0DFF8C8
:101B6000A829DFF8A8391B7812EB8302B2F902200A
:101B700002EE102AB8EEC22AF4EE420AF1EE10FA92
:101B80000ED5DFF88429DFF884391B7812EB830245
:101B9000B2F9022002EE102AB8EEC22AF0EE420A92
:101BA000DFF86429DFF864391B7812EB8302B2F99D
:101BB000022002EE102AB8EEC22A70EEC20ADFF846
:101BC0004829DFF848391B7832F92320DFF8383903
:101BD000DFF83849247813EB8403B3F90230D21AC2
:101BE00002EE102AB8EEC22A80EE822ADFF810290F
:101BF000B2F90020DFF80C39B3F90030D21A00EE48
:101C0000902AF8EEE02ADFF8FC28B2F9002000EE76
:101C1000902AF8EEE00A42EE220ADFF8F42892F960
:101C2000002002EE102AB8EEC22AB4EE612AF1EECC
:101C300010FA40F16481DFF8D82892F9062002EE0C
:101C4000102AB8EEC22AF4EE421AF1EE10FA40F170
:101C50005681DFF8BC2892F9012002EE102AB8EE76
:101C6000C22AB4EE612AF1EE10FA2BDB0122100039
:101C7000DFF8A028B2F9002002EE102AB8EEC22A3E
:101C8000DFF88C2892F9012002EE902AF8EEE22A81
:101C900072EEE12A22EE222ADFF8742892F901205E
:101CA000DFF86C3893F90030D21A02EE902AF8EE81
:101CB000E22A82EE222ABDEEC22A12EE102AADF8E6
:101CC0000C2044E1DFF8482892F9022002EE102AA5
:101CD000B8EEC22AB4EE612AF1EE10FA2BDB022232
:101CE0001000DFF83028B2F9002002EE102AB8EE1A
:101CF000C22ADFF81C2892F9022002EE902AF8EEA0
:101D0000E22A72EEE12A22EE222ADFF8042892F972
:101D10000220DFF8FC3793F90130D21A02EE902A44
:101D2000F8EEE22A82EE222ABDEEC22A12EE102A34
:101D3000ADF80C200BE1DFF8D82792F9032002EE72
:101D4000102AB8EEC22AB4EE612AF1EE10FA2BDBAB
:101D500003221000DFF8BC27B2F9002002EE102A9F
:101D6000B8EEC22ADFF8A82792F9032002EE902AE3
:101D7000F8EEE22A72EEE12A22EE222ADFF890271C
:101D800092F90320DFF8883793F90230D21A02EE75
:101D9000902AF8EEE22A82EE222ABDEEC22A12EE44
:101DA000102AADF80C20D2E0DFF8642792F9042065
:101DB00002EE102AB8EEC22AB4EE612AF1EE10FA51
:101DC0002BDB04221000DFF84C27B2F9002002EED2
:101DD000102AB8EEC22ADFF8382792F9042002EE62
:101DE000902AF8EEE22A72EEE12A22EE222ADFF8A9
:101DF000202792F90420DFF8183793F90330D21A1C
:101E000002EE902AF8EEE22A82EE222ABDEEC22AE3
:101E100012EE102AADF80C2099E0DFF8F42692F9C2
:101E2000052002EE102AB8EEC22AB4EE612AF1EEC5
:101E300010FA2BDB05221000DFF8D826B2F90020BB
:101E400002EE102AB8EEC22ADFF8C42692F9052065
:101E500002EE902AF8EEE22A72EEE12A22EE222A1F
:101E6000DFF8AC2692F90520DFF8A43693F90430A8
:101E7000D21A02EE902AF8EEE22A82EE222ABDEE73
:101E8000C22A12EE102AADF80C2060E0DFF880269E
:101E900092F9062002EE102AB8EEC22AB4EE612AA8
:101EA000F1EE10FA53DB06221000DFF86826B2F9D3
:101EB000002002EE102AB8EEC22ADFF8542692F96A
:101EC000062002EE902AF8EEE22A72EEE12A22EED5
:101ED000222ADFF83C2692F90620DFF8343693F9FF
:101EE0000530D21A02EE902AF8EEE22A82EE222A79
:101EF000BDEEC22A12EE102AADF80C2027E0DFF862
:101F0000102692F9002002EE102AB8EEC22AB4EE92
:101F1000612AF1EE10FA08DB01221000DFF8F42547
:101F2000B2F90020ADF80C2011E0DFF8E42592F9B9
:101F3000062002EE102AB8EEC22AF4EE421AF1EEA2
:101F400010FA04DB062210000022ADF80C20DFF8A6
:101F5000C4251288BDF80C30D21AADF80E20DFF877
:101F6000B82592F9002002EE102AB8EEC22AB4EE8B
:101F7000602AF1EE10FA40F15C81DFF89C2592F9BD
:101F8000062002EE102AB8EEC22AF4EE420AF1EE62
:101F900010FA40F14E81DFF8802592F9012002EE1F
:101FA000102AB8EEC22AB4EE602AF1EE10FA2BDB4A
:101FB00001221100DFF85C25B2F9002002EE102AA0
:101FC000B8EEC22ADFF8502592F9012002EE902ADD
:101FD000F8EEE22A72EEE02A22EE222ADFF8382515
:101FE00092F90120DFF8303593F90030D21A02EE71
:101FF000902AF8EEE22A82EE222ABDEEC22A12EEE2
:10200000102AADF8082039E1DFF80C2592F90220FA
:1020100002EE102AB8EEC22AB4EE602AF1EE10FAEF
:102020002BDB02221100DFF8EC24B2F9002002EED3
:10203000102AB8EEC22ADFF8E02492F9022002EE5C
:10204000902AF8EEE22A72EEE02A22EE222ADFF847
:10205000C82492F90220DFF8C03493F90130D21A73
:1020600002EE902AF8EEE22A82EE222ABDEEC22A81
:1020700012EE102AADF8082000E1DFF89C2492F956
:10208000032002EE102AB8EEC22AB4EE602AF1EE66
:1020900010FA2BDB03221100DFF87824B2F90020BC
:1020A00002EE102AB8EEC22ADFF86C2492F903205F
:1020B00002EE902AF8EEE22A72EEE02A22EE222ABE
:1020C000DFF8542492F90320DFF84C3493F90230FE
:1020D000D21A02EE902AF8EEE22A82EE222ABDEE11
:1020E000C22A12EE102AADF80820C7E0DFF8282433
:1020F00092F9042002EE102AB8EEC22AB4EE602A49
:10210000F1EE10FA2BDB04221100DFF80824B2F9FB
:10211000002002EE102AB8EEC22ADFF8FC2392F962
:10212000042002EE902AF8EEE22A72EEE02A22EE75
:10213000222ADFF8E42392F90420DFF8DC3393F954
:102140000330D21A02EE902AF8EEE22A82EE222A18
:10215000BDEEC22A12EE102AADF808208EE0DFF89C
:10216000B82392F9052002EE102AB8EEC22AB4EE86
:10217000602AF1EE10FA28DB05221100DFF8942323
:10218000B2F9002002EE102AB8EEC22AE24A92F911
:10219000052002EE902AF8EEE22A72EEE02A22EE04
:1021A000222ADD4A92F90520DB4B93F90430D21A3A
:1021B00002EE902AF8EEE22A82EE222ABDEEC22A30
:1021C00012EE102AADF8082058E0D34A92F9062002
:1021D00002EE102AB8EEC22AB4EE602AF1EE10FA2E
:1021E0004CDB06221100CB4AB2F9002002EE102A85
:1021F000B8EEC22AC84A92F9062002EE902AF8EEFA
:10220000E22A72EEE02A22EE222AC34A92F906203E
:10221000C14B93F90530D21A02EE902AF8EEE22A69
:1022200082EE222ABDEEC22A12EE102AADF8082054
:1022300024E0B94A92F9002002EE102AB8EEC22A30
:10224000B4EE602AF1EE10FA07DB01221100B14A68
:10225000B2F90020ADF8082010E0AF4A92F906204C
:1022600002EE102AB8EEC22AF4EE420AF1EE10FA9B
:1022700004DB062211000022ADF80820A54A1288CE
:10228000BDF80830D21AADF80A20DFF89022C0B2AB
:10229000072303FB0022C9B28A1812F9082CADF8F3
:1022A0001020DFF87822C0B2072303FB0022C9B256
:1022B0008A1812F9012CADF81220DFF86022C0B2A2
:1022C000072303FB0022C9B28A1812F9072CADF8C4
:1022D0001420DFF84822C0B2072303FB0022C9B252
:1022E0008A56ADF81620BDF90C20BDF908309A4287
:1022F00004DABDF90C20ADF8002003E0BDF9082098
:10230000ADF80020BDF90E20BDF908309A4204DA7C
:10231000BDF80E20ADF8022003E0BDF80820ADF8AE
:102320000220BDF90C20BDF90A309A4204DABDF84A
:102330000C20ADF8042003E0BDF80A20ADF804201D
:10234000BDF90E20BDF90A309A4204DABDF80E201C
:10235000ADF8062003E0BDF80A20ADF80620BDF96F
:102360001020BDF912309A420CD1BDF90220BDF9FE
:1023700000309A4203DA0022ADF8022002E0002287
:10238000ADF80020BDF91020BDF914309A420CD1EF
:10239000BDF90420BDF900309A4203DA0022ADF8FD
:1023A000042002E00022ADF80020BDF91020BDF9A4
:1023B00016309A420CD1BDF90620BDF900309A4280
:1023C00003DA0022ADF8062002E00022ADF800207A
:1023D000BDF91220BDF914309A420CD1BDF9042088
:1023E000BDF902309A4203DA0022ADF8042002E07F
:1023F0000022ADF80220BDF91220BDF916309A4234
:102400000CD1BDF90620BDF902309A4203DA002250
:10241000ADF8062002E00022ADF80220BDF914203C
:10242000BDF916309A420CD1BDF90620BDF9043031
:102430009A4203DA0022ADF8062002E00022ADF84D
:102440000420DFF8DC201268BDF9103032F91320C7
:10245000ADF81020DFF8C8201268BDF9123032F84C
:102460001320ADF81220DFF8B8201268BDF914303F
:1024700032F81320ADF81420DFF8A4201268BDF95B
:10248000163032F81320ADF81620BDF90020BDF942
:10249000103012FB03F2BDF90230BDF9124013FBFC
:1024A0000422BDF90430BDF9144013FB0422BDF928
:1024B0000630BDF9164013FB042202EE102AB8EED6
:1024C000C22AB0EE420ABDF90020BDF9023003FA7B
:1024D00082F2BDF9043002FA83F2BDF9063002FA45
:1024E00083F202EE102AB8EEC22AB0EE421A80EE53
:1024F000010A06B010BC7047BC740000BD1AFF1F73
:102500003E10000076100000DC740000BC1AFF1FB3
:10251000EC750000BE110000F47500005C04FF1FA4
:102520005404FF1F2DE9F04F89B006000C0000276E
:102530005FF00008DFF81C09B0F9000036B28642EF
:1025400005DADFF81009B0F9000006000BE0DFF84B
:102550000809B0F9000036B2B04204DADFF8F80832
:10256000B0F90000060036B2DFF8E808B0F9000064
:10257000301AFFF7BBF882468B46DFF8DC08B0F96B
:102580000000DFF8D018B1F90010401AFFF7AEF8DC
:1025900002000B0050465946FEF758FF82468B4614
:1025A000DFF8B808B0F90000DFF8B418B1F900108E
:1025B000401AFFF79BF852465B46FEF775FE8246CF
:1025C0008B46DFF89C08B0F90000FFF78FF8524601
:1025D0005B46FFF7A3F9FFF75DF80600DFF8840814
:1025E000B0F9000024B2844205DADFF87808B0F9C7
:1025F000000004000BE0DFF87008B0F9000024B21E
:10260000A04204DADFF86008B0F90000040024B248
:102610002000FFF76BF804000D00DFF84C08B0F95C
:102620000000DFF84018B1F90010401AFFF75EF81B
:1026300002000B0020002900FEF708FF04000D0037
:10264000DFF81808B0F90000DFF81418B1F900102D
:10265000401AFFF74BF822002B00FEF725FE04007E
:102660000D00DFF8FC07B0F90000FFF73FF822008B
:102670002B00FFF753F9FFF70DF80400DFF8EC0724
:10268000B0F9000036B2B04280F23A81DFF8DC07E0
:10269000B0F90C0036B2864280F23281DFF8CC0706
:1026A000B0F9020036B2B0422BDB01200700DFF8A0
:1026B000C007B0F9000000EE100AB8EEC00ADFF85B
:1026C000AC07B0F9020036B2801B00EE900AF8EEBB
:1026D000E00ADFF89807B0F90200DFF89017B1F9C7
:1026E0000010401A01EE100AB8EEC11AC0EE810ABD
:1026F00020EE200ABDEEC00A10EE100AADF80C0064
:1027000019E1DFF86807B0F9040036B2B0422BDBFC
:1027100002200700DFF85807B0F9000000EE100AA9
:10272000B8EEC00ADFF84407B0F9040036B2801BE7
:1027300000EE900AF8EEE00ADFF83007B0F9040086
:10274000DFF82817B1F90210401A01EE100AB8EEAE
:10275000C11AC0EE810A20EE200ABDEEC00A10EEBA
:10276000100AADF80C00E6E0DFF80007B0F906004B
:1027700036B2B0422BDB03200700DFF8F406B0F9D5
:10278000000000EE100AB8EEC00ADFF8E006B0F96B
:10279000060036B2801B00EE900AF8EEE00ADFF881
:1027A000CC06B0F90600DFF8C416B1F90410401ADF
:1027B00001EE100AB8EEC11AC0EE810A20EE200A1E
:1027C000BDEEC00A10EE100AADF80C00B3E0DFF861
:1027D0009C06B0F9080036B2B0422BDB042007009B
:1027E000DFF88C06B0F9000000EE100AB8EEC00A5F
:1027F000DFF87806B0F9080036B2801B00EE900AC8
:10280000F8EEE00ADFF86406B0F90800DFF85C16BD
:10281000B1F90610401A01EE100AB8EEC11AC0EE66
:10282000810A20EE200ABDEEC00A10EE100AADF8B3
:102830000C0080E0DFF83406B0F90A0036B2B0428E
:102840002BDB05200700DFF82806B0F9000000EEBA
:10285000100AB8EEC00ADFF81406B0F90A0036B262
:10286000801B00EE900AF8EEE00ADFF80006B0F9EF
:102870000A00DFF8F815B1F90810401A01EE100A45
:10288000B8EEC11AC0EE810A20EE200ABDEEC00AE1
:1028900010EE100AADF80C004DE0DFF8D005B0F9ED
:1028A0000C0036B2B04246DB06200700DFF8C00558
:1028B000B0F9000000EE100AB8EEC00ADFF8AC056F
:1028C000B0F90C0036B2801B00EE900AF8EEE00A78
:1028D000DFF89805B0F90C00DFF89015B1F90A108F
:1028E000401A01EE100AB8EEC11AC0EE810A20EEBD
:1028F000200ABDEEC00A10EE100AADF80C001AE076
:10290000DFF86805B0F9000036B2B04207DB0120FD
:102910000700DFF85C050088ADF80C000BE0DFF87D
:102920004C05B0F90C0036B2864204DB06200700E5
:102930000020ADF80C00DFF83805B0F90000BDF854
:102940000C10401AADF80E00DFF82805B0F90000B1
:1029500024B2A04280F23081DFF81805B0F90C00F3
:1029600024B2844280F22881DFF80805B0F9020021
:1029700024B2A0422BDB01208046DFF8F404B0F93A
:10298000000000EE100AB8EEC00ADFF8E804B0F963
:10299000020024B2001B00EE900AF8EEE00ADFF815
:1029A000D404B0F90200DFF8CC14B1F90010401AD9
:1029B00001EE100AB8EEC11AC0EE810A20EE200A1C
:1029C000BDEEC00A10EE100AADF808000CE1DFF809
:1029D000A404B0F9040024B2A0422BDB02208046FC
:1029E000DFF88C04B0F9000000EE100AB8EEC00A5F
:1029F000DFF88004B0F9040024B2001B00EE900A56
:102A0000F8EEE00ADFF86C04B0F90400DFF86414B3
:102A1000B1F90210401A01EE100AB8EEC11AC0EE68
:102A2000810A20EE200ABDEEC00A10EE100AADF8B1
:102A30000800D9E0DFF83C04B0F9060024B2A04257
:102A40002BDB03208046DFF82804B0F9000000EEFD
:102A5000100AB8EEC00ADFF81C04B0F9060024B270
:102A6000001B00EE900AF8EEE00ADFF80804B0F967
:102A70000600DFF80014B1F90410401A01EE100A44
:102A8000B8EEC11AC0EE810A20EE200ABDEEC00ADF
:102A900010EE100AADF80800A6E0DFF8D803B0F990
:102AA000080024B2A0422BDB04208046DFF8C003DC
:102AB000B0F9000000EE100AB8EEC00ADFF8B40367
:102AC000B0F9080024B2001B00EE900AF8EEE00A0C
:102AD000DFF8A003B0F90800DFF89813B1F9061089
:102AE000401A01EE100AB8EEC11AC0EE810A20EEBB
:102AF000200ABDEEC00A10EE100AADF8080073E01F
:102B0000DC48B0F90A0024B2A04227DB0520804649
:102B1000D748B0F9000000EE100AB8EEC00AD54858
:102B2000B0F90A0024B2001B00EE900AF8EEE00AA9
:102B3000D048B0F90A00CF49B1F90810401A01EEA7
:102B4000100AB8EEC11AC0EE810A20EE200ABDEECE
:102B5000C00A10EE100AADF8080045E0C548B0F90B
:102B60000C0024B2A0423FDB06208046C048B0F9EA
:102B7000000000EE100AB8EEC00ABE48B0F90C0022
:102B800024B2001B00EE900AF8EEE00AB948B0F952
:102B90000C00B849B1F90A10401A01EE100AB8EE5B
:102BA000C11AC0EE810A20EE200ABDEEC00A10EE66
:102BB000100AADF8080017E0AE48B0F9000024B2E2
:102BC000A04206DB01208046A9480088ADF8080035
:102BD0000AE0A848B0F90C0024B2844204DB0620C5
:102BE00080460020ADF80800A148B0F90000BDF80B
:102BF0000810401AADF80A009F480E2117FB01008B
:102C00000FFA88F810EB480030F9100CADF81000FE
:102C100099480E2117FB01000FFA88F810EB4800C5
:102C200030F9020CADF8120093480E2117FB010099
:102C30000FFA88F810EB480030F90E0CADF81400CC
:102C40008D480E2117FB01000FFA88F830F91800A3
:102C5000ADF81600BDF80800BDF80C10884204D38A
:102C6000BDF80C00ADF8000003E0BDF80800ADF8B9
:102C70000000BDF80800BDF80E10884204D3BDF86E
:102C80000E00ADF8020003E0BDF80800ADF8020048
:102C9000BDF80A00BDF80C10884204D3BDF80C0042
:102CA000ADF8040003E0BDF80A00ADF80400BDF87B
:102CB0000A00BDF80E10884204D3BDF80E00ADF82E
:102CC000060003E0BDF80A00ADF80600BDF91000EB
:102CD000BDF9121088420CD1BDF80200BDF80010F9
:102CE000884203D20020ADF8020002E00020ADF8D7
:102CF0000000BDF91000BDF9141088420CD1BDF8D8
:102D00000400BDF80010884203D20020ADF8040092
:102D100002E00020ADF80000BDF91000BDF916106A
:102D200088420CD1BDF80600BDF80010884203D2DD
:102D30000020ADF8060002E00020ADF80000BDF96B
:102D40001200BDF9141088420CD1BDF80400BDF882
:102D50000210884203D20020ADF8040002E00020F7
:102D6000ADF80200BDF91200BDF9161088420CD171
:102D7000BDF80600BDF80210884203D20020ADF86D
:102D8000060002E00020ADF80200BDF91400BDF914
:102D9000161088420CD1BDF80600BDF80410884218
:102DA00003D20020ADF8060002E00020ADF80400D8
:102DB00032480068BDF9101030F91100ADF810006C
:102DC0002E480068BDF9121030F81100ADF812005D
:102DD0002A480068BDF9141030F81100ADF814004D
:102DE00026480068BDF9161030F81100ADF816003D
:102DF000BDF80000BDF91010BDF80220BDF9123079
:102E00005A4301FB0020BDF80410BDF9142002FB59
:102E10000100BDF80610BDF9162002FB0100079065
:102E2000BDF80000BDF8021011FA80F0BDF80410E2
:102E300010FA81F0BDF8061010FA81F0069007989C
:102E4000069990FBF1F08146484600B209B0BDE812
:102E5000F08F00BF4A140000A61200001A190000EB
:102E6000061A000016190000921600009004FF1FB9
:102E7000CC370000A004FF1FC004FF1F8C0FFF1FF2
:102E800001000000BC028A020802900108028A02C6
:102E9000BC020000D002A802260290012602A8026D
:102EA000D0020000C8007800320000003200780034
:102EB000C80000007C1588139411A00F941188138A
:102EC0007C1500001404FF1F3404FF1F06060505CF
:102ED00004030306060504040302050505040302B2
:102EE00002050504030201010404030202010104B6
:102EF00003020101010003030101010000000000C1
:102F00000000100020003000400050006000000071
:102F10000000100020003000400050006000000061
:102F2000550057005A005C005F0064006900000013
:102F30000600050004000300020001000100050076
:102F40000500040003000200010001000400040069
:102F50000300020001000100000003000300030061
:102F60000200010001000000020002000200010056
:102F7000010000000000020001000100000000004C
:102F8000000000000100010000000000000000003F
:102F90000000000000B0034000B00B400000000043
:102FA0000000000000000000000000000000000021
:102FB000000000000000000000004E6F6E4D6173C5
:102FC0006B61626C65000000004861726446617567
:102FD0006C740000000000004D656D4D616E61670E
:102FE000656D656E7400004275734661756C7400A2
:102FF00000000000000055736167654661756C74E0
:1030000000000000000000000000000000000000C0
:1030100000000000000000000000000000000000B0
:1030200000000000000000000000000000000000A0
:103030000000000000000000000000000000000090
:1030400000535643616C6C0000000000000000005B
:1030500044656275674D6F6E69746F7200000000A1
:1030600000000000000000000000000000005065AB
:103070006E64535600000000000000000053797396
:103080005469636B0000000000000000444D4130B3
:103090000000000000000000000000444D4131002D
:1030A00000000000000000000000444D413200001C
:1030B000000000000000000000444D41330000000B
:1030C0000000000000000000444D413400000000FA
:1030D00000000000000000444D41350000000000E9
:1030E000000000000000444D4136000000000000D8
:1030F0000000000000444D413700000000000000C7
:1031000000000000444D41380000000000000000B5
:10311000000000444D4139000000000000000000A4
:103120000000444D4131300000000000000000006C
:1031300000444D413131000000000000000000005B
:10314000444D413132000000000000000000004406
:103150004D41313300000000000000000000444DEC
:1031600041313400000000000000000000444D41E7
:10317000313500000000000000000000444D415FB8
:103180004572726F720000000000004D434D000058
:10319000000000000000000000004654464C000003
:1031A000000000000000000000526561645F436F92
:1031B0006C6C6973696F6E004C56445F4C565700D7
:1031C000000000000000004C4C5700000000000010
:1031D0000000000000005761746368646F670000BE
:1031E0000000000000524E470000000000000000F8
:1031F00000000000493243300000000000000000E1
:1032000000000049324331000000000000000000CF
:103210000000535049300000000000000000000092
:103220000053504931000000000000000000000081
:10323000535049320000000000000000000000432D
:10324000414E305F4F525F4D425F627566004341B1
:103250004E305F4275735F4F666600000043414E1B
:10326000305F4572726F72000000000043414E30C3
:103270005F54785F5761726E696E6743414E305F8D
:1032800052785F5761726E696E6743414E305F5787
:10329000616B655F557000000052657365727665FD
:1032A0006435310000000000526573657276656414
:1032B0003532000000000043414E315F4F525F4DF8
:1032C000425F6275660043414E315F4275735F4FE6
:1032D000666600000043414E315F4572726F7200B6
:1032E0000000000043414E315F54785F5761726EB9
:1032F000696E6743414E315F52785F5761726E6904
:103300006E6743414E315F57616B655F55700000DA
:1033100000526573657276656435390000000000FF
:1033200052657365727665643630000000000055A2
:10333000415254305F52585F5458000000005541CC
:103340005254305F45525200000000000055415277
:1033500054315F52585F5458000000005541525498
:10336000315F455252000000000000554152543276
:103370005F52585F54580000000055415254325F6C
:1033800045525200000000000055415254335F5234
:10339000585F54580000000055415254335F455265
:1033A0005200000000000055415254345F52585FF3
:1033B00054580000000055415254345F45525200A9
:1033C000000000000055415254355F52585F545878
:1033D0000000000055415254355F45525200000034
:1033E00000000041444330000000000000000000E5
:1033F00000004144433100000000000000000000D4
:1034000000434D50300000000000000000000000AC
:10341000434D503100000000000000000000004358
:103420004D50320000000000000000000000465433
:103430004D30000000000000000000000046544D28
:1034400031000000000000000000000046544D3232
:103450000000000000000000000000434D54000088
:103460000000000000000000000052544300000073
:103470000000000000000000005265736572766570
:103480006438330000000000504954300000000050
:10349000000000000000005049543100000000000E
:1034A00000000000000050495432000000000000FD
:1034B00000000000005049543300000000000000EC
:1034C00000000000504442300000000000000000F6
:1034D00000000055534230000000000000000000D2
:1034E0000000555342444344000000000000000027
:1034F00000454E45545F313538385F54696D65720B
:10350000454E45545F5472616E736D697400004599
:103510004E45545F52656365697665000000454E0F
:1035200045545F4572726F720000000000493253CB
:103530003000000000000000000000005344484339
:103540000000000000000000000000444143300083
:103550000000000000000000000044414331000072
:10356000000000000000000000545349300000003B
:1035700000000000000000004D4347000000000074
:10358000000000000000004C5054696D657200009E
:10359000000000000000526573657276656431308A
:1035A0003200000000504F52544100000000000063
:1035B00000000000504F5254420000000000000084
:1035C000000000504F525443000000000000000073
:1035D0000000504F52544400000000000000000062
:1035E00000504F5254450000000000000000000051
:1035F00052657365727665643130380000000052A0
:10360000657365727665643130390000000052657B
:103610007365727665643131300000000052657365
:103620006572766564313131000000005265736562
:103630007276656431313200000000526573657244
:10364000766564313133000000005265736572762F
:10365000656431313400000000526573657276652F
:10366000643131350000000052657365727665641F
:103670003131360000000052657365727665643141
:103680003137000000005265736572766564313130
:103690003800000000526573657276656431313917
:1036A00000000000008003400090034000800B40B9
:1036B00000900B4000F00F4040F00F4080F00F40B2
:1036C000C0F00F4000F10F4066000A1D32000701F4
:1036D000640007106E000406780004088200040AE3
:1036E0008C00040C9600040EA0000410AA00041222
:1036F000B4000414BE000416C8000418D200041A52
:10370000DC00041CE100041DE600041EEB00041FA5
:10371000F4000317FA000318130101062C01021428
:10372000000109080090044000A0044000B00440DB
:1037300000C0044000D0044000C0024000D002405D
:1037400000C00A4000A0064000B0064000C006408D
:1037500000D0064000A00E4000B00E4000007042B5
:10376000000020420000C0400000A0420000C8420B
:103770006A6E6B6C676D4E4F3435363732331211CB
:1037800081000000323312118100000002040101A7
:103790005C1AFF1FAC1AFF1F5C1AFF1F5C1AFF1F89
:1037A0005C1AFF1F590DFF1F400DFF1F0000000096
:1037B0000000000000000000000000000000000009
:1037C0000000000000000000000000006400000095
:1037D00008210122DFF8DC321A6000BF0022DFF886
:1037E000D8321A6000BF0A00511ED2B2002A15D08A
:1037F000020604D50122DFF8C4321A6003E0002279
:10380000DFF8B8321A600122DFF8AC321A6000BF6C
:103810000022DFF8A4321A604000E4E7704700009D
:1038200008210022DFF88C321A600022DFF888328B
:103830001A600A00511ED2B2002A15D0020604D521
:103840000122DFF878321A6003E00022DFF86C32E0
:103850001A600122DFF860321A6000BF0022DFF830
:1038600058321A604000E4E7704738B504000D0094
:10387000B5F15000C0B2FFF7D3FFE4B2200950F019
:103880001000C0B2FFF7CCFF14F00F00FFF7C8FF25
:1038900031BD70B5040000200500EDB2082D17DA27
:1038A000B5F15000C0B2FFF7BBFF0120FFF7B8FF32
:1038B0001020FFF7B5FF00200600F6B2802E05DAD3
:1038C0002000C0B2FFF784FF761CF6E76D1CE4E72A
:1038D00070BD002808D043F2264211000A00511E94
:1038E000002AFBD1401EF4E7704780B50022012179
:1038F000532000F009FB00220121522000F004FBBC
:1039000001220121512000F0FFFA00220121502064
:1039100000F0FAFA0020DFF8E81508603220FFF71F
:10392000D8FF0120DFF8D8150860AE20FFF778FF38
:103930000020FFF775FF1020FFF772FF4020FFF710
:103940006FFF8120FFF76CFFCF20FFF769FFA120F9
:10395000FFF766FFC820FFF763FFA620FFF760FFB1
:10396000A820FFF75DFF3F20FFF75AFFD320FFF7A6
:1039700057FF0020FFF754FFD520FFF751FF8020AD
:10398000FFF74EFFD920FFF74BFFF120FFF748FF6D
:10399000DA20FFF745FF1220FFF742FFDB20FFF799
:1039A0003FFF4020FFF73CFF2020FFF739FF0220B8
:1039B000FFF736FF8D20FFF733FF1420FFF730FFAE
:1039C000A420FFF72DFFA620FFF72AFFAF20FFF767
:1039D00027FF0020FFF75DFF00210020FFF745FFD4
:1039E00001BD2DE9F84304000D00160000275FF02B
:1039F00000085FF000095FFA89F919F8060000284D
:103A00002BD05FFA89F919F8060020380700E4B2D4
:103A10007F2C02DB002004006D1C2900C9B22000AD
:103A2000C0B2FFF722FF002080465FFA88F8B8F1A5
:103A3000060F0EDADFF8CC04FFB2062101FB070007
:103A40005FFA88F818F80000FFF7C2FE18F10108C5
:103A5000EBE7A41D19F10109CDE7BDE8F1832DE9DC
:103A6000F04104008846150000260027B5F120002B
:103A70000600E4B27B2C03DB0020040018F10108EF
:103A80004146C9B22000C0B2FFF7EFFE0020070098
:103A9000FFB2062F0BDADFF86C04F6B2062101FB49
:103AA0000600FFB2385CFFF793FE7F1CF0E7BDE82D
:103AB000F08100004C10FE434010FE434410FE43D2
:103AC0002DE9F84F04000D0016001F002E222900DA
:103AD000C9B22000C0B2FFF7C2FF4FF47A70B6FB44
:103AE000F0F080464FF47A70B6FBF0F100FB116005
:103AF0006421B0FBF1F081466420B6FBF0F100FBDD
:103B000011600A21B0FBF1F082460A20B6FBF0F109
:103B100000FB11608346FFB2012F06D068D3032F4C
:103B200021D00CD3042F3CD062E01BF13002D2B282
:103B30002900C9B2A01DC0B2FFF791FF58E01AF1E9
:103B40003002D2B22900C9B2A01DC0B2FFF787FF70
:103B50001BF13002D2B22900C9B214F10C00C0B27C
:103B6000FFF77DFF44E019F13002D2B22900C9B25B
:103B7000A01DC0B2FFF773FF1AF13002D2B22900C4
:103B8000C9B214F10C00C0B2FFF769FF1BF130029B
:103B9000D2B22900C9B214F11200C0B2FFF75FFF20
:103BA00026E018F13002D2B22900C9B2A01DC0B27D
:103BB000FFF755FF19F13002D2B22900C9B214F152
:103BC0000C00C0B2FFF74BFF1AF13002D2B229004D
:103BD000C9B214F11200C0B2FFF741FF1BF130026D
:103BE000D2B22900C9B214F11800C0B2FFF737FFF2
:103BF000BDE8F18F000000002DE9F84F2DED028B9C
:103C000082B004008B46B0EE408A150006275FF0B4
:103C10000008BDEEC80A10EE109ABDEEC80AB8EE54
:103C2000C00A38EE400ADFEDB40A20EE200ABDEEED
:103C3000C00A10EE10AA9FEDB10AB4EE408AF1EE70
:103C400010FA07D52D225946C9B22000C0B2FFF79D
:103C500006FF06E02B225946C9B22000C0B2FFF78A
:103C6000FEFEB9F1000F01D5D9F10009C84642F2B4
:103C70001070B8FBF0F08DF8030042F21070B8FB42
:103C8000F0F100FB11804FF47A71B0FBF1F08DF888
:103C900002004FF47A70B8FBF0F100FB1180642150
:103CA000B0FBF1F08DF801006420B8FBF0F100FBEF
:103CB00011800A21B0FBF1F08DF800000A20B8FB5A
:103CC000F0F100FB118006009DF80300002839D0B8
:103CD0009DF8030010F13002D2B25946C9B2A01DBE
:103CE000C0B2FFF7BCFE9DF8020010F13002D2B264
:103CF0005946C9B214F10C00C0B2FFF7B0FE9DF8EE
:103D0000010010F13002D2B25946C9B214F11200CA
:103D1000C0B2FFF7A4FE9DF8000010F13002D2B24D
:103D20005946C9B214F11800C0B2FFF798FE16F157
:103D30003002D2B25946C9B214F11E00C0B2FFF728
:103D40008EFE82E09DF8020000282FD0052007009B
:103D50009DF8020010F13002D2B25946C9B2A01D3E
:103D6000C0B2FFF77CFE9DF8010010F13002D2B224
:103D70005946C9B214F10C00C0B2FFF770FE9DF8AD
:103D8000000010F13002D2B25946C9B214F112004B
:103D9000C0B2FFF764FE16F13002D2B25946C9B282
:103DA00014F11800C0B2FFF75AFE4EE09DF8010072
:103DB000002823D0042007009DF8010010F13002F4
:103DC000D2B25946C9B2A01DC0B2FFF748FE9DF855
:103DD000000010F13002D2B25946C9B214F10C0001
:103DE000C0B2FFF73CFE16F13002D2B25946C9B25A
:103DF00014F11200C0B2FFF732FE26E09DF8000079
:103E0000002817D0032007009DF8000010F13002B1
:103E1000D2B25946C9B2A01DC0B2FFF720FE16F1BA
:103E20003002D2B25946C9B214F10C00C0B2FFF749
:103E300016FE0AE00220070016F13002D2B25946FF
:103E4000C9B2A01DC0B2FFF70AFEBAF1000F01D53A
:103E5000DAF1000AEDB2002D06D0022D17D004D3FE
:103E6000042D36D024D342E041E02B00DBB24FF4E6
:103E70007A709AFBF0F25946C9B2FFB2062000FBF5
:103E800007F050FA84F0C0B2FFF71AFE2FE02B00C3
:103E9000DBB264209AFBF0F25946C9B2FFB20620A9
:103EA00000FB07F050FA84F0C0B2FFF709FE1EE0F5
:103EB0002B00DBB20A209AFBF0F25946C9B2FFB2DE
:103EC000062000FB07F050FA84F0C0B2FFF7F8FDBF
:103ED0000DE02B00DBB252465946C9B2FFB20620B4
:103EE00000FB07F050FA84F0C0B2FFF7E9FD02B022
:103EF000BDEC028BBDE8F18F00401C4695BFD63368
:103F00004810FE43F06B000070B504000D00160071
:103F10004FF480712000C0B200F08AF86DB2002D1D
:103F200011D14148E4B2611150F821003E49E4B298
:103F3000621151F822104969012214F01F039A40BE
:103F40009143416136E03848E4B2611150F82100F4
:103F50003549E4B2621151F822104969012214F086
:103F60001F039A4011434161F6B2002E11D12E4831
:103F7000E4B2611150F821000068012114F01F0221
:103F8000914088432849E4B2621151F82210086038
:103F900010E02548E4B2611150F8210000680121C9
:103FA00014F01F02914008431F49E4B2621151F816
:103FB0002210086070BD10B504001B48E4B2611106
:103FC00050F82100406914F01F01C840C00703D415
:103FD0007B21164800F099F81348E4B2611150F8BB
:103FE0002100012114F01F029140C16010BD10B5E5
:103FF00004000D48E4B2611150F82100406914F04A
:104000001F01C840C00703D58C21084800F07DF887
:104010000548E4B2611150F82100006914F01F0155
:10402000C84010F0010010BD440CFF1F7C7300005D
:1040300010B4294A12684FF40073C0B24409A34077
:104040001A43254B1A60254AC0B2431152F8232067
:10405000012310F01F04A340C2F8A0301F4AC0B2D1
:10406000431152F82320C0B210F01F0342F823106E
:1040700010BC704710B4184A12684FF40073C0B2F5
:104080004409A3401A43144B1A60144AC0B24311A6
:1040900052F82320012310F01F04A340C2F8A030DF
:1040A00031F4E0610D4AC0B2431152F82320C0B28E
:1040B00010F01F0352F8232012F4E0621143074A64
:1040C000C0B2431152F82320C0B210F01F0342F8CF
:1040D000231010BC7047000038800440B40CFF1F50
:1040E000DFF800F08D0DFF1FDFF800F0B10DFF1FAE
:1040F000BFF34F8F4648006810F4E060454908431D
:1041000043490860BFF34F8FFEE738B504000D0048
:10411000002000F08DF82A0021003F4800F0C0F890
:10412000002000F0A2F84FF47A7000F0E6F8F2E711
:1041300038B504000D00210049B2032000F000FA58
:10414000200032BD10B50024042000F025FA042020
:1041500000F058FA002841D1002000F069F804204E
:1041600000F050FA012801D101200400002000F0E5
:104170007CF82A4800F094F84FF4FA7000F0BDF88B
:10418000E4B2012CEBD1042000F03CFA0028E6D187
:10419000042000F037FA002806D1002000F065F86E
:1041A000642000F0AAF8F3E7042000F02BFA0128BD
:1041B00006D1002000F059F8322000F09EF8F3E715
:1041C000174800F06DF8FFF78BFF642000F095F8BA
:1041D0000020FFF789FFFFF78BFFC0E710BD10B588
:1041E00010480468012000F023F8012000F03DF899
:1041F0000D48E4B20F2101FB0402E4B221000B4898
:1042000000F04EF84FF47A7000F077F8EDE7000018
:104210000CED00E00400FA05607400007C750000FD
:10422000FC74000004ED00E02C05FF1F7872000014
:1042300010B5040064B2042C07DA012201211748EA
:1042400064B2205CFFF760FE0EE004200400200052
:10425000441E40B2002807D0012201210F4864B259
:10426000205CFFF751FEF2E710BD10B5040064B208
:10427000042C05DA094864B2205CFFF79CFE0CE0D0
:10428000042004002000441E40B2002805D003484A
:1042900064B2205CFFF78FFEF4E710BD080DFF1F2E
:1042A0000EB400B582B003A90091024600AB012113
:1042B000034878440A30FCF7AFF806BC5DF810FB01
:1042C0009932000010B50400002C15D0B4F1807FA5
:1042D00003D329210F48FFF718FF00200E4908607B
:1042E0000E48046000200E49086005200A49086055
:1042F00009480068C003FBD510BD10B504002000BC
:10430000441E002804D007480068FFF7DBFFF6E7EB
:1043100010BD0000E872000010E000E014E000E0D2
:1043200018E000E04810FF1F2DE9F84304000D00DD
:1043300064B2002C08D0022C2CD018D3042C4FD0FF
:104340003BD3052C5FD071E0DFF83402006850F4F5
:104350008060DFF82C1208604FF440716620FFF790
:1043600067FE4FF440716720FFF762FE5EE0DFF802
:104370001002006850F40060DFF8041208604FF487
:1043800040714320FFF754FE4FF440714420FFF783
:104390004FFE4BE0DFF8E801006850F48050DFF892
:1043A000E01108604FF440716320FFF741FE4FF4C5
:1043B00040716220FFF73CFE38E0DFF8C40100687E
:1043C00050F40050DFF8B81108604FF440715020ED
:1043D000FFF72EFE4FF440715120FFF729FE25E034
:1043E000DFF8A001006850F48060DFF898110860E1
:1043F0004FF440714E20FFF71BFE4FF440714F20E9
:10440000FFF716FE12E0DFF87C01006850F4006050
:10441000DFF8701108604FF440718920FFF708FE43
:104420004FF440718820FFF703FEFFE7DFF85801E3
:1044300064B250F82400C07810F0F300DFF848119F
:1044400064B251F82410C870DFF83C0164B250F82F
:1044500024008078DFF8301164B251F8241088709D
:1044600064B2002C02D064B2012C07D1DFF81C0129
:1044700000684FF47A714843814606E0DFF8100186
:1044800000684FF47A71484381462801B9FBF0F087
:104490000600B6B2B6F5005F02DB41F6FF7006001B
:1044A000B9FBF5F0B6B2B0EB06100700BFB2202F93
:1044B00003DBDC213748FFF728FE334864B250F8AD
:1044C0002400007810F0E0008046B6B2300A10F008
:1044D0001F0050EA08002C4964B251F824100870FB
:1044E000294864B250F824004670274864B250F856
:1044F0002400807A10F0E000804617F01F0050EA98
:104500000800214964B251F8241088721E4864B230
:1045100050F82400007C50F088001B4964B251F828
:1045200024100874184864B250F82400C07850F081
:104530000C00154964B251F82410C870BDE8F1832D
:10454000114A40B252F8202012791206F8D50E4ACC
:1045500040B252F82020D171704770B504000D00B0
:1045600016003000461E002808D095F9001049B208
:10457000200040B2FFF7E4FF6D1CF2E770BD0000C1
:104580003480044028800440D40CFF1F4810FF1FD3
:104590005010FF1FDC73000010B5040064B2082C3B
:1045A0000DDA00220021224864B2205CFFF7ACFC47
:1045B00003211F4864B2205CFFF75CFD14E0082073
:1045C00004002000441E40B200280DD0002200212B
:1045D000174864B2205CFFF797FC0321144864B2CB
:1045E000205CFFF747FDECE710BD10B50400104854
:1045F00064B2205CFFF7FBFC002801D1002000E042
:10460000012010BD10B50400200040B2FFF7EDFFFF
:1046100000280AD10A20FFF770FE200040B2FFF701
:10462000E4FF002801D1002000E0012010BD0000BF
:10463000000DFF1F38B504000D0064B2002C06D039
:10464000022C69D04CD3032C00F08280C7E0DFF845
:10465000B805006850F08070DFF8AC1508606DB2E6
:10466000002D0BD0022D15D00ED3042D1ED017D344
:10467000062D27D020D3072D2AD02FE04FF48061BC
:104680004120FFF7D5FC2AE04FF440710420FFF7EA
:10469000CFFC24E04FF440710520FFF7C9FC1EE079
:1046A0004FF440710620FFF7C3FC18E04FF480611F
:1046B0006420FFF7BDFC12E04FF480616520FFF736
:1046C000B7FC0CE04FF480616620FFF7B1FC06E018
:1046D0004FF480616720FFF7ABFC00E07FE07EE0F5
:1046E000DFF82405006850F00070DFF81C15086042
:1046F0006DB2002D02D0012D06D00BE04FF44071B9
:104700000C20FFF795FC06E04FF440710D20FFF7F9
:104710008FFC00E063E062E0DFF8F004006850F036
:104720008070DFF8E81408606DB2002D02D0012D12
:1047300006D00BE04FF440710A20FFF779FC06E049
:104740004FF440710B20FFF773FC00E047E046E0B8
:10475000DFF8B804006850F00070DFF8B0140860AB
:104760006DB2002D0BD0022D15D00ED3042D1ED00E
:1047700017D3062D27D020D3072D2AD02EE04FF4B3
:10478000C0618520FFF754FC28E04FF4C06186200B
:10479000FFF74EFC22E04FF4C0618720FFF748FC92
:1047A0001CE04FF4C0618820FFF742FC16E04FF494
:1047B000C0618920FFF73CFC10E04FF4C0618A2003
:1047C000FFF736FC0AE04FF4C0618B20FFF730FCA6
:1047D00004E04FF4C0618C20FFF72AFCFFE731BDF5
:1047E0002DE9F84F04000D0016001F0064B2002CE4
:1047F00011D064B2012C02D064B2022C02D16DB28D
:10480000022D08DB64B2032C05D040F28511DFF8DD
:104810000004FFF77AFC290049B2200040B2FFF7FC
:1048200009FFDFF8F00300684FF47A7148438046CF
:104830005FEA1840B0FBF6F08146002082461FFA7E
:1048400089F959FA0AF0012802DB1AF1010AF6E7A0
:104850005FFA8AFABAF1080F05DB4FF4D071DFF87E
:10486000B003FFF752FC38FA0AF0B0FBF6F08146CD
:104870001FFA89F9DFF8A00364B240F8249064B20B
:10488000002C05D0022C1AD00ED3032C23D02EE0FE
:104890001FFA89F919F1010000FB07F042F21071CB
:1048A000B0FBF1F0834622E01FFA89F919F101000B
:1048B00000FB07F06421B0FBF1F0834617E01FFA1C
:1048C00089F919F1010000FB07F04FF47A71B0FB90
:1048D000F1F083460BE01FFA89F919F1010000FBA2
:1048E00007F042F21071B0FBF1F08346FFE7DFF80A
:1048F0002C0364B250F824006DB210EBC500DFF851
:104900001C1364B251F824106DB211EBC501C968D3
:1049100031F00401C160DFF8040364B250F82400F0
:104920006DB210EBC5002821C1605FFA8AFA1AF057
:10493000070050F00800DFF8E41264B251F82410C8
:1049400008601FFA89F9DFF8D40264B250F8240035
:10495000C0F808900020DFF8C41264B251F82410A7
:10496000C864DFF8B80264B250F824006DB210EBEE
:10497000C5001FFA8BFBC0F810B00020DFF89C12B6
:1049800064B251F824104860BDE8F18F2DE9F04180
:1049900004000D0016005FF0000864B2002C11D076
:1049A00064B2012C02D064B2022C02D16DB2022D8D
:1049B00008DB64B2032C05D04FF4F371DFF850022A
:1049C000FFF7A3FB64B2002C05D0022C17D00DD347
:1049D000032C1ED028E042F21170864205D34FF41A
:1049E000F671DFF82C02FFF790FB1DE0652E05D372
:1049F0004FF4F871DFF81802FFF787FB14E0B6F503
:104A00007A7F05D94FF4FA71DFF80402FFF77DFBD6
:104A10000AE042F21170864205D340F2F911DFF844
:104A2000F001FFF772FBFFE7DFF8EC0164B250F82A
:104A30002400804664B2002C05D0022C16D00CD382
:104A4000032C1DD026E018F1010000FB06F042F215
:104A50001071B0FBF1F007001CE018F1010000FB41
:104A600006F06421B0FBF1F0070013E018F101003B
:104A700000FB06F04FF47A71B0FBF1F0070009E09B
:104A800018F1010000FB06F042F21071B0FBF1F0EA
:104A90000700FFE7DFF8840164B250F824006DB22C
:104AA00010EBC5000761BDE8F08110B5040064B2E9
:104AB000012C07D064B2022C04D040F2DB21544810
:104AC000FFF723FB64B22000012802D0022811D096
:104AD00021E04D48006850F000704B4908604FF4E9
:104AE000C0612020FFF7A4FA4FF4C0612120FFF736
:104AF0009FFA15E04548006850F08070434908600F
:104B00004FF4C0613220FFF793FA4FF4C0610B20DD
:104B1000FFF78EFA04E040F213313D48FFF7F5FA53
:104B20003E4864B250F82400406D50F004003B4908
:104B300064B251F824104865384864B250F8240033
:104B4000D0F8800050F00800344964B251F82410C5
:104B5000C1F880000020314964B251F82410C864C3
:104B60004FF6FF702D4964B251F8241088602B482D
:104B700064B250F82400D0F8800050F001002749BA
:104B800064B251F82410C1F88000244864B250F88F
:104B90002400406D50F00100204964B251F8241007
:104BA000486500201D4964B251F82410486010BDCA
:104BB00038B5040064B2012C07D064B2022C04D0D2
:104BC0004FF44C711248FFF7A0FA144864B250F841
:104BD000240040680500280000B232BD10B5040072
:104BE00064B2012C07D064B2022C04D040F23E31F2
:104BF0000748FFF78AFA0020084964B251F82410E8
:104C0000486010BD000000003C800440308004403B
:104C10004C7300005010FF1F900FFF1F340CFF1F3C
:104C200010B5040024B2002C0BD424B222000521BC
:104C30000020FFF7ABFE002204210020FFF7A6FEB4
:104C40000AE0002205210020FFF7A0FE24B2624204
:104C500004210020FFF79AFE10BD80B50120FFF768
:104C6000A7FF4042DFF8541408800120FFF7B6FF89
:104C70000120FFF7B3FF01BDDFF8440490ED000A07
:104C8000B5EE400AF1EE10FA04DDDFF8340490EDE1
:104C9000000A05E0DFF8280490ED000AB1EE400AB2
:104CA000DFED7F0AB4EE600AF1EE10FA10D5DFF8FE
:104CB00014040078401CDFF80C140870DFF80404BA
:104CC00000781F2808DB1E20DFF8F813087003E0C7
:104CD0000020DFF8F0130870DFF8E80300780628FA
:104CE00010DBDFF8E403007800280BD10120DFF8A7
:104CF000D81308700020DFF8D41308700020DFF804
:104D0000D0130870DFF8C0030078012859D1DFF80C
:104D1000BC030078002854D1DFF8B40300780028E1
:104D20004FD1DFF89C0390ED000AB5EE400AF1EE9A
:104D300010FA04DDDFF8880390ED000A05E0DFF8E3
:104D4000800390ED000AB1EE400AF1EE020AB4EEE3
:104D5000600AF1EE10FA34DBDFF8640390ED010A2B
:104D6000B5EE400AF1EE10FA04DDDFF8540390EDE1
:104D7000010A05E0DFF8480390ED010AB1EE400AB0
:104D8000F1EE020AB4EE600AF1EE10FA19DB01202E
:104D9000DFF8381308700020DFF82C1308700020AB
:104DA000DFF82C130870DFF82C030078012804D1F9
:104DB0000120DFF82413087003E00020DFF8181347
:104DC0000870C2480078012849D1C14800780028FD
:104DD00045D1BD480078002841D1B94890ED000A7E
:104DE000B5EE400AF1EE10FA03DDB54890ED000A89
:104DF00004E0B34890ED000AB1EE400AF2EE040A76
:104E0000B4EE600AF1EE10FA29DBAD4890ED010A2C
:104E1000B5EE400AF1EE10FA03DDA94890ED010A63
:104E200004E0A74890ED010AB1EE400AF2EE040A50
:104E3000B4EE600AF1EE10FA11DB0020A34908700D
:104E40000120A349087000209F4908700020A34951
:104E5000087000209F49087000209F4908709A48F8
:104E6000007801281BD199480078002817D198486C
:104E70000078002813D19148B0F90000A02804DB85
:104E800096480078401C9549087094480078152889
:104E900005DB01208F490870002090490870704799
:104EA0000100904038B58E480068012806D1502096
:104EB0008C4908808C488D4908600EE08C48006859
:104EC000012803D178208749088006E089480068D6
:104ED000012802D18C2083490880874890ED000A80
:104EE000DFED740A20EE200AB5EE400AF1EE10FA6A
:104EF0000BDD814890ED000ADFED6E0A20EE200AFE
:104F0000BDEEC00A10EE101A0AE07B4890ED000AD0
:104F1000DFED690A20EE200ABDEEC00A10EE101A7D
:104F2000674890ED000AF2EE040A20EE200AB5EE82
:104F3000400AF1EE10FA0BDD614890ED000AF2EE46
:104F4000040A20EE200ABDEEC00A10EE100A0AE0A4
:104F50005B4890ED000AFAEE040A20EE200ABDEE4E
:104F6000C00A10EE100A09B200B2FDF7DBFA5D4983
:104F700008806248408861498880604800885F49AD
:104F80004880584800885D4908805C48B0F90000B6
:104F9000FCF7ACFB5FF06632594BFCF785F9040077
:104FA0000D005648B0F90200FCF7A0FB554A564BDD
:104FB000FCF77AF922002B00FCF7B0FC04000D008E
:104FC0004E48B0F90400FCF791FB4E4A4F4BFCF7FA
:104FD0006BF922002B00FCF7A1FCFCF75BFB4149BD
:104FE00008804B4840884A49888049480088484999
:104FF00048803C48008831490988401A4449088063
:10500000444800684249B1F90010414AB2F902200F
:10501000891A00EE101AB8EEC00A3F49D1ED000A15
:1050200020EE200A3A49B1F9001000EE901AF8EE8D
:10503000E00A3A4991ED001A00EE810A3449B1F9CB
:105040000010334AB2F90220B1EB4201304AB2F902
:105050000420891800EE901AF8EEE00A304991ED2C
:10506000001A00EE810ABDEEC00A10EE101A0818F0
:10507000284908602748006842F22931884203DB4A
:1050800042F22830234908602248006825498842B6
:1050900002DA24481F49086023480078012802D119
:1050A00000201C4908601B48006800B2FFF7B8FDEB
:1050B00031BD00000000C8420000C8C2B21AFF1F84
:1050C0002010FF1FBE1AFF1FBF1AFF1FC01AFF1FAD
:1050D000C11AFF1FC21AFF1FC31AFF1FC51AFF1FE5
:1050E0003802FE43B41AFF1FB004FF1F8C0FFF1FCE
:1050F0003C02FE434002FE431C10FF1FB80FFF1F7F
:105100006666E63F9A9999999999C93F9999B93FE5
:10511000B00FFF1FAC0FFF1FEC0CFF1FF00CFF1FA9
:10512000C00FFF1FD8DCFFFFC41AFF1F80B500238C
:1051300041F2707204210020FFF752FB002341F27C
:10514000707205210020FFF74BFB01BD80B50023E5
:105150004FF4967200210220FFF742FB01BD80B59B
:10516000012200213220FEF7CFFE01220021332050
:10517000FEF7CAFE012200213420FEF7C5FE0122FF
:1051800000213520FEF7C0FE002200210E20FEF790
:10519000BBFE002200210F20FEF7B6FE00220021F8
:1051A0001020FEF7B1FE002200211120FEF7ACFE18
:1051B000002200211220FEF7A7FE0022002113206A
:1051C000FEF7A2FE012201218820FEF79DFE0122AA
:1051D00001218920FEF798FE012201218A20FEF795
:1051E00093FE012201218C20FEF78EFE01BD80B5C9
:1051F00000F0E6F9002200210B20FEF785FED249DF
:105200000B20FEF715FF01BD80B52A2000F02EFA15
:105210002B2000F02BFA2C2000F028FA2D2000F093
:1052200025FA2E2000F022FA2F2000F01FFA00208D
:10523000C6490870C5480078062822DA0020C4490B
:10524000C24A127850540020C149C04A12785118FD
:1052500088710020BE49BD4A127851180873002099
:10526000BB49BA4A1278511888740020B849B74A25
:10527000127851180876B5480078401CB349087078
:10528000D8E701BD80B5B3480078012840F0B6806A
:105290000122AF48807900EE100AB8EE400A0021E2
:1052A0000020FEF7A9FC0122A948007800EE100AB0
:1052B000B8EE400A00212D20FEF79EFC0122A448F2
:1052C000007B00EE100AB8EE400A00215A20FEF7DB
:1052D00093FCA14A01210020FEF783FB01229F4895
:1052E000008800EE100AB8EE400A01212320FEF7E4
:1052F00083FC9B4A02210020FEF773FB01229948A0
:1053000090ED000A02211920FEF776FC964A03214F
:105310000020FEF766FB01229448B0F9000000EE81
:10532000100AB8EEC00A03211920FEF765FC904A66
:1053300003214120FEF755FB01228E4890ED000A23
:1053400003215F20FEF758FC8B4A04210020FEF762
:1053500048FB01228948B0F9000000EE100AB8EEBF
:10536000C00A04211920FEF747FC74A2042146203C
:10537000FEF737FB01228248B0F9000000EE100A68
:10538000B8EEC00A04215A20FEF736FC7D4A0521FA
:105390000020FEF726FB02227B4890ED000A052143
:1053A0002320FEF729FC794A06210020FEF719FB8D
:1053B0000122774890ED000A06212820FEF71CFC08
:1053C0000122744890ED000A06215020FEF714FCDB
:1053D000714A07210020FEF704FB01226F4890ED7F
:1053E000000A07212820FEF707FC01226C4890EDF7
:1053F000000A07215020FEF7FFFB33E055480078F4
:1054000002282FD1674A00210020FEF7EAFA012284
:105410006548007800EE100AB8EE400A00211E2010
:10542000FEF7EAFB46A201210020FEF7DAFA01228C
:105430005E48007800EE100AB8EE400A01211E20F6
:10544000FEF7DAFB5A4A02210020FEF7CAFA0122CF
:105450005848007800EE100AB8EE400A02211E20DB
:10546000FEF7CAFB54480068002811D10020FEF75F
:1054700010FA38480078401C3649087035480078E2
:10548000032802DB012033490870C820FEF735FFEE
:1054900001BD000080B52E48807900EE100AB8EEFC
:1054A000400A464880ED000A2948007800EE100ABC
:1054B000B8EE400A414880ED010A2548007B00EE25
:1054C000100AB8EE400A3D4880ED020A254890EDEA
:1054D000000AF2EE040A20EE200A384880ED030AA2
:1054E000244890ED000ADFED170A20EE200A334829
:1054F00080ED040A2148B0F9000000EE100AB8EE71
:10550000C00A2E4880ED050A214890ED000ADFED23
:105510000D0A20EE200A294880ED060A1348B0F94A
:10552000000000EE100AB8EEC00A244880ED070A19
:105530002021224800F032FA01BD000053703A00E9
:1055400072753A000000C84203010B00C61AFF1F23
:10555000C40FFF1F1004FF1F9C750000AE1AFF1F31
:10556000A47500002010FF1FAC750000B61AFF1FC5
:10557000B47500001C10FF1FBC750000B21AFF1F9D
:10558000B41AFF1FC47500001810FF1FCC7500006F
:10559000F40CFF1FF80CFF1FD4750000EC0CFF1F6C
:1055A000F00CFF1FDC750000BF1AFF1FC01AFF1FA1
:1055B000E4750000C11AFF1F4C0AFE434C0FFF1F89
:1055C0002448006850F40000224908600020224965
:1055D00008605FF0FF30214908602148006850F002
:1055E00001001F490860704738B504000D00002D08
:1055F00003D12C211B48FEF788FD1648006850F4A3
:10560000000014490860002013490860681E16490C
:1056100064B222015050144864B210EB0410C06808
:1056200050F00100104964B211EB0411C8600E483B
:1056300064B210EB04108068400840000A4964B26C
:1056400011EB041188600320074964B211EB0411C7
:10565000886031BD3C8004400070034010710340FD
:105660001C710340AC7300000071034038B50400A6
:1056700064B26511EDB2002D02D0012D11D021E0F0
:10568000C148006850F00060BF490860BF4800682A
:1056900030F09000BD490860BC480068BB49086014
:1056A00014E0BB48006850F00060B9490860B74892
:1056B000006830F41040B5490860B4480068B34948
:1056C000086003E03321B348FEF71FFD64B22000F9
:1056D000002800F08980012800F08680032800F06F
:1056E000838008284ED0092851D00A2854D00B288E
:1056F00057D00C285AD00D285DD00E2860D00F2826
:1057000063D0102870D0112864D0122867D01328D5
:105710006AD0142868D01A2866D01D2864D01E28A4
:1057200062D0202861D021285FD023285DD0242892
:105730005CD025285FD0262862D0272865D028286D
:1057400068D029286BD02A286ED02B2871D02C281D
:1057500074D02D2877D02E287AD02F287DD03028CD
:1057600000F0858031287DD0322800F080803328F9
:105770007DD034287BD03A2879D03D2877D03E2878
:1057800075D075E000212020FEF752FC74E0002166
:105790002120FEF74DFC6FE000210720FEF748FCBA
:1057A0006AE000210820FEF743FC65E0002122208A
:1057B000FEF73EFC60E000212320FEF739FC5BE0B1
:1057C00000214020FEF734FC56E000214120FEF786
:1057D0002FFC51E000219820FEF72AFC4CE000212C
:1057E0009920FEF725FC47E046E045E000218020B7
:1057F000FEF71EFC40E000218120FEF719FC3BE093
:1058000000218220FEF714FC36E000218320FEF701
:105810000FFC31E000212020FEF70AFC2CE00021E3
:105820002120FEF705FC27E000212420FEF700FCE4
:1058300022E000212520FEF7FBFB1DE000212620B1
:10584000FEF7F6FB18E000212720FEF7F1FB13E03E
:1058500000212A20FEF7ECFB0EE000212B20FEF7B2
:10586000E7FB09E000211120FEF7E2FB04E003E082
:105870009A214848FEF749FC31BDF8B504000D00F7
:1058800064B266110027290049B2200040B200F03E
:1058900059F8414876B250F8260000680006F8D55D
:1058A0003D4876B250F82600006907003A4876B2C3
:1058B00050F82600006830F08000374976B251F881
:1058C00026100860380080B2F2BD2DE9F84F0400C0
:1058D0000D0016005FF000085FF0000A4FF0FF0BAC
:1058E000002007003000C0B2BFB280B2874218D299
:1058F000290049B2200040B2FFF7BFFF814658FAA5
:1059000089F85FFA8AFA5FFA89F9CA4500D2CA466D
:105910005FFA89F95FFA8BFBD94500D2CB467F1C31
:10592000E0E75FFA8BFBB8EB0B005FFA8AFAB0EBAB
:105930000A081FFA88F8F6B2B01E98FBF0F080B2A1
:10594000BDE8F28F30B440B2421110F01F0349B2EB
:105950008C0014F00C0454F050040F4D52B255F862
:105960002250AC6004240C4D52B255F82250EC6029
:10597000DBB213F01F0454F04004074D52B255F847
:1059800022502C6030BC70473C800440188004409A
:10599000308004401C7300002405FF1F38B504004C
:1059A0000D000C480088ADF802000B480088ADF8E7
:1059B000000002220DF102010320FEF7CEFD2A00B5
:1059C00021000320FEF7C9FD022200A90320FEF7F3
:1059D000C4FD31BDCA5E0000B874000038B50520B2
:1059E000DFF8A4130870DFF8A0030078002849D07E
:1059F000DFF89803DFF890130978081810F8010C05
:105A0000DFF88813DFF8802312785054DFF87C0326
:105A1000DFF87413097808184079DFF87013DFF89D
:105A20006823127851188871DFF86003DFF8581383
:105A300009780818C07ADFF85413DFF84C2312787D
:105A400051180873DFF84403DFF83C13097808188D
:105A5000407CDFF83813DFF830231278511888744F
:105A6000DFF82803DFF8201309780818C07DC7493C
:105A7000C54A127851180876C3480078401EC249BA
:105A80000870B0E70F2200212C20FFF71EFFBF494E
:105A900088710F2200212E20FFF717FFBB490870E5
:105AA0000F2200212F20FFF710FFB84908730A22A8
:105AB00000210D20FFF709FFFBF722FEB44AB54B8A
:105AC000FBF7F2FB00F092F9B3490860AF480078A9
:105AD000FBF716FE5FF06632B04BFBF7E5FB040008
:105AE0000D00AA484078FBF70BFEAD4AAD4BFBF723
:105AF000DBFB22002B00FBF711FF04000D00A34885
:105B00008078FBF7FDFDA64AA74BFBF7CDFB2200F3
:105B10002B00FBF703FFFBF7BDFD9C49087031BD6F
:105B20002DE9F04199488079060098480078804630
:105B30009648007B07001FFA88F8B8F1650F03DB71
:105B40009A48002101601CE01FFA88F84046FBF7E4
:105B5000D7FD0022964BFBF7A7FB04000D009548EC
:105B6000006800F08BF902000B0020002900FBF711
:105B70006DFC0022904BFBF7D1FE00F037F98B490A
:105B800008608A4890ED010AB5EE400AF1EE10FA7D
:105B900003DD864890ED010A04E0844890ED010A97
:105BA000B1EE400ADFED740AB4EE600AF1EE10FACD
:105BB00010DB7E4890ED010AB5EE400AF1EE10FAD6
:105BC0002BDD7A48794991ED000AB1EE400A80ED6B
:105BD000000A22E0B6B2BFB2BE420BD2734873498C
:105BE00091ED000AB1EE400A80ED000A01207349F0
:105BF000087012E0BFB2B6B2B7420ED16F4800785B
:105C000001280AD16948694991ED000AB1EE400ABC
:105C100080ED000A002069490870BDE8F0810000AD
:105C200080B5624890ED000A6048D0ED010A30EE80
:105C3000600A634880ED000A614890ED000ADFEDDC
:105C40004F0AB4EE600AF1EE10FA03DB5C485D49DE
:105C500001600CE05A4890ED000ADFED490AB4EE0D
:105C6000600AF1EE10FA02D55548454901604F48E7
:105C700090ED010A5248D0ED000A30EE200A4B4860
:105C800080ED000A494849498968C1604748474949
:105C90004968816045484549096841604A484B491F
:105CA00008604B484B490860454890ED000ADFED1D
:105CB000350A60EE200A3D4890ED000AB2EE041A63
:105CC00020EE010AFBF7A0FE10EE100A00F0D6F855
:105CD0000022414BFBF7BAFB00F088F83F4908600F
:105CE0003E4890ED000A3148D0ED000A20EE200A2F
:105CF0003B48D0ED000A324890ED001A00EE810AD0
:105D0000BDEEC00A10EE100A00F2BD103549088041
:105D1000324890ED000A2548D0ED000A20EE200A16
:105D20002F48D0ED000A264890ED001A00EE810AB7
:105D3000BDEEC00A10EE100A2B4908802948B0F9C0
:105D4000000040F22221884204DB40F22120254954
:105D5000088009E02348B0F90000B0F5AC7F03DC0F
:105D600040F259101F4908801E48B0F90020002158
:105D70000220FEF70BFE01BD0100C0406766263F12
:105D8000666626BF0000C842C61AFF1FC40FFF1F69
:105D9000367C037A7EA4A43F1810FF1F6666E63F98
:105DA0009A9999999999C93F9999B93F2010FF1FDC
:105DB00000002E40FC0CFF1F00002EC0C71AFF1F62
:105DC0001C10FF1F6666263F2404FF1F5404FF1F9C
:105DD0004404FF1F5804FF1F00005940F40CFF1F2C
:105DE000F80CFF1FB81AFF1FB61AFF1F4FEAF17C0D
:105DF000BCF1E04C2CBFBCF5001F11E05FEA4C0C7D
:105E000034BFBCF17F5F2EE05FEA9C0C4FEA0C1CB4
:105E10004FEA3C0CC10071F100414CEB50707047EF
:105E2000C90241EA5051C00218BF41F0010141F0DE
:105E300000414FEA6C50C0F10900212810D240EA1D
:105E4000CC7CCCF1200C11FA0CF070F10040CCF1BC
:105E5000200C21FA0CF00CF0004C40EB0C007047C9
:105E60004FEACC707047490011F5001F04D84FEA83
:105E7000CC10FF30C0057047C81770475FF0FF0CAB
:105E80001CEAD05114BF614506E0C110400721F063
